{"contracts/DrugRegistry.sol":{"DrugRegistry":{"abi":[{"inputs":[],"stateMutability":"nonpayable","type":"constructor"},{"anonymous":false,"inputs":[{"indexed":true,"internalType":"uint256","name":"drugId","type":"uint256"},{"indexed":false,"internalType":"string","name":"name","type":"string"},{"indexed":false,"internalType":"string","name":"manufacturer","type":"string"},{"indexed":true,"internalType":"address","name":"registeredBy","type":"address"}],"name":"DrugRegistered","type":"event"},{"anonymous":false,"inputs":[{"indexed":true,"internalType":"uint256","name":"drugId","type":"uint256"},{"indexed":false,"internalType":"string","name":"name","type":"string"},{"indexed":false,"internalType":"bool","name":"isActive","type":"bool"}],"name":"DrugUpdated","type":"event"},{"anonymous":false,"inputs":[{"indexed":true,"internalType":"bytes32","name":"role","type":"bytes32"},{"indexed":true,"internalType":"bytes32","name":"previousAdminRole","type":"bytes32"},{"indexed":true,"internalType":"bytes32","name":"newAdminRole","type":"bytes32"}],"name":"RoleAdminChanged","type":"event"},{"anonymous":false,"inputs":[{"indexed":true,"internalType":"bytes32","name":"role","type":"bytes32"},{"indexed":true,"internalType":"address","name":"account","type":"address"},{"indexed":true,"internalType":"address","name":"sender","type":"address"}],"name":"RoleGranted","type":"event"},{"anonymous":false,"inputs":[{"indexed":true,"internalType":"bytes32","name":"role","type":"bytes32"},{"indexed":true,"internalType":"address","name":"account","type":"address"},{"indexed":true,"internalType":"address","name":"sender","type":"address"}],"name":"RoleRevoked","type":"event"},{"inputs":[],"name":"DEFAULT_ADMIN_ROLE","outputs":[{"internalType":"bytes32","name":"","type":"bytes32"}],"stateMutability":"view","type":"function"},{"inputs":[{"internalType":"string","name":"","type":"string"}],"name":"drugByName","outputs":[{"internalType":"uint256","name":"","type":"uint256"}],"stateMutability":"view","type":"function"},{"inputs":[{"internalType":"uint256","name":"","type":"uint256"}],"name":"drugs","outputs":[{"internalType":"uint256","name":"id","type":"uint256"},{"internalType":"string","name":"name","type":"string"},{"internalType":"string","name":"description","type":"string"},{"internalType":"string","name":"manufacturer","type":"string"},{"internalType":"uint256","name":"manufacturingDate","type":"uint256"},{"internalType":"uint256","name":"expiryDate","type":"uint256"},{"internalType":"bool","name":"requiresTemperatureControl","type":"bool"},{"internalType":"uint256","name":"minTemperature","type":"uint256"},{"internalType":"uint256","name":"maxTemperature","type":"uint256"},{"internalType":"bool","name":"isActive","type":"bool"},{"internalType":"address","name":"registeredBy","type":"address"}],"stateMutability":"view","type":"function"},{"inputs":[{"internalType":"uint256","name":"_drugId","type":"uint256"}],"name":"getDrug","outputs":[{"components":[{"internalType":"uint256","name":"id","type":"uint256"},{"internalType":"string","name":"name","type":"string"},{"internalType":"string","name":"description","type":"string"},{"internalType":"string","name":"manufacturer","type":"string"},{"internalType":"uint256","name":"manufacturingDate","type":"uint256"},{"internalType":"uint256","name":"expiryDate","type":"uint256"},{"internalType":"bool","name":"requiresTemperatureControl","type":"bool"},{"internalType":"uint256","name":"minTemperature","type":"uint256"},{"internalType":"uint256","name":"maxTemperature","type":"uint256"},{"internalType":"bool","name":"isActive","type":"bool"},{"internalType":"address","name":"registeredBy","type":"address"}],"internalType":"struct DrugRegistry.Drug","name":"","type":"tuple"}],"stateMutability":"view","type":"function"},{"inputs":[{"internalType":"string","name":"_name","type":"string"}],"name":"getDrugByName","outputs":[{"components":[{"internalType":"uint256","name":"id","type":"uint256"},{"internalType":"string","name":"name","type":"string"},{"internalType":"string","name":"description","type":"string"},{"internalType":"string","name":"manufacturer","type":"string"},{"internalType":"uint256","name":"manufacturingDate","type":"uint256"},{"internalType":"uint256","name":"expiryDate","type":"uint256"},{"internalType":"bool","name":"requiresTemperatureControl","type":"bool"},{"internalType":"uint256","name":"minTemperature","type":"uint256"},{"internalType":"uint256","name":"maxTemperature","type":"uint256"},{"internalType":"bool","name":"isActive","type":"bool"},{"internalType":"address","name":"registeredBy","type":"address"}],"internalType":"struct DrugRegistry.Drug","name":"","type":"tuple"}],"stateMutability":"view","type":"function"},{"inputs":[{"internalType":"bytes32","name":"role","type":"bytes32"}],"name":"getRoleAdmin","outputs":[{"internalType":"bytes32","name":"","type":"bytes32"}],"stateMutability":"view","type":"function"},{"inputs":[],"name":"getTotalDrugs","outputs":[{"internalType":"uint256","name":"","type":"uint256"}],"stateMutability":"view","type":"function"},{"inputs":[{"internalType":"bytes32","name":"role","type":"bytes32"},{"internalType":"address","name":"account","type":"address"}],"name":"grantRole","outputs":[],"stateMutability":"nonpayable","type":"function"},{"inputs":[{"internalType":"bytes32","name":"role","type":"bytes32"},{"internalType":"address","name":"account","type":"address"}],"name":"hasRole","outputs":[{"internalType":"bool","name":"","type":"bool"}],"stateMutability":"view","type":"function"},{"inputs":[{"internalType":"string","name":"_name","type":"string"},{"internalType":"string","name":"_description","type":"string"},{"internalType":"string","name":"_manufacturer","type":"string"},{"internalType":"uint256","name":"_manufacturingDate","type":"uint256"},{"internalType":"uint256","name":"_expiryDate","type":"uint256"},{"internalType":"bool","name":"_requiresTemperatureControl","type":"bool"},{"internalType":"uint256","name":"_minTemperature","type":"uint256"},{"internalType":"uint256","name":"_maxTemperature","type":"uint256"}],"name":"registerDrug","outputs":[{"internalType":"uint256","name":"","type":"uint256"}],"stateMutability":"nonpayable","type":"function"},{"inputs":[{"internalType":"bytes32","name":"role","type":"bytes32"},{"internalType":"address","name":"account","type":"address"}],"name":"renounceRole","outputs":[],"stateMutability":"nonpayable","type":"function"},{"inputs":[{"internalType":"bytes32","name":"role","type":"bytes32"},{"internalType":"address","name":"account","type":"address"}],"name":"revokeRole","outputs":[],"stateMutability":"nonpayable","type":"function"},{"inputs":[{"internalType":"bytes4","name":"interfaceId","type":"bytes4"}],"name":"supportsInterface","outputs":[{"internalType":"bool","name":"","type":"bool"}],"stateMutability":"view","type":"function"},{"inputs":[{"internalType":"uint256","name":"_drugId","type":"uint256"},{"internalType":"bool","name":"_isActive","type":"bool"}],"name":"updateDrugStatus","outputs":[],"stateMutability":"nonpayable","type":"function"}],"evm":{"bytecode":{"linkReferences":{},"object":"60806040523480156200001157600080fd5b50620000276000801b336200002d60201b60201c565b62000190565b6200003f82826200011e60201b60201c565b6200011a57600160008084815260200190815260200160002060000160008373ffffffffffffffffffffffffffffffffffffffff1673ffffffffffffffffffffffffffffffffffffffff16815260200190815260200160002060006101000a81548160ff021916908315150217905550620000bf6200018860201b60201c565b73ffffffffffffffffffffffffffffffffffffffff168173ffffffffffffffffffffffffffffffffffffffff16837f2f8788117e7eff1d82e926ec794901d17c78024a50270940304540a733656f0d60405160405180910390a45b5050565b600080600084815260200190815260200160002060000160008373ffffffffffffffffffffffffffffffffffffffff1673ffffffffffffffffffffffffffffffffffffffff16815260200190815260200160002060009054906101000a900460ff16905092915050565b600033905090565b61290b80620001a06000396000f3fe608060405234801561001057600080fd5b50600436106100ea5760003560e01c806391d148541161008c578063d547741f11610066578063d547741f14610295578063d83a904e146102b1578063fb93f18f146102cf578063fca5e61e146102eb576100ea565b806391d1485414610217578063a217fddf14610247578063b8840d3d14610265576100ea565b806331b94090116100c857806331b940901461016b57806336568abe1461019b5780635cbdd025146101b757806378f4f774146101e7576100ea565b806301ffc9a7146100ef578063248a9ca31461011f5780632f2ff15d1461014f575b600080fd5b61010960048036038101906101049190611784565b610325565b60405161011691906117cc565b60405180910390f35b6101396004803603810190610134919061181d565b61039f565b6040516101469190611859565b60405180910390f35b610169600480360381019061016491906118d2565b6103be565b005b61018560048036038101906101809190611aba565b6103df565b6040516101929190611bd3565b60405180910390f35b6101b560048036038101906101b091906118d2565b6106ed565b005b6101d160048036038101906101cc9190611bee565b610770565b6040516101de9190611bd3565b60405180910390f35b61020160048036038101906101fc9190611bee565b61079e565b60405161020e9190611de0565b60405180910390f35b610231600480360381019061022c91906118d2565b610aa7565b60405161023e91906117cc565b60405180910390f35b61024f610b11565b60405161025c9190611859565b60405180910390f35b61027f600480360381019061027a9190611e02565b610b18565b60405161028c9190611de0565b60405180910390f35b6102af60048036038101906102aa91906118d2565b610e12565b005b6102b9610e33565b6040516102c69190611bd3565b60405180910390f35b6102e960048036038101906102e49190611e2f565b610e44565b005b61030560048036038101906103009190611e02565b610f1f565b60405161031c9b9a99989796959493929190611ec8565b60405180910390f35b60007f7965db0b000000000000000000000000000000000000000000000000000000007bffffffffffffffffffffffffffffffffffffffffffffffffffffffff1916827bffffffffffffffffffffffffffffffffffffffffffffffffffffffff1916148061039857506103978261114b565b5b9050919050565b6000806000838152602001908152602001600020600101549050919050565b6103c78261039f565b6103d0816111b5565b6103da83836111c9565b505050565b60008060001b6103ee816111b5565b60008a5111610432576040517f08c379a000000000000000000000000000000000000000000000000000000000815260040161042990611fd4565b60405180910390fd5b600060038b6040516104449190612030565b90815260200160405180910390205414610493576040517f08c379a000000000000000000000000000000000000000000000000000000000815260040161048a906120b9565b60405180910390fd5b8587106104d5576040517f08c379a00000000000000000000000000000000000000000000000000000000081526004016104cc90612125565b60405180910390fd5b6104df60016112a9565b60006104eb60016112bf565b90506040518061016001604052808281526020018c81526020018b81526020018a815260200189815260200188815260200187151581526020018681526020018581526020016001151581526020013373ffffffffffffffffffffffffffffffffffffffff16815250600260008381526020019081526020016000206000820151816000015560208201518160010190816105869190612351565b50604082015181600201908161059c9190612351565b5060608201518160030190816105b29190612351565b506080820151816004015560a0820151816005015560c08201518160060160006101000a81548160ff02191690831515021790555060e0820151816007015561010082015181600801556101208201518160090160006101000a81548160ff0219169083151502179055506101408201518160090160016101000a81548173ffffffffffffffffffffffffffffffffffffffff021916908373ffffffffffffffffffffffffffffffffffffffff1602179055509050508060038c6040516106799190612030565b9081526020016040518091039020819055503373ffffffffffffffffffffffffffffffffffffffff16817f46062d73bf152181a6c25bea7b761c9e82ebdf9d36a2022250fc2923f3490d2c8d8c6040516106d4929190612423565b60405180910390a3809250505098975050505050505050565b6106f56112cd565b73ffffffffffffffffffffffffffffffffffffffff168173ffffffffffffffffffffffffffffffffffffffff1614610762576040517f08c379a0000000000000000000000000000000000000000000000000000000008152600401610759906124cc565b60405180910390fd5b61076c82826112d5565b5050565b6003818051602081018201805184825260208301602085012081835280955050505050506000915090505481565b6107a66116a4565b60006003836040516107b89190612030565b90815260200160405180910390205490506000811161080c576040517f08c379a000000000000000000000000000000000000000000000000000000000815260040161080390612538565b60405180910390fd5b60026000828152602001908152602001600020604051806101600160405290816000820154815260200160018201805461084590612174565b80601f016020809104026020016040519081016040528092919081815260200182805461087190612174565b80156108be5780601f10610893576101008083540402835291602001916108be565b820191906000526020600020905b8154815290600101906020018083116108a157829003601f168201915b505050505081526020016002820180546108d790612174565b80601f016020809104026020016040519081016040528092919081815260200182805461090390612174565b80156109505780601f1061092557610100808354040283529160200191610950565b820191906000526020600020905b81548152906001019060200180831161093357829003601f168201915b5050505050815260200160038201805461096990612174565b80601f016020809104026020016040519081016040528092919081815260200182805461099590612174565b80156109e25780601f106109b7576101008083540402835291602001916109e2565b820191906000526020600020905b8154815290600101906020018083116109c557829003601f168201915b5050505050815260200160048201548152602001600582015481526020016006820160009054906101000a900460ff1615151515815260200160078201548152602001600882015481526020016009820160009054906101000a900460ff161515151581526020016009820160019054906101000a900473ffffffffffffffffffffffffffffffffffffffff1673ffffffffffffffffffffffffffffffffffffffff1673ffffffffffffffffffffffffffffffffffffffff1681525050915050919050565b600080600084815260200190815260200160002060000160008373ffffffffffffffffffffffffffffffffffffffff1673ffffffffffffffffffffffffffffffffffffffff16815260200190815260200160002060009054906101000a900460ff16905092915050565b6000801b81565b610b206116a4565b600082118015610b395750610b3560016112bf565b8211155b610b78576040517f08c379a0000000000000000000000000000000000000000000000000000000008152600401610b6f906125a4565b60405180910390fd5b600260008381526020019081526020016000206040518061016001604052908160008201548152602001600182018054610bb190612174565b80601f0160208091040260200160405190810160405280929190818152602001828054610bdd90612174565b8015610c2a5780601f10610bff57610100808354040283529160200191610c2a565b820191906000526020600020905b815481529060010190602001808311610c0d57829003601f168201915b50505050508152602001600282018054610c4390612174565b80601f0160208091040260200160405190810160405280929190818152602001828054610c6f90612174565b8015610cbc5780601f10610c9157610100808354040283529160200191610cbc565b820191906000526020600020905b815481529060010190602001808311610c9f57829003601f168201915b50505050508152602001600382018054610cd590612174565b80601f0160208091040260200160405190810160405280929190818152602001828054610d0190612174565b8015610d4e5780601f10610d2357610100808354040283529160200191610d4e565b820191906000526020600020905b815481529060010190602001808311610d3157829003601f168201915b5050505050815260200160048201548152602001600582015481526020016006820160009054906101000a900460ff1615151515815260200160078201548152602001600882015481526020016009820160009054906101000a900460ff161515151581526020016009820160019054906101000a900473ffffffffffffffffffffffffffffffffffffffff1673ffffffffffffffffffffffffffffffffffffffff1673ffffffffffffffffffffffffffffffffffffffff16815250509050919050565b610e1b8261039f565b610e24816111b5565b610e2e83836112d5565b505050565b6000610e3f60016112bf565b905090565b6000801b610e51816111b5565b600083118015610e6a5750610e6660016112bf565b8311155b610ea9576040517f08c379a0000000000000000000000000000000000000000000000000000000008152600401610ea0906125a4565b60405180910390fd5b6000600260008581526020019081526020016000209050828160090160006101000a81548160ff021916908315150217905550837f330d7f4d63e4341e16998444e726c80bbce17b9425e52dd205c4443db9ff72988260010185604051610f11929190612648565b60405180910390a250505050565b6002602052806000526040600020600091509050806000015490806001018054610f4890612174565b80601f0160208091040260200160405190810160405280929190818152602001828054610f7490612174565b8015610fc15780601f10610f9657610100808354040283529160200191610fc1565b820191906000526020600020905b815481529060010190602001808311610fa457829003601f168201915b505050505090806002018054610fd690612174565b80601f016020809104026020016040519081016040528092919081815260200182805461100290612174565b801561104f5780601f106110245761010080835404028352916020019161104f565b820191906000526020600020905b81548152906001019060200180831161103257829003601f168201915b50505050509080600301805461106490612174565b80601f016020809104026020016040519081016040528092919081815260200182805461109090612174565b80156110dd5780601f106110b2576101008083540402835291602001916110dd565b820191906000526020600020905b8154815290600101906020018083116110c057829003601f168201915b5050505050908060040154908060050154908060060160009054906101000a900460ff16908060070154908060080154908060090160009054906101000a900460ff16908060090160019054906101000a900473ffffffffffffffffffffffffffffffffffffffff1690508b565b60007f01ffc9a7000000000000000000000000000000000000000000000000000000007bffffffffffffffffffffffffffffffffffffffffffffffffffffffff1916827bffffffffffffffffffffffffffffffffffffffffffffffffffffffff1916149050919050565b6111c6816111c16112cd565b6113b6565b50565b6111d38282610aa7565b6112a557600160008084815260200190815260200160002060000160008373ffffffffffffffffffffffffffffffffffffffff1673ffffffffffffffffffffffffffffffffffffffff16815260200190815260200160002060006101000a81548160ff02191690831515021790555061124a6112cd565b73ffffffffffffffffffffffffffffffffffffffff168173ffffffffffffffffffffffffffffffffffffffff16837f2f8788117e7eff1d82e926ec794901d17c78024a50270940304540a733656f0d60405160405180910390a45b5050565b6001816000016000828254019250508190555050565b600081600001549050919050565b600033905090565b6112df8282610aa7565b156113b257600080600084815260200190815260200160002060000160008373ffffffffffffffffffffffffffffffffffffffff1673ffffffffffffffffffffffffffffffffffffffff16815260200190815260200160002060006101000a81548160ff0219169083151502179055506113576112cd565b73ffffffffffffffffffffffffffffffffffffffff168173ffffffffffffffffffffffffffffffffffffffff16837ff6391f5c32d9c69d2a47ea670b442974b53935d1edc7fd64eb21e047a839171b60405160405180910390a45b5050565b6113c08282610aa7565b611437576113cd8161143b565b6113db8360001c6020611468565b6040516020016113ec929190612710565b6040516020818303038152906040526040517f08c379a000000000000000000000000000000000000000000000000000000000815260040161142e919061274a565b60405180910390fd5b5050565b60606114618273ffffffffffffffffffffffffffffffffffffffff16601460ff16611468565b9050919050565b60606000600283600261147b919061279b565b61148591906127dd565b67ffffffffffffffff81111561149e5761149d61192d565b5b6040519080825280601f01601f1916602001820160405280156114d05781602001600182028036833780820191505090505b5090507f30000000000000000000000000000000000000000000000000000000000000008160008151811061150857611507612811565b5b60200101907effffffffffffffffffffffffffffffffffffffffffffffffffffffffffffff1916908160001a9053507f78000000000000000000000000000000000000000000000000000000000000008160018151811061156c5761156b612811565b5b60200101907effffffffffffffffffffffffffffffffffffffffffffffffffffffffffffff1916908160001a905350600060018460026115ac919061279b565b6115b691906127dd565b90505b6001811115611656577f3031323334353637383961626364656600000000000000000000000000000000600f8616601081106115f8576115f7612811565b5b1a60f81b82828151811061160f5761160e612811565b5b60200101907effffffffffffffffffffffffffffffffffffffffffffffffffffffffffffff1916908160001a905350600485901c94508061164f90612840565b90506115b9565b506000841461169a576040517f08c379a0000000000000000000000000000000000000000000000000000000008152600401611691906128b5565b60405180910390fd5b8091505092915050565b6040518061016001604052806000815260200160608152602001606081526020016060815260200160008152602001600081526020016000151581526020016000815260200160008152602001600015158152602001600073ffffffffffffffffffffffffffffffffffffffff1681525090565b6000604051905090565b600080fd5b600080fd5b60007fffffffff0000000000000000000000000000000000000000000000000000000082169050919050565b6117618161172c565b811461176c57600080fd5b50565b60008135905061177e81611758565b92915050565b60006020828403121561179a57611799611722565b5b60006117a88482850161176f565b91505092915050565b60008115159050919050565b6117c6816117b1565b82525050565b60006020820190506117e160008301846117bd565b92915050565b6000819050919050565b6117fa816117e7565b811461180557600080fd5b50565b600081359050611817816117f1565b92915050565b60006020828403121561183357611832611722565b5b600061184184828501611808565b91505092915050565b611853816117e7565b82525050565b600060208201905061186e600083018461184a565b92915050565b600073ffffffffffffffffffffffffffffffffffffffff82169050919050565b600061189f82611874565b9050919050565b6118af81611894565b81146118ba57600080fd5b50565b6000813590506118cc816118a6565b92915050565b600080604083850312156118e9576118e8611722565b5b60006118f785828601611808565b9250506020611908858286016118bd565b9150509250929050565b600080fd5b600080fd5b6000601f19601f8301169050919050565b7f4e487b7100000000000000000000000000000000000000000000000000000000600052604160045260246000fd5b6119658261191c565b810181811067ffffffffffffffff821117156119845761198361192d565b5b80604052505050565b6000611997611718565b90506119a3828261195c565b919050565b600067ffffffffffffffff8211156119c3576119c261192d565b5b6119cc8261191c565b9050602081019050919050565b82818337600083830152505050565b60006119fb6119f6846119a8565b61198d565b905082815260208101848484011115611a1757611a16611917565b5b611a228482856119d9565b509392505050565b600082601f830112611a3f57611a3e611912565b5b8135611a4f8482602086016119e8565b91505092915050565b6000819050919050565b611a6b81611a58565b8114611a7657600080fd5b50565b600081359050611a8881611a62565b92915050565b611a97816117b1565b8114611aa257600080fd5b50565b600081359050611ab481611a8e565b92915050565b600080600080600080600080610100898b031215611adb57611ada611722565b5b600089013567ffffffffffffffff811115611af957611af8611727565b5b611b058b828c01611a2a565b985050602089013567ffffffffffffffff811115611b2657611b25611727565b5b611b328b828c01611a2a565b975050604089013567ffffffffffffffff811115611b5357611b52611727565b5b611b5f8b828c01611a2a565b9650506060611b708b828c01611a79565b9550506080611b818b828c01611a79565b94505060a0611b928b828c01611aa5565b93505060c0611ba38b828c01611a79565b92505060e0611bb48b828c01611a79565b9150509295985092959890939650565b611bcd81611a58565b82525050565b6000602082019050611be86000830184611bc4565b92915050565b600060208284031215611c0457611c03611722565b5b600082013567ffffffffffffffff811115611c2257611c21611727565b5b611c2e84828501611a2a565b91505092915050565b611c4081611a58565b82525050565b600081519050919050565b600082825260208201905092915050565b60005b83811015611c80578082015181840152602081019050611c65565b60008484015250505050565b6000611c9782611c46565b611ca18185611c51565b9350611cb1818560208601611c62565b611cba8161191c565b840191505092915050565b611cce816117b1565b82525050565b611cdd81611894565b82525050565b600061016083016000830151611cfc6000860182611c37565b5060208301518482036020860152611d148282611c8c565b91505060408301518482036040860152611d2e8282611c8c565b91505060608301518482036060860152611d488282611c8c565b9150506080830151611d5d6080860182611c37565b5060a0830151611d7060a0860182611c37565b5060c0830151611d8360c0860182611cc5565b5060e0830151611d9660e0860182611c37565b50610100830151611dab610100860182611c37565b50610120830151611dc0610120860182611cc5565b50610140830151611dd5610140860182611cd4565b508091505092915050565b60006020820190508181036000830152611dfa8184611ce3565b905092915050565b600060208284031215611e1857611e17611722565b5b6000611e2684828501611a79565b91505092915050565b60008060408385031215611e4657611e45611722565b5b6000611e5485828601611a79565b9250506020611e6585828601611aa5565b9150509250929050565b600082825260208201905092915050565b6000611e8b82611c46565b611e958185611e6f565b9350611ea5818560208601611c62565b611eae8161191c565b840191505092915050565b611ec281611894565b82525050565b600061016082019050611ede600083018e611bc4565b8181036020830152611ef0818d611e80565b90508181036040830152611f04818c611e80565b90508181036060830152611f18818b611e80565b9050611f27608083018a611bc4565b611f3460a0830189611bc4565b611f4160c08301886117bd565b611f4e60e0830187611bc4565b611f5c610100830186611bc4565b611f6a6101208301856117bd565b611f78610140830184611eb9565b9c9b505050505050505050505050565b7f44727567206e616d652063616e6e6f7420626520656d70747900000000000000600082015250565b6000611fbe601983611e6f565b9150611fc982611f88565b602082019050919050565b60006020820190508181036000830152611fed81611fb1565b9050919050565b600081905092915050565b600061200a82611c46565b6120148185611ff4565b9350612024818560208601611c62565b80840191505092915050565b600061203c8284611fff565b915081905092915050565b7f4472756720776974682074686973206e616d6520616c7265616479206578697360008201527f7473000000000000000000000000000000000000000000000000000000000000602082015250565b60006120a3602283611e6f565b91506120ae82612047565b604082019050919050565b600060208201905081810360008301526120d281612096565b9050919050565b7f496e76616c696420646174657300000000000000000000000000000000000000600082015250565b600061210f600d83611e6f565b915061211a826120d9565b602082019050919050565b6000602082019050818103600083015261213e81612102565b9050919050565b7f4e487b7100000000000000000000000000000000000000000000000000000000600052602260045260246000fd5b6000600282049050600182168061218c57607f821691505b60208210810361219f5761219e612145565b5b50919050565b60008190508160005260206000209050919050565b60006020601f8301049050919050565b600082821b905092915050565b6000600883026122077fffffffffffffffffffffffffffffffffffffffffffffffffffffffffffffffff826121ca565b61221186836121ca565b95508019841693508086168417925050509392505050565b6000819050919050565b600061224e61224961224484611a58565b612229565b611a58565b9050919050565b6000819050919050565b61226883612233565b61227c61227482612255565b8484546121d7565b825550505050565b600090565b612291612284565b61229c81848461225f565b505050565b5b818110156122c0576122b5600082612289565b6001810190506122a2565b5050565b601f821115612305576122d6816121a5565b6122df846121ba565b810160208510156122ee578190505b6123026122fa856121ba565b8301826122a1565b50505b505050565b600082821c905092915050565b60006123286000198460080261230a565b1980831691505092915050565b60006123418383612317565b9150826002028217905092915050565b61235a82611c46565b67ffffffffffffffff8111156123735761237261192d565b5b61237d8254612174565b6123888282856122c4565b600060209050601f8311600181146123bb57600084156123a9578287015190505b6123b38582612335565b86555061241b565b601f1984166123c9866121a5565b60005b828110156123f1578489015182556001820191506020850194506020810190506123cc565b8683101561240e578489015161240a601f891682612317565b8355505b6001600288020188555050505b505050505050565b6000604082019050818103600083015261243d8185611e80565b905081810360208301526124518184611e80565b90509392505050565b7f416363657373436f6e74726f6c3a2063616e206f6e6c792072656e6f756e636560008201527f20726f6c657320666f722073656c660000000000000000000000000000000000602082015250565b60006124b6602f83611e6f565b91506124c18261245a565b604082019050919050565b600060208201905081810360008301526124e5816124a9565b9050919050565b7f44727567206e6f7420666f756e64000000000000000000000000000000000000600082015250565b6000612522600e83611e6f565b915061252d826124ec565b602082019050919050565b6000602082019050818103600083015261255181612515565b9050919050565b7f496e76616c696420647275672049440000000000000000000000000000000000600082015250565b600061258e600f83611e6f565b915061259982612558565b602082019050919050565b600060208201905081810360008301526125bd81612581565b9050919050565b600081546125d181612174565b6125db8186611e6f565b945060018216600081146125f6576001811461260c5761263f565b60ff19831686528115156020028601935061263f565b612615856121a5565b60005b8381101561263757815481890152600182019150602081019050612618565b808801955050505b50505092915050565b6000604082019050818103600083015261266281856125c4565b905061267160208301846117bd565b9392505050565b7f416363657373436f6e74726f6c3a206163636f756e7420000000000000000000600082015250565b60006126ae601783611ff4565b91506126b982612678565b601782019050919050565b7f206973206d697373696e6720726f6c6520000000000000000000000000000000600082015250565b60006126fa601183611ff4565b9150612705826126c4565b601182019050919050565b600061271b826126a1565b91506127278285611fff565b9150612732826126ed565b915061273e8284611fff565b91508190509392505050565b600060208201905081810360008301526127648184611e80565b905092915050565b7f4e487b7100000000000000000000000000000000000000000000000000000000600052601160045260246000fd5b60006127a682611a58565b91506127b183611a58565b92508282026127bf81611a58565b915082820484148315176127d6576127d561276c565b5b5092915050565b60006127e882611a58565b91506127f383611a58565b925082820190508082111561280b5761280a61276c565b5b92915050565b7f4e487b7100000000000000000000000000000000000000000000000000000000600052603260045260246000fd5b600061284b82611a58565b91506000820361285e5761285d61276c565b5b600182039050919050565b7f537472696e67733a20686578206c656e67746820696e73756666696369656e74600082015250565b600061289f602083611e6f565b91506128aa82612869565b602082019050919050565b600060208201905081810360008301526128ce81612892565b905091905056fea26469706673582212207b98c55bd0a68b3933f0dc3f92cdfa9c0407511bb357ae566e6c9a0719c42dd064736f6c63430008130033","opcodes":"PUSH1 0x80 PUSH1 0x40 MSTORE CALLVALUE DUP1 ISZERO PUSH3 0x11 JUMPI PUSH1 0x0 DUP1 REVERT JUMPDEST POP PUSH3 0x27 PUSH1 0x0 DUP1 SHL CALLER PUSH3 0x2D PUSH1 0x20 SHL PUSH1 0x20 SHR JUMP JUMPDEST PUSH3 0x190 JUMP JUMPDEST PUSH3 0x3F DUP3 DUP3 PUSH3 0x11E PUSH1 0x20 SHL PUSH1 0x20 SHR JUMP JUMPDEST PUSH3 0x11A JUMPI PUSH1 0x1 PUSH1 0x0 DUP1 DUP5 DUP2 MSTORE PUSH1 0x20 ADD SWAP1 DUP2 MSTORE PUSH1 0x20 ADD PUSH1 0x0 KECCAK256 PUSH1 0x0 ADD PUSH1 0x0 DUP4 PUSH20 0xFFFFFFFFFFFFFFFFFFFFFFFFFFFFFFFFFFFFFFFF AND PUSH20 0xFFFFFFFFFFFFFFFFFFFFFFFFFFFFFFFFFFFFFFFF AND DUP2 MSTORE PUSH1 0x20 ADD SWAP1 DUP2 MSTORE PUSH1 0x20 ADD PUSH1 0x0 KECCAK256 PUSH1 0x0 PUSH2 0x100 EXP DUP2 SLOAD DUP2 PUSH1 0xFF MUL NOT AND SWAP1 DUP4 ISZERO ISZERO MUL OR SWAP1 SSTORE POP PUSH3 0xBF PUSH3 0x188 PUSH1 0x20 SHL PUSH1 0x20 SHR JUMP JUMPDEST PUSH20 0xFFFFFFFFFFFFFFFFFFFFFFFFFFFFFFFFFFFFFFFF AND DUP2 PUSH20 0xFFFFFFFFFFFFFFFFFFFFFFFFFFFFFFFFFFFFFFFF AND DUP4 PUSH32 0x2F8788117E7EFF1D82E926EC794901D17C78024A50270940304540A733656F0D PUSH1 0x40 MLOAD PUSH1 0x40 MLOAD DUP1 SWAP2 SUB SWAP1 LOG4 JUMPDEST POP POP JUMP JUMPDEST PUSH1 0x0 DUP1 PUSH1 0x0 DUP5 DUP2 MSTORE PUSH1 0x20 ADD SWAP1 DUP2 MSTORE PUSH1 0x20 ADD PUSH1 0x0 KECCAK256 PUSH1 0x0 ADD PUSH1 0x0 DUP4 PUSH20 0xFFFFFFFFFFFFFFFFFFFFFFFFFFFFFFFFFFFFFFFF AND PUSH20 0xFFFFFFFFFFFFFFFFFFFFFFFFFFFFFFFFFFFFFFFF AND DUP2 MSTORE PUSH1 0x20 ADD SWAP1 DUP2 MSTORE PUSH1 0x20 ADD PUSH1 0x0 KECCAK256 PUSH1 0x0 SWAP1 SLOAD SWAP1 PUSH2 0x100 EXP SWAP1 DIV PUSH1 0xFF AND SWAP1 POP SWAP3 SWAP2 POP POP JUMP JUMPDEST PUSH1 0x0 CALLER SWAP1 POP SWAP1 JUMP JUMPDEST PUSH2 0x290B DUP1 PUSH3 0x1A0 PUSH1 0x0 CODECOPY PUSH1 0x0 RETURN INVALID PUSH1 0x80 PUSH1 0x40 MSTORE CALLVALUE DUP1 ISZERO PUSH2 0x10 JUMPI PUSH1 0x0 DUP1 REVERT JUMPDEST POP PUSH1 0x4 CALLDATASIZE LT PUSH2 0xEA JUMPI PUSH1 0x0 CALLDATALOAD PUSH1 0xE0 SHR DUP1 PUSH4 0x91D14854 GT PUSH2 0x8C JUMPI DUP1 PUSH4 0xD547741F GT PUSH2 0x66 JUMPI DUP1 PUSH4 0xD547741F EQ PUSH2 0x295 JUMPI DUP1 PUSH4 0xD83A904E EQ PUSH2 0x2B1 JUMPI DUP1 PUSH4 0xFB93F18F EQ PUSH2 0x2CF JUMPI DUP1 PUSH4 0xFCA5E61E EQ PUSH2 0x2EB JUMPI PUSH2 0xEA JUMP JUMPDEST DUP1 PUSH4 0x91D14854 EQ PUSH2 0x217 JUMPI DUP1 PUSH4 0xA217FDDF EQ PUSH2 0x247 JUMPI DUP1 PUSH4 0xB8840D3D EQ PUSH2 0x265 JUMPI PUSH2 0xEA JUMP JUMPDEST DUP1 PUSH4 0x31B94090 GT PUSH2 0xC8 JUMPI DUP1 PUSH4 0x31B94090 EQ PUSH2 0x16B JUMPI DUP1 PUSH4 0x36568ABE EQ PUSH2 0x19B JUMPI DUP1 PUSH4 0x5CBDD025 EQ PUSH2 0x1B7 JUMPI DUP1 PUSH4 0x78F4F774 EQ PUSH2 0x1E7 JUMPI PUSH2 0xEA JUMP JUMPDEST DUP1 PUSH4 0x1FFC9A7 EQ PUSH2 0xEF JUMPI DUP1 PUSH4 0x248A9CA3 EQ PUSH2 0x11F JUMPI DUP1 PUSH4 0x2F2FF15D EQ PUSH2 0x14F JUMPI JUMPDEST PUSH1 0x0 DUP1 REVERT JUMPDEST PUSH2 0x109 PUSH1 0x4 DUP1 CALLDATASIZE SUB DUP2 ADD SWAP1 PUSH2 0x104 SWAP2 SWAP1 PUSH2 0x1784 JUMP JUMPDEST PUSH2 0x325 JUMP JUMPDEST PUSH1 0x40 MLOAD PUSH2 0x116 SWAP2 SWAP1 PUSH2 0x17CC JUMP JUMPDEST PUSH1 0x40 MLOAD DUP1 SWAP2 SUB SWAP1 RETURN JUMPDEST PUSH2 0x139 PUSH1 0x4 DUP1 CALLDATASIZE SUB DUP2 ADD SWAP1 PUSH2 0x134 SWAP2 SWAP1 PUSH2 0x181D JUMP JUMPDEST PUSH2 0x39F JUMP JUMPDEST PUSH1 0x40 MLOAD PUSH2 0x146 SWAP2 SWAP1 PUSH2 0x1859 JUMP JUMPDEST PUSH1 0x40 MLOAD DUP1 SWAP2 SUB SWAP1 RETURN JUMPDEST PUSH2 0x169 PUSH1 0x4 DUP1 CALLDATASIZE SUB DUP2 ADD SWAP1 PUSH2 0x164 SWAP2 SWAP1 PUSH2 0x18D2 JUMP JUMPDEST PUSH2 0x3BE JUMP JUMPDEST STOP JUMPDEST PUSH2 0x185 PUSH1 0x4 DUP1 CALLDATASIZE SUB DUP2 ADD SWAP1 PUSH2 0x180 SWAP2 SWAP1 PUSH2 0x1ABA JUMP JUMPDEST PUSH2 0x3DF JUMP JUMPDEST PUSH1 0x40 MLOAD PUSH2 0x192 SWAP2 SWAP1 PUSH2 0x1BD3 JUMP JUMPDEST PUSH1 0x40 MLOAD DUP1 SWAP2 SUB SWAP1 RETURN JUMPDEST PUSH2 0x1B5 PUSH1 0x4 DUP1 CALLDATASIZE SUB DUP2 ADD SWAP1 PUSH2 0x1B0 SWAP2 SWAP1 PUSH2 0x18D2 JUMP JUMPDEST PUSH2 0x6ED JUMP JUMPDEST STOP JUMPDEST PUSH2 0x1D1 PUSH1 0x4 DUP1 CALLDATASIZE SUB DUP2 ADD SWAP1 PUSH2 0x1CC SWAP2 SWAP1 PUSH2 0x1BEE JUMP JUMPDEST PUSH2 0x770 JUMP JUMPDEST PUSH1 0x40 MLOAD PUSH2 0x1DE SWAP2 SWAP1 PUSH2 0x1BD3 JUMP JUMPDEST PUSH1 0x40 MLOAD DUP1 SWAP2 SUB SWAP1 RETURN JUMPDEST PUSH2 0x201 PUSH1 0x4 DUP1 CALLDATASIZE SUB DUP2 ADD SWAP1 PUSH2 0x1FC SWAP2 SWAP1 PUSH2 0x1BEE JUMP JUMPDEST PUSH2 0x79E JUMP JUMPDEST PUSH1 0x40 MLOAD PUSH2 0x20E SWAP2 SWAP1 PUSH2 0x1DE0 JUMP JUMPDEST PUSH1 0x40 MLOAD DUP1 SWAP2 SUB SWAP1 RETURN JUMPDEST PUSH2 0x231 PUSH1 0x4 DUP1 CALLDATASIZE SUB DUP2 ADD SWAP1 PUSH2 0x22C SWAP2 SWAP1 PUSH2 0x18D2 JUMP JUMPDEST PUSH2 0xAA7 JUMP JUMPDEST PUSH1 0x40 MLOAD PUSH2 0x23E SWAP2 SWAP1 PUSH2 0x17CC JUMP JUMPDEST PUSH1 0x40 MLOAD DUP1 SWAP2 SUB SWAP1 RETURN JUMPDEST PUSH2 0x24F PUSH2 0xB11 JUMP JUMPDEST PUSH1 0x40 MLOAD PUSH2 0x25C SWAP2 SWAP1 PUSH2 0x1859 JUMP JUMPDEST PUSH1 0x40 MLOAD DUP1 SWAP2 SUB SWAP1 RETURN JUMPDEST PUSH2 0x27F PUSH1 0x4 DUP1 CALLDATASIZE SUB DUP2 ADD SWAP1 PUSH2 0x27A SWAP2 SWAP1 PUSH2 0x1E02 JUMP JUMPDEST PUSH2 0xB18 JUMP JUMPDEST PUSH1 0x40 MLOAD PUSH2 0x28C SWAP2 SWAP1 PUSH2 0x1DE0 JUMP JUMPDEST PUSH1 0x40 MLOAD DUP1 SWAP2 SUB SWAP1 RETURN JUMPDEST PUSH2 0x2AF PUSH1 0x4 DUP1 CALLDATASIZE SUB DUP2 ADD SWAP1 PUSH2 0x2AA SWAP2 SWAP1 PUSH2 0x18D2 JUMP JUMPDEST PUSH2 0xE12 JUMP JUMPDEST STOP JUMPDEST PUSH2 0x2B9 PUSH2 0xE33 JUMP JUMPDEST PUSH1 0x40 MLOAD PUSH2 0x2C6 SWAP2 SWAP1 PUSH2 0x1BD3 JUMP JUMPDEST PUSH1 0x40 MLOAD DUP1 SWAP2 SUB SWAP1 RETURN JUMPDEST PUSH2 0x2E9 PUSH1 0x4 DUP1 CALLDATASIZE SUB DUP2 ADD SWAP1 PUSH2 0x2E4 SWAP2 SWAP1 PUSH2 0x1E2F JUMP JUMPDEST PUSH2 0xE44 JUMP JUMPDEST STOP JUMPDEST PUSH2 0x305 PUSH1 0x4 DUP1 CALLDATASIZE SUB DUP2 ADD SWAP1 PUSH2 0x300 SWAP2 SWAP1 PUSH2 0x1E02 JUMP JUMPDEST PUSH2 0xF1F JUMP JUMPDEST PUSH1 0x40 MLOAD PUSH2 0x31C SWAP12 SWAP11 SWAP10 SWAP9 SWAP8 SWAP7 SWAP6 SWAP5 SWAP4 SWAP3 SWAP2 SWAP1 PUSH2 0x1EC8 JUMP JUMPDEST PUSH1 0x40 MLOAD DUP1 SWAP2 SUB SWAP1 RETURN JUMPDEST PUSH1 0x0 PUSH32 0x7965DB0B00000000000000000000000000000000000000000000000000000000 PUSH28 0xFFFFFFFFFFFFFFFFFFFFFFFFFFFFFFFFFFFFFFFFFFFFFFFFFFFFFFFF NOT AND DUP3 PUSH28 0xFFFFFFFFFFFFFFFFFFFFFFFFFFFFFFFFFFFFFFFFFFFFFFFFFFFFFFFF NOT AND EQ DUP1 PUSH2 0x398 JUMPI POP PUSH2 0x397 DUP3 PUSH2 0x114B JUMP JUMPDEST JUMPDEST SWAP1 POP SWAP2 SWAP1 POP JUMP JUMPDEST PUSH1 0x0 DUP1 PUSH1 0x0 DUP4 DUP2 MSTORE PUSH1 0x20 ADD SWAP1 DUP2 MSTORE PUSH1 0x20 ADD PUSH1 0x0 KECCAK256 PUSH1 0x1 ADD SLOAD SWAP1 POP SWAP2 SWAP1 POP JUMP JUMPDEST PUSH2 0x3C7 DUP3 PUSH2 0x39F JUMP JUMPDEST PUSH2 0x3D0 DUP2 PUSH2 0x11B5 JUMP JUMPDEST PUSH2 0x3DA DUP4 DUP4 PUSH2 0x11C9 JUMP JUMPDEST POP POP POP JUMP JUMPDEST PUSH1 0x0 DUP1 PUSH1 0x0 SHL PUSH2 0x3EE DUP2 PUSH2 0x11B5 JUMP JUMPDEST PUSH1 0x0 DUP11 MLOAD GT PUSH2 0x432 JUMPI PUSH1 0x40 MLOAD PUSH32 0x8C379A000000000000000000000000000000000000000000000000000000000 DUP2 MSTORE PUSH1 0x4 ADD PUSH2 0x429 SWAP1 PUSH2 0x1FD4 JUMP JUMPDEST PUSH1 0x40 MLOAD DUP1 SWAP2 SUB SWAP1 REVERT JUMPDEST PUSH1 0x0 PUSH1 0x3 DUP12 PUSH1 0x40 MLOAD PUSH2 0x444 SWAP2 SWAP1 PUSH2 0x2030 JUMP JUMPDEST SWAP1 DUP2 MSTORE PUSH1 0x20 ADD PUSH1 0x40 MLOAD DUP1 SWAP2 SUB SWAP1 KECCAK256 SLOAD EQ PUSH2 0x493 JUMPI PUSH1 0x40 MLOAD PUSH32 0x8C379A000000000000000000000000000000000000000000000000000000000 DUP2 MSTORE PUSH1 0x4 ADD PUSH2 0x48A SWAP1 PUSH2 0x20B9 JUMP JUMPDEST PUSH1 0x40 MLOAD DUP1 SWAP2 SUB SWAP1 REVERT JUMPDEST DUP6 DUP8 LT PUSH2 0x4D5 JUMPI PUSH1 0x40 MLOAD PUSH32 0x8C379A000000000000000000000000000000000000000000000000000000000 DUP2 MSTORE PUSH1 0x4 ADD PUSH2 0x4CC SWAP1 PUSH2 0x2125 JUMP JUMPDEST PUSH1 0x40 MLOAD DUP1 SWAP2 SUB SWAP1 REVERT JUMPDEST PUSH2 0x4DF PUSH1 0x1 PUSH2 0x12A9 JUMP JUMPDEST PUSH1 0x0 PUSH2 0x4EB PUSH1 0x1 PUSH2 0x12BF JUMP JUMPDEST SWAP1 POP PUSH1 0x40 MLOAD DUP1 PUSH2 0x160 ADD PUSH1 0x40 MSTORE DUP1 DUP3 DUP2 MSTORE PUSH1 0x20 ADD DUP13 DUP2 MSTORE PUSH1 0x20 ADD DUP12 DUP2 MSTORE PUSH1 0x20 ADD DUP11 DUP2 MSTORE PUSH1 0x20 ADD DUP10 DUP2 MSTORE PUSH1 0x20 ADD DUP9 DUP2 MSTORE PUSH1 0x20 ADD DUP8 ISZERO ISZERO DUP2 MSTORE PUSH1 0x20 ADD DUP7 DUP2 MSTORE PUSH1 0x20 ADD DUP6 DUP2 MSTORE PUSH1 0x20 ADD PUSH1 0x1 ISZERO ISZERO DUP2 MSTORE PUSH1 0x20 ADD CALLER PUSH20 0xFFFFFFFFFFFFFFFFFFFFFFFFFFFFFFFFFFFFFFFF AND DUP2 MSTORE POP PUSH1 0x2 PUSH1 0x0 DUP4 DUP2 MSTORE PUSH1 0x20 ADD SWAP1 DUP2 MSTORE PUSH1 0x20 ADD PUSH1 0x0 KECCAK256 PUSH1 0x0 DUP3 ADD MLOAD DUP2 PUSH1 0x0 ADD SSTORE PUSH1 0x20 DUP3 ADD MLOAD DUP2 PUSH1 0x1 ADD SWAP1 DUP2 PUSH2 0x586 SWAP2 SWAP1 PUSH2 0x2351 JUMP JUMPDEST POP PUSH1 0x40 DUP3 ADD MLOAD DUP2 PUSH1 0x2 ADD SWAP1 DUP2 PUSH2 0x59C SWAP2 SWAP1 PUSH2 0x2351 JUMP JUMPDEST POP PUSH1 0x60 DUP3 ADD MLOAD DUP2 PUSH1 0x3 ADD SWAP1 DUP2 PUSH2 0x5B2 SWAP2 SWAP1 PUSH2 0x2351 JUMP JUMPDEST POP PUSH1 0x80 DUP3 ADD MLOAD DUP2 PUSH1 0x4 ADD SSTORE PUSH1 0xA0 DUP3 ADD MLOAD DUP2 PUSH1 0x5 ADD SSTORE PUSH1 0xC0 DUP3 ADD MLOAD DUP2 PUSH1 0x6 ADD PUSH1 0x0 PUSH2 0x100 EXP DUP2 SLOAD DUP2 PUSH1 0xFF MUL NOT AND SWAP1 DUP4 ISZERO ISZERO MUL OR SWAP1 SSTORE POP PUSH1 0xE0 DUP3 ADD MLOAD DUP2 PUSH1 0x7 ADD SSTORE PUSH2 0x100 DUP3 ADD MLOAD DUP2 PUSH1 0x8 ADD SSTORE PUSH2 0x120 DUP3 ADD MLOAD DUP2 PUSH1 0x9 ADD PUSH1 0x0 PUSH2 0x100 EXP DUP2 SLOAD DUP2 PUSH1 0xFF MUL NOT AND SWAP1 DUP4 ISZERO ISZERO MUL OR SWAP1 SSTORE POP PUSH2 0x140 DUP3 ADD MLOAD DUP2 PUSH1 0x9 ADD PUSH1 0x1 PUSH2 0x100 EXP DUP2 SLOAD DUP2 PUSH20 0xFFFFFFFFFFFFFFFFFFFFFFFFFFFFFFFFFFFFFFFF MUL NOT AND SWAP1 DUP4 PUSH20 0xFFFFFFFFFFFFFFFFFFFFFFFFFFFFFFFFFFFFFFFF AND MUL OR SWAP1 SSTORE POP SWAP1 POP POP DUP1 PUSH1 0x3 DUP13 PUSH1 0x40 MLOAD PUSH2 0x679 SWAP2 SWAP1 PUSH2 0x2030 JUMP JUMPDEST SWAP1 DUP2 MSTORE PUSH1 0x20 ADD PUSH1 0x40 MLOAD DUP1 SWAP2 SUB SWAP1 KECCAK256 DUP2 SWAP1 SSTORE POP CALLER PUSH20 0xFFFFFFFFFFFFFFFFFFFFFFFFFFFFFFFFFFFFFFFF AND DUP2 PUSH32 0x46062D73BF152181A6C25BEA7B761C9E82EBDF9D36A2022250FC2923F3490D2C DUP14 DUP13 PUSH1 0x40 MLOAD PUSH2 0x6D4 SWAP3 SWAP2 SWAP1 PUSH2 0x2423 JUMP JUMPDEST PUSH1 0x40 MLOAD DUP1 SWAP2 SUB SWAP1 LOG3 DUP1 SWAP3 POP POP POP SWAP9 SWAP8 POP POP POP POP POP POP POP POP JUMP JUMPDEST PUSH2 0x6F5 PUSH2 0x12CD JUMP JUMPDEST PUSH20 0xFFFFFFFFFFFFFFFFFFFFFFFFFFFFFFFFFFFFFFFF AND DUP2 PUSH20 0xFFFFFFFFFFFFFFFFFFFFFFFFFFFFFFFFFFFFFFFF AND EQ PUSH2 0x762 JUMPI PUSH1 0x40 MLOAD PUSH32 0x8C379A000000000000000000000000000000000000000000000000000000000 DUP2 MSTORE PUSH1 0x4 ADD PUSH2 0x759 SWAP1 PUSH2 0x24CC JUMP JUMPDEST PUSH1 0x40 MLOAD DUP1 SWAP2 SUB SWAP1 REVERT JUMPDEST PUSH2 0x76C DUP3 DUP3 PUSH2 0x12D5 JUMP JUMPDEST POP POP JUMP JUMPDEST PUSH1 0x3 DUP2 DUP1 MLOAD PUSH1 0x20 DUP2 ADD DUP3 ADD DUP1 MLOAD DUP5 DUP3 MSTORE PUSH1 0x20 DUP4 ADD PUSH1 0x20 DUP6 ADD KECCAK256 DUP2 DUP4 MSTORE DUP1 SWAP6 POP POP POP POP POP POP PUSH1 0x0 SWAP2 POP SWAP1 POP SLOAD DUP2 JUMP JUMPDEST PUSH2 0x7A6 PUSH2 0x16A4 JUMP JUMPDEST PUSH1 0x0 PUSH1 0x3 DUP4 PUSH1 0x40 MLOAD PUSH2 0x7B8 SWAP2 SWAP1 PUSH2 0x2030 JUMP JUMPDEST SWAP1 DUP2 MSTORE PUSH1 0x20 ADD PUSH1 0x40 MLOAD DUP1 SWAP2 SUB SWAP1 KECCAK256 SLOAD SWAP1 POP PUSH1 0x0 DUP2 GT PUSH2 0x80C JUMPI PUSH1 0x40 MLOAD PUSH32 0x8C379A000000000000000000000000000000000000000000000000000000000 DUP2 MSTORE PUSH1 0x4 ADD PUSH2 0x803 SWAP1 PUSH2 0x2538 JUMP JUMPDEST PUSH1 0x40 MLOAD DUP1 SWAP2 SUB SWAP1 REVERT JUMPDEST PUSH1 0x2 PUSH1 0x0 DUP3 DUP2 MSTORE PUSH1 0x20 ADD SWAP1 DUP2 MSTORE PUSH1 0x20 ADD PUSH1 0x0 KECCAK256 PUSH1 0x40 MLOAD DUP1 PUSH2 0x160 ADD PUSH1 0x40 MSTORE SWAP1 DUP2 PUSH1 0x0 DUP3 ADD SLOAD DUP2 MSTORE PUSH1 0x20 ADD PUSH1 0x1 DUP3 ADD DUP1 SLOAD PUSH2 0x845 SWAP1 PUSH2 0x2174 JUMP JUMPDEST DUP1 PUSH1 0x1F ADD PUSH1 0x20 DUP1 SWAP2 DIV MUL PUSH1 0x20 ADD PUSH1 0x40 MLOAD SWAP1 DUP2 ADD PUSH1 0x40 MSTORE DUP1 SWAP3 SWAP2 SWAP1 DUP2 DUP2 MSTORE PUSH1 0x20 ADD DUP3 DUP1 SLOAD PUSH2 0x871 SWAP1 PUSH2 0x2174 JUMP JUMPDEST DUP1 ISZERO PUSH2 0x8BE JUMPI DUP1 PUSH1 0x1F LT PUSH2 0x893 JUMPI PUSH2 0x100 DUP1 DUP4 SLOAD DIV MUL DUP4 MSTORE SWAP2 PUSH1 0x20 ADD SWAP2 PUSH2 0x8BE JUMP JUMPDEST DUP3 ADD SWAP2 SWAP1 PUSH1 0x0 MSTORE PUSH1 0x20 PUSH1 0x0 KECCAK256 SWAP1 JUMPDEST DUP2 SLOAD DUP2 MSTORE SWAP1 PUSH1 0x1 ADD SWAP1 PUSH1 0x20 ADD DUP1 DUP4 GT PUSH2 0x8A1 JUMPI DUP3 SWAP1 SUB PUSH1 0x1F AND DUP3 ADD SWAP2 JUMPDEST POP POP POP POP POP DUP2 MSTORE PUSH1 0x20 ADD PUSH1 0x2 DUP3 ADD DUP1 SLOAD PUSH2 0x8D7 SWAP1 PUSH2 0x2174 JUMP JUMPDEST DUP1 PUSH1 0x1F ADD PUSH1 0x20 DUP1 SWAP2 DIV MUL PUSH1 0x20 ADD PUSH1 0x40 MLOAD SWAP1 DUP2 ADD PUSH1 0x40 MSTORE DUP1 SWAP3 SWAP2 SWAP1 DUP2 DUP2 MSTORE PUSH1 0x20 ADD DUP3 DUP1 SLOAD PUSH2 0x903 SWAP1 PUSH2 0x2174 JUMP JUMPDEST DUP1 ISZERO PUSH2 0x950 JUMPI DUP1 PUSH1 0x1F LT PUSH2 0x925 JUMPI PUSH2 0x100 DUP1 DUP4 SLOAD DIV MUL DUP4 MSTORE SWAP2 PUSH1 0x20 ADD SWAP2 PUSH2 0x950 JUMP JUMPDEST DUP3 ADD SWAP2 SWAP1 PUSH1 0x0 MSTORE PUSH1 0x20 PUSH1 0x0 KECCAK256 SWAP1 JUMPDEST DUP2 SLOAD DUP2 MSTORE SWAP1 PUSH1 0x1 ADD SWAP1 PUSH1 0x20 ADD DUP1 DUP4 GT PUSH2 0x933 JUMPI DUP3 SWAP1 SUB PUSH1 0x1F AND DUP3 ADD SWAP2 JUMPDEST POP POP POP POP POP DUP2 MSTORE PUSH1 0x20 ADD PUSH1 0x3 DUP3 ADD DUP1 SLOAD PUSH2 0x969 SWAP1 PUSH2 0x2174 JUMP JUMPDEST DUP1 PUSH1 0x1F ADD PUSH1 0x20 DUP1 SWAP2 DIV MUL PUSH1 0x20 ADD PUSH1 0x40 MLOAD SWAP1 DUP2 ADD PUSH1 0x40 MSTORE DUP1 SWAP3 SWAP2 SWAP1 DUP2 DUP2 MSTORE PUSH1 0x20 ADD DUP3 DUP1 SLOAD PUSH2 0x995 SWAP1 PUSH2 0x2174 JUMP JUMPDEST DUP1 ISZERO PUSH2 0x9E2 JUMPI DUP1 PUSH1 0x1F LT PUSH2 0x9B7 JUMPI PUSH2 0x100 DUP1 DUP4 SLOAD DIV MUL DUP4 MSTORE SWAP2 PUSH1 0x20 ADD SWAP2 PUSH2 0x9E2 JUMP JUMPDEST DUP3 ADD SWAP2 SWAP1 PUSH1 0x0 MSTORE PUSH1 0x20 PUSH1 0x0 KECCAK256 SWAP1 JUMPDEST DUP2 SLOAD DUP2 MSTORE SWAP1 PUSH1 0x1 ADD SWAP1 PUSH1 0x20 ADD DUP1 DUP4 GT PUSH2 0x9C5 JUMPI DUP3 SWAP1 SUB PUSH1 0x1F AND DUP3 ADD SWAP2 JUMPDEST POP POP POP POP POP DUP2 MSTORE PUSH1 0x20 ADD PUSH1 0x4 DUP3 ADD SLOAD DUP2 MSTORE PUSH1 0x20 ADD PUSH1 0x5 DUP3 ADD SLOAD DUP2 MSTORE PUSH1 0x20 ADD PUSH1 0x6 DUP3 ADD PUSH1 0x0 SWAP1 SLOAD SWAP1 PUSH2 0x100 EXP SWAP1 DIV PUSH1 0xFF AND ISZERO ISZERO ISZERO ISZERO DUP2 MSTORE PUSH1 0x20 ADD PUSH1 0x7 DUP3 ADD SLOAD DUP2 MSTORE PUSH1 0x20 ADD PUSH1 0x8 DUP3 ADD SLOAD DUP2 MSTORE PUSH1 0x20 ADD PUSH1 0x9 DUP3 ADD PUSH1 0x0 SWAP1 SLOAD SWAP1 PUSH2 0x100 EXP SWAP1 DIV PUSH1 0xFF AND ISZERO ISZERO ISZERO ISZERO DUP2 MSTORE PUSH1 0x20 ADD PUSH1 0x9 DUP3 ADD PUSH1 0x1 SWAP1 SLOAD SWAP1 PUSH2 0x100 EXP SWAP1 DIV PUSH20 0xFFFFFFFFFFFFFFFFFFFFFFFFFFFFFFFFFFFFFFFF AND PUSH20 0xFFFFFFFFFFFFFFFFFFFFFFFFFFFFFFFFFFFFFFFF AND PUSH20 0xFFFFFFFFFFFFFFFFFFFFFFFFFFFFFFFFFFFFFFFF AND DUP2 MSTORE POP POP SWAP2 POP POP SWAP2 SWAP1 POP JUMP JUMPDEST PUSH1 0x0 DUP1 PUSH1 0x0 DUP5 DUP2 MSTORE PUSH1 0x20 ADD SWAP1 DUP2 MSTORE PUSH1 0x20 ADD PUSH1 0x0 KECCAK256 PUSH1 0x0 ADD PUSH1 0x0 DUP4 PUSH20 0xFFFFFFFFFFFFFFFFFFFFFFFFFFFFFFFFFFFFFFFF AND PUSH20 0xFFFFFFFFFFFFFFFFFFFFFFFFFFFFFFFFFFFFFFFF AND DUP2 MSTORE PUSH1 0x20 ADD SWAP1 DUP2 MSTORE PUSH1 0x20 ADD PUSH1 0x0 KECCAK256 PUSH1 0x0 SWAP1 SLOAD SWAP1 PUSH2 0x100 EXP SWAP1 DIV PUSH1 0xFF AND SWAP1 POP SWAP3 SWAP2 POP POP JUMP JUMPDEST PUSH1 0x0 DUP1 SHL DUP2 JUMP JUMPDEST PUSH2 0xB20 PUSH2 0x16A4 JUMP JUMPDEST PUSH1 0x0 DUP3 GT DUP1 ISZERO PUSH2 0xB39 JUMPI POP PUSH2 0xB35 PUSH1 0x1 PUSH2 0x12BF JUMP JUMPDEST DUP3 GT ISZERO JUMPDEST PUSH2 0xB78 JUMPI PUSH1 0x40 MLOAD PUSH32 0x8C379A000000000000000000000000000000000000000000000000000000000 DUP2 MSTORE PUSH1 0x4 ADD PUSH2 0xB6F SWAP1 PUSH2 0x25A4 JUMP JUMPDEST PUSH1 0x40 MLOAD DUP1 SWAP2 SUB SWAP1 REVERT JUMPDEST PUSH1 0x2 PUSH1 0x0 DUP4 DUP2 MSTORE PUSH1 0x20 ADD SWAP1 DUP2 MSTORE PUSH1 0x20 ADD PUSH1 0x0 KECCAK256 PUSH1 0x40 MLOAD DUP1 PUSH2 0x160 ADD PUSH1 0x40 MSTORE SWAP1 DUP2 PUSH1 0x0 DUP3 ADD SLOAD DUP2 MSTORE PUSH1 0x20 ADD PUSH1 0x1 DUP3 ADD DUP1 SLOAD PUSH2 0xBB1 SWAP1 PUSH2 0x2174 JUMP JUMPDEST DUP1 PUSH1 0x1F ADD PUSH1 0x20 DUP1 SWAP2 DIV MUL PUSH1 0x20 ADD PUSH1 0x40 MLOAD SWAP1 DUP2 ADD PUSH1 0x40 MSTORE DUP1 SWAP3 SWAP2 SWAP1 DUP2 DUP2 MSTORE PUSH1 0x20 ADD DUP3 DUP1 SLOAD PUSH2 0xBDD SWAP1 PUSH2 0x2174 JUMP JUMPDEST DUP1 ISZERO PUSH2 0xC2A JUMPI DUP1 PUSH1 0x1F LT PUSH2 0xBFF JUMPI PUSH2 0x100 DUP1 DUP4 SLOAD DIV MUL DUP4 MSTORE SWAP2 PUSH1 0x20 ADD SWAP2 PUSH2 0xC2A JUMP JUMPDEST DUP3 ADD SWAP2 SWAP1 PUSH1 0x0 MSTORE PUSH1 0x20 PUSH1 0x0 KECCAK256 SWAP1 JUMPDEST DUP2 SLOAD DUP2 MSTORE SWAP1 PUSH1 0x1 ADD SWAP1 PUSH1 0x20 ADD DUP1 DUP4 GT PUSH2 0xC0D JUMPI DUP3 SWAP1 SUB PUSH1 0x1F AND DUP3 ADD SWAP2 JUMPDEST POP POP POP POP POP DUP2 MSTORE PUSH1 0x20 ADD PUSH1 0x2 DUP3 ADD DUP1 SLOAD PUSH2 0xC43 SWAP1 PUSH2 0x2174 JUMP JUMPDEST DUP1 PUSH1 0x1F ADD PUSH1 0x20 DUP1 SWAP2 DIV MUL PUSH1 0x20 ADD PUSH1 0x40 MLOAD SWAP1 DUP2 ADD PUSH1 0x40 MSTORE DUP1 SWAP3 SWAP2 SWAP1 DUP2 DUP2 MSTORE PUSH1 0x20 ADD DUP3 DUP1 SLOAD PUSH2 0xC6F SWAP1 PUSH2 0x2174 JUMP JUMPDEST DUP1 ISZERO PUSH2 0xCBC JUMPI DUP1 PUSH1 0x1F LT PUSH2 0xC91 JUMPI PUSH2 0x100 DUP1 DUP4 SLOAD DIV MUL DUP4 MSTORE SWAP2 PUSH1 0x20 ADD SWAP2 PUSH2 0xCBC JUMP JUMPDEST DUP3 ADD SWAP2 SWAP1 PUSH1 0x0 MSTORE PUSH1 0x20 PUSH1 0x0 KECCAK256 SWAP1 JUMPDEST DUP2 SLOAD DUP2 MSTORE SWAP1 PUSH1 0x1 ADD SWAP1 PUSH1 0x20 ADD DUP1 DUP4 GT PUSH2 0xC9F JUMPI DUP3 SWAP1 SUB PUSH1 0x1F AND DUP3 ADD SWAP2 JUMPDEST POP POP POP POP POP DUP2 MSTORE PUSH1 0x20 ADD PUSH1 0x3 DUP3 ADD DUP1 SLOAD PUSH2 0xCD5 SWAP1 PUSH2 0x2174 JUMP JUMPDEST DUP1 PUSH1 0x1F ADD PUSH1 0x20 DUP1 SWAP2 DIV MUL PUSH1 0x20 ADD PUSH1 0x40 MLOAD SWAP1 DUP2 ADD PUSH1 0x40 MSTORE DUP1 SWAP3 SWAP2 SWAP1 DUP2 DUP2 MSTORE PUSH1 0x20 ADD DUP3 DUP1 SLOAD PUSH2 0xD01 SWAP1 PUSH2 0x2174 JUMP JUMPDEST DUP1 ISZERO PUSH2 0xD4E JUMPI DUP1 PUSH1 0x1F LT PUSH2 0xD23 JUMPI PUSH2 0x100 DUP1 DUP4 SLOAD DIV MUL DUP4 MSTORE SWAP2 PUSH1 0x20 ADD SWAP2 PUSH2 0xD4E JUMP JUMPDEST DUP3 ADD SWAP2 SWAP1 PUSH1 0x0 MSTORE PUSH1 0x20 PUSH1 0x0 KECCAK256 SWAP1 JUMPDEST DUP2 SLOAD DUP2 MSTORE SWAP1 PUSH1 0x1 ADD SWAP1 PUSH1 0x20 ADD DUP1 DUP4 GT PUSH2 0xD31 JUMPI DUP3 SWAP1 SUB PUSH1 0x1F AND DUP3 ADD SWAP2 JUMPDEST POP POP POP POP POP DUP2 MSTORE PUSH1 0x20 ADD PUSH1 0x4 DUP3 ADD SLOAD DUP2 MSTORE PUSH1 0x20 ADD PUSH1 0x5 DUP3 ADD SLOAD DUP2 MSTORE PUSH1 0x20 ADD PUSH1 0x6 DUP3 ADD PUSH1 0x0 SWAP1 SLOAD SWAP1 PUSH2 0x100 EXP SWAP1 DIV PUSH1 0xFF AND ISZERO ISZERO ISZERO ISZERO DUP2 MSTORE PUSH1 0x20 ADD PUSH1 0x7 DUP3 ADD SLOAD DUP2 MSTORE PUSH1 0x20 ADD PUSH1 0x8 DUP3 ADD SLOAD DUP2 MSTORE PUSH1 0x20 ADD PUSH1 0x9 DUP3 ADD PUSH1 0x0 SWAP1 SLOAD SWAP1 PUSH2 0x100 EXP SWAP1 DIV PUSH1 0xFF AND ISZERO ISZERO ISZERO ISZERO DUP2 MSTORE PUSH1 0x20 ADD PUSH1 0x9 DUP3 ADD PUSH1 0x1 SWAP1 SLOAD SWAP1 PUSH2 0x100 EXP SWAP1 DIV PUSH20 0xFFFFFFFFFFFFFFFFFFFFFFFFFFFFFFFFFFFFFFFF AND PUSH20 0xFFFFFFFFFFFFFFFFFFFFFFFFFFFFFFFFFFFFFFFF AND PUSH20 0xFFFFFFFFFFFFFFFFFFFFFFFFFFFFFFFFFFFFFFFF AND DUP2 MSTORE POP POP SWAP1 POP SWAP2 SWAP1 POP JUMP JUMPDEST PUSH2 0xE1B DUP3 PUSH2 0x39F JUMP JUMPDEST PUSH2 0xE24 DUP2 PUSH2 0x11B5 JUMP JUMPDEST PUSH2 0xE2E DUP4 DUP4 PUSH2 0x12D5 JUMP JUMPDEST POP POP POP JUMP JUMPDEST PUSH1 0x0 PUSH2 0xE3F PUSH1 0x1 PUSH2 0x12BF JUMP JUMPDEST SWAP1 POP SWAP1 JUMP JUMPDEST PUSH1 0x0 DUP1 SHL PUSH2 0xE51 DUP2 PUSH2 0x11B5 JUMP JUMPDEST PUSH1 0x0 DUP4 GT DUP1 ISZERO PUSH2 0xE6A JUMPI POP PUSH2 0xE66 PUSH1 0x1 PUSH2 0x12BF JUMP JUMPDEST DUP4 GT ISZERO JUMPDEST PUSH2 0xEA9 JUMPI PUSH1 0x40 MLOAD PUSH32 0x8C379A000000000000000000000000000000000000000000000000000000000 DUP2 MSTORE PUSH1 0x4 ADD PUSH2 0xEA0 SWAP1 PUSH2 0x25A4 JUMP JUMPDEST PUSH1 0x40 MLOAD DUP1 SWAP2 SUB SWAP1 REVERT JUMPDEST PUSH1 0x0 PUSH1 0x2 PUSH1 0x0 DUP6 DUP2 MSTORE PUSH1 0x20 ADD SWAP1 DUP2 MSTORE PUSH1 0x20 ADD PUSH1 0x0 KECCAK256 SWAP1 POP DUP3 DUP2 PUSH1 0x9 ADD PUSH1 0x0 PUSH2 0x100 EXP DUP2 SLOAD DUP2 PUSH1 0xFF MUL NOT AND SWAP1 DUP4 ISZERO ISZERO MUL OR SWAP1 SSTORE POP DUP4 PUSH32 0x330D7F4D63E4341E16998444E726C80BBCE17B9425E52DD205C4443DB9FF7298 DUP3 PUSH1 0x1 ADD DUP6 PUSH1 0x40 MLOAD PUSH2 0xF11 SWAP3 SWAP2 SWAP1 PUSH2 0x2648 JUMP JUMPDEST PUSH1 0x40 MLOAD DUP1 SWAP2 SUB SWAP1 LOG2 POP POP POP POP JUMP JUMPDEST PUSH1 0x2 PUSH1 0x20 MSTORE DUP1 PUSH1 0x0 MSTORE PUSH1 0x40 PUSH1 0x0 KECCAK256 PUSH1 0x0 SWAP2 POP SWAP1 POP DUP1 PUSH1 0x0 ADD SLOAD SWAP1 DUP1 PUSH1 0x1 ADD DUP1 SLOAD PUSH2 0xF48 SWAP1 PUSH2 0x2174 JUMP JUMPDEST DUP1 PUSH1 0x1F ADD PUSH1 0x20 DUP1 SWAP2 DIV MUL PUSH1 0x20 ADD PUSH1 0x40 MLOAD SWAP1 DUP2 ADD PUSH1 0x40 MSTORE DUP1 SWAP3 SWAP2 SWAP1 DUP2 DUP2 MSTORE PUSH1 0x20 ADD DUP3 DUP1 SLOAD PUSH2 0xF74 SWAP1 PUSH2 0x2174 JUMP JUMPDEST DUP1 ISZERO PUSH2 0xFC1 JUMPI DUP1 PUSH1 0x1F LT PUSH2 0xF96 JUMPI PUSH2 0x100 DUP1 DUP4 SLOAD DIV MUL DUP4 MSTORE SWAP2 PUSH1 0x20 ADD SWAP2 PUSH2 0xFC1 JUMP JUMPDEST DUP3 ADD SWAP2 SWAP1 PUSH1 0x0 MSTORE PUSH1 0x20 PUSH1 0x0 KECCAK256 SWAP1 JUMPDEST DUP2 SLOAD DUP2 MSTORE SWAP1 PUSH1 0x1 ADD SWAP1 PUSH1 0x20 ADD DUP1 DUP4 GT PUSH2 0xFA4 JUMPI DUP3 SWAP1 SUB PUSH1 0x1F AND DUP3 ADD SWAP2 JUMPDEST POP POP POP POP POP SWAP1 DUP1 PUSH1 0x2 ADD DUP1 SLOAD PUSH2 0xFD6 SWAP1 PUSH2 0x2174 JUMP JUMPDEST DUP1 PUSH1 0x1F ADD PUSH1 0x20 DUP1 SWAP2 DIV MUL PUSH1 0x20 ADD PUSH1 0x40 MLOAD SWAP1 DUP2 ADD PUSH1 0x40 MSTORE DUP1 SWAP3 SWAP2 SWAP1 DUP2 DUP2 MSTORE PUSH1 0x20 ADD DUP3 DUP1 SLOAD PUSH2 0x1002 SWAP1 PUSH2 0x2174 JUMP JUMPDEST DUP1 ISZERO PUSH2 0x104F JUMPI DUP1 PUSH1 0x1F LT PUSH2 0x1024 JUMPI PUSH2 0x100 DUP1 DUP4 SLOAD DIV MUL DUP4 MSTORE SWAP2 PUSH1 0x20 ADD SWAP2 PUSH2 0x104F JUMP JUMPDEST DUP3 ADD SWAP2 SWAP1 PUSH1 0x0 MSTORE PUSH1 0x20 PUSH1 0x0 KECCAK256 SWAP1 JUMPDEST DUP2 SLOAD DUP2 MSTORE SWAP1 PUSH1 0x1 ADD SWAP1 PUSH1 0x20 ADD DUP1 DUP4 GT PUSH2 0x1032 JUMPI DUP3 SWAP1 SUB PUSH1 0x1F AND DUP3 ADD SWAP2 JUMPDEST POP POP POP POP POP SWAP1 DUP1 PUSH1 0x3 ADD DUP1 SLOAD PUSH2 0x1064 SWAP1 PUSH2 0x2174 JUMP JUMPDEST DUP1 PUSH1 0x1F ADD PUSH1 0x20 DUP1 SWAP2 DIV MUL PUSH1 0x20 ADD PUSH1 0x40 MLOAD SWAP1 DUP2 ADD PUSH1 0x40 MSTORE DUP1 SWAP3 SWAP2 SWAP1 DUP2 DUP2 MSTORE PUSH1 0x20 ADD DUP3 DUP1 SLOAD PUSH2 0x1090 SWAP1 PUSH2 0x2174 JUMP JUMPDEST DUP1 ISZERO PUSH2 0x10DD JUMPI DUP1 PUSH1 0x1F LT PUSH2 0x10B2 JUMPI PUSH2 0x100 DUP1 DUP4 SLOAD DIV MUL DUP4 MSTORE SWAP2 PUSH1 0x20 ADD SWAP2 PUSH2 0x10DD JUMP JUMPDEST DUP3 ADD SWAP2 SWAP1 PUSH1 0x0 MSTORE PUSH1 0x20 PUSH1 0x0 KECCAK256 SWAP1 JUMPDEST DUP2 SLOAD DUP2 MSTORE SWAP1 PUSH1 0x1 ADD SWAP1 PUSH1 0x20 ADD DUP1 DUP4 GT PUSH2 0x10C0 JUMPI DUP3 SWAP1 SUB PUSH1 0x1F AND DUP3 ADD SWAP2 JUMPDEST POP POP POP POP POP SWAP1 DUP1 PUSH1 0x4 ADD SLOAD SWAP1 DUP1 PUSH1 0x5 ADD SLOAD SWAP1 DUP1 PUSH1 0x6 ADD PUSH1 0x0 SWAP1 SLOAD SWAP1 PUSH2 0x100 EXP SWAP1 DIV PUSH1 0xFF AND SWAP1 DUP1 PUSH1 0x7 ADD SLOAD SWAP1 DUP1 PUSH1 0x8 ADD SLOAD SWAP1 DUP1 PUSH1 0x9 ADD PUSH1 0x0 SWAP1 SLOAD SWAP1 PUSH2 0x100 EXP SWAP1 DIV PUSH1 0xFF AND SWAP1 DUP1 PUSH1 0x9 ADD PUSH1 0x1 SWAP1 SLOAD SWAP1 PUSH2 0x100 EXP SWAP1 DIV PUSH20 0xFFFFFFFFFFFFFFFFFFFFFFFFFFFFFFFFFFFFFFFF AND SWAP1 POP DUP12 JUMP JUMPDEST PUSH1 0x0 PUSH32 0x1FFC9A700000000000000000000000000000000000000000000000000000000 PUSH28 0xFFFFFFFFFFFFFFFFFFFFFFFFFFFFFFFFFFFFFFFFFFFFFFFFFFFFFFFF NOT AND DUP3 PUSH28 0xFFFFFFFFFFFFFFFFFFFFFFFFFFFFFFFFFFFFFFFFFFFFFFFFFFFFFFFF NOT AND EQ SWAP1 POP SWAP2 SWAP1 POP JUMP JUMPDEST PUSH2 0x11C6 DUP2 PUSH2 0x11C1 PUSH2 0x12CD JUMP JUMPDEST PUSH2 0x13B6 JUMP JUMPDEST POP JUMP JUMPDEST PUSH2 0x11D3 DUP3 DUP3 PUSH2 0xAA7 JUMP JUMPDEST PUSH2 0x12A5 JUMPI PUSH1 0x1 PUSH1 0x0 DUP1 DUP5 DUP2 MSTORE PUSH1 0x20 ADD SWAP1 DUP2 MSTORE PUSH1 0x20 ADD PUSH1 0x0 KECCAK256 PUSH1 0x0 ADD PUSH1 0x0 DUP4 PUSH20 0xFFFFFFFFFFFFFFFFFFFFFFFFFFFFFFFFFFFFFFFF AND PUSH20 0xFFFFFFFFFFFFFFFFFFFFFFFFFFFFFFFFFFFFFFFF AND DUP2 MSTORE PUSH1 0x20 ADD SWAP1 DUP2 MSTORE PUSH1 0x20 ADD PUSH1 0x0 KECCAK256 PUSH1 0x0 PUSH2 0x100 EXP DUP2 SLOAD DUP2 PUSH1 0xFF MUL NOT AND SWAP1 DUP4 ISZERO ISZERO MUL OR SWAP1 SSTORE POP PUSH2 0x124A PUSH2 0x12CD JUMP JUMPDEST PUSH20 0xFFFFFFFFFFFFFFFFFFFFFFFFFFFFFFFFFFFFFFFF AND DUP2 PUSH20 0xFFFFFFFFFFFFFFFFFFFFFFFFFFFFFFFFFFFFFFFF AND DUP4 PUSH32 0x2F8788117E7EFF1D82E926EC794901D17C78024A50270940304540A733656F0D PUSH1 0x40 MLOAD PUSH1 0x40 MLOAD DUP1 SWAP2 SUB SWAP1 LOG4 JUMPDEST POP POP JUMP JUMPDEST PUSH1 0x1 DUP2 PUSH1 0x0 ADD PUSH1 0x0 DUP3 DUP3 SLOAD ADD SWAP3 POP POP DUP2 SWAP1 SSTORE POP POP JUMP JUMPDEST PUSH1 0x0 DUP2 PUSH1 0x0 ADD SLOAD SWAP1 POP SWAP2 SWAP1 POP JUMP JUMPDEST PUSH1 0x0 CALLER SWAP1 POP SWAP1 JUMP JUMPDEST PUSH2 0x12DF DUP3 DUP3 PUSH2 0xAA7 JUMP JUMPDEST ISZERO PUSH2 0x13B2 JUMPI PUSH1 0x0 DUP1 PUSH1 0x0 DUP5 DUP2 MSTORE PUSH1 0x20 ADD SWAP1 DUP2 MSTORE PUSH1 0x20 ADD PUSH1 0x0 KECCAK256 PUSH1 0x0 ADD PUSH1 0x0 DUP4 PUSH20 0xFFFFFFFFFFFFFFFFFFFFFFFFFFFFFFFFFFFFFFFF AND PUSH20 0xFFFFFFFFFFFFFFFFFFFFFFFFFFFFFFFFFFFFFFFF AND DUP2 MSTORE PUSH1 0x20 ADD SWAP1 DUP2 MSTORE PUSH1 0x20 ADD PUSH1 0x0 KECCAK256 PUSH1 0x0 PUSH2 0x100 EXP DUP2 SLOAD DUP2 PUSH1 0xFF MUL NOT AND SWAP1 DUP4 ISZERO ISZERO MUL OR SWAP1 SSTORE POP PUSH2 0x1357 PUSH2 0x12CD JUMP JUMPDEST PUSH20 0xFFFFFFFFFFFFFFFFFFFFFFFFFFFFFFFFFFFFFFFF AND DUP2 PUSH20 0xFFFFFFFFFFFFFFFFFFFFFFFFFFFFFFFFFFFFFFFF AND DUP4 PUSH32 0xF6391F5C32D9C69D2A47EA670B442974B53935D1EDC7FD64EB21E047A839171B PUSH1 0x40 MLOAD PUSH1 0x40 MLOAD DUP1 SWAP2 SUB SWAP1 LOG4 JUMPDEST POP POP JUMP JUMPDEST PUSH2 0x13C0 DUP3 DUP3 PUSH2 0xAA7 JUMP JUMPDEST PUSH2 0x1437 JUMPI PUSH2 0x13CD DUP2 PUSH2 0x143B JUMP JUMPDEST PUSH2 0x13DB DUP4 PUSH1 0x0 SHR PUSH1 0x20 PUSH2 0x1468 JUMP JUMPDEST PUSH1 0x40 MLOAD PUSH1 0x20 ADD PUSH2 0x13EC SWAP3 SWAP2 SWAP1 PUSH2 0x2710 JUMP JUMPDEST PUSH1 0x40 MLOAD PUSH1 0x20 DUP2 DUP4 SUB SUB DUP2 MSTORE SWAP1 PUSH1 0x40 MSTORE PUSH1 0x40 MLOAD PUSH32 0x8C379A000000000000000000000000000000000000000000000000000000000 DUP2 MSTORE PUSH1 0x4 ADD PUSH2 0x142E SWAP2 SWAP1 PUSH2 0x274A JUMP JUMPDEST PUSH1 0x40 MLOAD DUP1 SWAP2 SUB SWAP1 REVERT JUMPDEST POP POP JUMP JUMPDEST PUSH1 0x60 PUSH2 0x1461 DUP3 PUSH20 0xFFFFFFFFFFFFFFFFFFFFFFFFFFFFFFFFFFFFFFFF AND PUSH1 0x14 PUSH1 0xFF AND PUSH2 0x1468 JUMP JUMPDEST SWAP1 POP SWAP2 SWAP1 POP JUMP JUMPDEST PUSH1 0x60 PUSH1 0x0 PUSH1 0x2 DUP4 PUSH1 0x2 PUSH2 0x147B SWAP2 SWAP1 PUSH2 0x279B JUMP JUMPDEST PUSH2 0x1485 SWAP2 SWAP1 PUSH2 0x27DD JUMP JUMPDEST PUSH8 0xFFFFFFFFFFFFFFFF DUP2 GT ISZERO PUSH2 0x149E JUMPI PUSH2 0x149D PUSH2 0x192D JUMP JUMPDEST JUMPDEST PUSH1 0x40 MLOAD SWAP1 DUP1 DUP3 MSTORE DUP1 PUSH1 0x1F ADD PUSH1 0x1F NOT AND PUSH1 0x20 ADD DUP3 ADD PUSH1 0x40 MSTORE DUP1 ISZERO PUSH2 0x14D0 JUMPI DUP2 PUSH1 0x20 ADD PUSH1 0x1 DUP3 MUL DUP1 CALLDATASIZE DUP4 CALLDATACOPY DUP1 DUP3 ADD SWAP2 POP POP SWAP1 POP JUMPDEST POP SWAP1 POP PUSH32 0x3000000000000000000000000000000000000000000000000000000000000000 DUP2 PUSH1 0x0 DUP2 MLOAD DUP2 LT PUSH2 0x1508 JUMPI PUSH2 0x1507 PUSH2 0x2811 JUMP JUMPDEST JUMPDEST PUSH1 0x20 ADD ADD SWAP1 PUSH31 0xFFFFFFFFFFFFFFFFFFFFFFFFFFFFFFFFFFFFFFFFFFFFFFFFFFFFFFFFFFFFFF NOT AND SWAP1 DUP2 PUSH1 0x0 BYTE SWAP1 MSTORE8 POP PUSH32 0x7800000000000000000000000000000000000000000000000000000000000000 DUP2 PUSH1 0x1 DUP2 MLOAD DUP2 LT PUSH2 0x156C JUMPI PUSH2 0x156B PUSH2 0x2811 JUMP JUMPDEST JUMPDEST PUSH1 0x20 ADD ADD SWAP1 PUSH31 0xFFFFFFFFFFFFFFFFFFFFFFFFFFFFFFFFFFFFFFFFFFFFFFFFFFFFFFFFFFFFFF NOT AND SWAP1 DUP2 PUSH1 0x0 BYTE SWAP1 MSTORE8 POP PUSH1 0x0 PUSH1 0x1 DUP5 PUSH1 0x2 PUSH2 0x15AC SWAP2 SWAP1 PUSH2 0x279B JUMP JUMPDEST PUSH2 0x15B6 SWAP2 SWAP1 PUSH2 0x27DD JUMP JUMPDEST SWAP1 POP JUMPDEST PUSH1 0x1 DUP2 GT ISZERO PUSH2 0x1656 JUMPI PUSH32 0x3031323334353637383961626364656600000000000000000000000000000000 PUSH1 0xF DUP7 AND PUSH1 0x10 DUP2 LT PUSH2 0x15F8 JUMPI PUSH2 0x15F7 PUSH2 0x2811 JUMP JUMPDEST JUMPDEST BYTE PUSH1 0xF8 SHL DUP3 DUP3 DUP2 MLOAD DUP2 LT PUSH2 0x160F JUMPI PUSH2 0x160E PUSH2 0x2811 JUMP JUMPDEST JUMPDEST PUSH1 0x20 ADD ADD SWAP1 PUSH31 0xFFFFFFFFFFFFFFFFFFFFFFFFFFFFFFFFFFFFFFFFFFFFFFFFFFFFFFFFFFFFFF NOT AND SWAP1 DUP2 PUSH1 0x0 BYTE SWAP1 MSTORE8 POP PUSH1 0x4 DUP6 SWAP1 SHR SWAP5 POP DUP1 PUSH2 0x164F SWAP1 PUSH2 0x2840 JUMP JUMPDEST SWAP1 POP PUSH2 0x15B9 JUMP JUMPDEST POP PUSH1 0x0 DUP5 EQ PUSH2 0x169A JUMPI PUSH1 0x40 MLOAD PUSH32 0x8C379A000000000000000000000000000000000000000000000000000000000 DUP2 MSTORE PUSH1 0x4 ADD PUSH2 0x1691 SWAP1 PUSH2 0x28B5 JUMP JUMPDEST PUSH1 0x40 MLOAD DUP1 SWAP2 SUB SWAP1 REVERT JUMPDEST DUP1 SWAP2 POP POP SWAP3 SWAP2 POP POP JUMP JUMPDEST PUSH1 0x40 MLOAD DUP1 PUSH2 0x160 ADD PUSH1 0x40 MSTORE DUP1 PUSH1 0x0 DUP2 MSTORE PUSH1 0x20 ADD PUSH1 0x60 DUP2 MSTORE PUSH1 0x20 ADD PUSH1 0x60 DUP2 MSTORE PUSH1 0x20 ADD PUSH1 0x60 DUP2 MSTORE PUSH1 0x20 ADD PUSH1 0x0 DUP2 MSTORE PUSH1 0x20 ADD PUSH1 0x0 DUP2 MSTORE PUSH1 0x20 ADD PUSH1 0x0 ISZERO ISZERO DUP2 MSTORE PUSH1 0x20 ADD PUSH1 0x0 DUP2 MSTORE PUSH1 0x20 ADD PUSH1 0x0 DUP2 MSTORE PUSH1 0x20 ADD PUSH1 0x0 ISZERO ISZERO DUP2 MSTORE PUSH1 0x20 ADD PUSH1 0x0 PUSH20 0xFFFFFFFFFFFFFFFFFFFFFFFFFFFFFFFFFFFFFFFF AND DUP2 MSTORE POP SWAP1 JUMP JUMPDEST PUSH1 0x0 PUSH1 0x40 MLOAD SWAP1 POP SWAP1 JUMP JUMPDEST PUSH1 0x0 DUP1 REVERT JUMPDEST PUSH1 0x0 DUP1 REVERT JUMPDEST PUSH1 0x0 PUSH32 0xFFFFFFFF00000000000000000000000000000000000000000000000000000000 DUP3 AND SWAP1 POP SWAP2 SWAP1 POP JUMP JUMPDEST PUSH2 0x1761 DUP2 PUSH2 0x172C JUMP JUMPDEST DUP2 EQ PUSH2 0x176C JUMPI PUSH1 0x0 DUP1 REVERT JUMPDEST POP JUMP JUMPDEST PUSH1 0x0 DUP2 CALLDATALOAD SWAP1 POP PUSH2 0x177E DUP2 PUSH2 0x1758 JUMP JUMPDEST SWAP3 SWAP2 POP POP JUMP JUMPDEST PUSH1 0x0 PUSH1 0x20 DUP3 DUP5 SUB SLT ISZERO PUSH2 0x179A JUMPI PUSH2 0x1799 PUSH2 0x1722 JUMP JUMPDEST JUMPDEST PUSH1 0x0 PUSH2 0x17A8 DUP5 DUP3 DUP6 ADD PUSH2 0x176F JUMP JUMPDEST SWAP2 POP POP SWAP3 SWAP2 POP POP JUMP JUMPDEST PUSH1 0x0 DUP2 ISZERO ISZERO SWAP1 POP SWAP2 SWAP1 POP JUMP JUMPDEST PUSH2 0x17C6 DUP2 PUSH2 0x17B1 JUMP JUMPDEST DUP3 MSTORE POP POP JUMP JUMPDEST PUSH1 0x0 PUSH1 0x20 DUP3 ADD SWAP1 POP PUSH2 0x17E1 PUSH1 0x0 DUP4 ADD DUP5 PUSH2 0x17BD JUMP JUMPDEST SWAP3 SWAP2 POP POP JUMP JUMPDEST PUSH1 0x0 DUP2 SWAP1 POP SWAP2 SWAP1 POP JUMP JUMPDEST PUSH2 0x17FA DUP2 PUSH2 0x17E7 JUMP JUMPDEST DUP2 EQ PUSH2 0x1805 JUMPI PUSH1 0x0 DUP1 REVERT JUMPDEST POP JUMP JUMPDEST PUSH1 0x0 DUP2 CALLDATALOAD SWAP1 POP PUSH2 0x1817 DUP2 PUSH2 0x17F1 JUMP JUMPDEST SWAP3 SWAP2 POP POP JUMP JUMPDEST PUSH1 0x0 PUSH1 0x20 DUP3 DUP5 SUB SLT ISZERO PUSH2 0x1833 JUMPI PUSH2 0x1832 PUSH2 0x1722 JUMP JUMPDEST JUMPDEST PUSH1 0x0 PUSH2 0x1841 DUP5 DUP3 DUP6 ADD PUSH2 0x1808 JUMP JUMPDEST SWAP2 POP POP SWAP3 SWAP2 POP POP JUMP JUMPDEST PUSH2 0x1853 DUP2 PUSH2 0x17E7 JUMP JUMPDEST DUP3 MSTORE POP POP JUMP JUMPDEST PUSH1 0x0 PUSH1 0x20 DUP3 ADD SWAP1 POP PUSH2 0x186E PUSH1 0x0 DUP4 ADD DUP5 PUSH2 0x184A JUMP JUMPDEST SWAP3 SWAP2 POP POP JUMP JUMPDEST PUSH1 0x0 PUSH20 0xFFFFFFFFFFFFFFFFFFFFFFFFFFFFFFFFFFFFFFFF DUP3 AND SWAP1 POP SWAP2 SWAP1 POP JUMP JUMPDEST PUSH1 0x0 PUSH2 0x189F DUP3 PUSH2 0x1874 JUMP JUMPDEST SWAP1 POP SWAP2 SWAP1 POP JUMP JUMPDEST PUSH2 0x18AF DUP2 PUSH2 0x1894 JUMP JUMPDEST DUP2 EQ PUSH2 0x18BA JUMPI PUSH1 0x0 DUP1 REVERT JUMPDEST POP JUMP JUMPDEST PUSH1 0x0 DUP2 CALLDATALOAD SWAP1 POP PUSH2 0x18CC DUP2 PUSH2 0x18A6 JUMP JUMPDEST SWAP3 SWAP2 POP POP JUMP JUMPDEST PUSH1 0x0 DUP1 PUSH1 0x40 DUP4 DUP6 SUB SLT ISZERO PUSH2 0x18E9 JUMPI PUSH2 0x18E8 PUSH2 0x1722 JUMP JUMPDEST JUMPDEST PUSH1 0x0 PUSH2 0x18F7 DUP6 DUP3 DUP7 ADD PUSH2 0x1808 JUMP JUMPDEST SWAP3 POP POP PUSH1 0x20 PUSH2 0x1908 DUP6 DUP3 DUP7 ADD PUSH2 0x18BD JUMP JUMPDEST SWAP2 POP POP SWAP3 POP SWAP3 SWAP1 POP JUMP JUMPDEST PUSH1 0x0 DUP1 REVERT JUMPDEST PUSH1 0x0 DUP1 REVERT JUMPDEST PUSH1 0x0 PUSH1 0x1F NOT PUSH1 0x1F DUP4 ADD AND SWAP1 POP SWAP2 SWAP1 POP JUMP JUMPDEST PUSH32 0x4E487B7100000000000000000000000000000000000000000000000000000000 PUSH1 0x0 MSTORE PUSH1 0x41 PUSH1 0x4 MSTORE PUSH1 0x24 PUSH1 0x0 REVERT JUMPDEST PUSH2 0x1965 DUP3 PUSH2 0x191C JUMP JUMPDEST DUP2 ADD DUP2 DUP2 LT PUSH8 0xFFFFFFFFFFFFFFFF DUP3 GT OR ISZERO PUSH2 0x1984 JUMPI PUSH2 0x1983 PUSH2 0x192D JUMP JUMPDEST JUMPDEST DUP1 PUSH1 0x40 MSTORE POP POP POP JUMP JUMPDEST PUSH1 0x0 PUSH2 0x1997 PUSH2 0x1718 JUMP JUMPDEST SWAP1 POP PUSH2 0x19A3 DUP3 DUP3 PUSH2 0x195C JUMP JUMPDEST SWAP2 SWAP1 POP JUMP JUMPDEST PUSH1 0x0 PUSH8 0xFFFFFFFFFFFFFFFF DUP3 GT ISZERO PUSH2 0x19C3 JUMPI PUSH2 0x19C2 PUSH2 0x192D JUMP JUMPDEST JUMPDEST PUSH2 0x19CC DUP3 PUSH2 0x191C JUMP JUMPDEST SWAP1 POP PUSH1 0x20 DUP2 ADD SWAP1 POP SWAP2 SWAP1 POP JUMP JUMPDEST DUP3 DUP2 DUP4 CALLDATACOPY PUSH1 0x0 DUP4 DUP4 ADD MSTORE POP POP POP JUMP JUMPDEST PUSH1 0x0 PUSH2 0x19FB PUSH2 0x19F6 DUP5 PUSH2 0x19A8 JUMP JUMPDEST PUSH2 0x198D JUMP JUMPDEST SWAP1 POP DUP3 DUP2 MSTORE PUSH1 0x20 DUP2 ADD DUP5 DUP5 DUP5 ADD GT ISZERO PUSH2 0x1A17 JUMPI PUSH2 0x1A16 PUSH2 0x1917 JUMP JUMPDEST JUMPDEST PUSH2 0x1A22 DUP5 DUP3 DUP6 PUSH2 0x19D9 JUMP JUMPDEST POP SWAP4 SWAP3 POP POP POP JUMP JUMPDEST PUSH1 0x0 DUP3 PUSH1 0x1F DUP4 ADD SLT PUSH2 0x1A3F JUMPI PUSH2 0x1A3E PUSH2 0x1912 JUMP JUMPDEST JUMPDEST DUP2 CALLDATALOAD PUSH2 0x1A4F DUP5 DUP3 PUSH1 0x20 DUP7 ADD PUSH2 0x19E8 JUMP JUMPDEST SWAP2 POP POP SWAP3 SWAP2 POP POP JUMP JUMPDEST PUSH1 0x0 DUP2 SWAP1 POP SWAP2 SWAP1 POP JUMP JUMPDEST PUSH2 0x1A6B DUP2 PUSH2 0x1A58 JUMP JUMPDEST DUP2 EQ PUSH2 0x1A76 JUMPI PUSH1 0x0 DUP1 REVERT JUMPDEST POP JUMP JUMPDEST PUSH1 0x0 DUP2 CALLDATALOAD SWAP1 POP PUSH2 0x1A88 DUP2 PUSH2 0x1A62 JUMP JUMPDEST SWAP3 SWAP2 POP POP JUMP JUMPDEST PUSH2 0x1A97 DUP2 PUSH2 0x17B1 JUMP JUMPDEST DUP2 EQ PUSH2 0x1AA2 JUMPI PUSH1 0x0 DUP1 REVERT JUMPDEST POP JUMP JUMPDEST PUSH1 0x0 DUP2 CALLDATALOAD SWAP1 POP PUSH2 0x1AB4 DUP2 PUSH2 0x1A8E JUMP JUMPDEST SWAP3 SWAP2 POP POP JUMP JUMPDEST PUSH1 0x0 DUP1 PUSH1 0x0 DUP1 PUSH1 0x0 DUP1 PUSH1 0x0 DUP1 PUSH2 0x100 DUP10 DUP12 SUB SLT ISZERO PUSH2 0x1ADB JUMPI PUSH2 0x1ADA PUSH2 0x1722 JUMP JUMPDEST JUMPDEST PUSH1 0x0 DUP10 ADD CALLDATALOAD PUSH8 0xFFFFFFFFFFFFFFFF DUP2 GT ISZERO PUSH2 0x1AF9 JUMPI PUSH2 0x1AF8 PUSH2 0x1727 JUMP JUMPDEST JUMPDEST PUSH2 0x1B05 DUP12 DUP3 DUP13 ADD PUSH2 0x1A2A JUMP JUMPDEST SWAP9 POP POP PUSH1 0x20 DUP10 ADD CALLDATALOAD PUSH8 0xFFFFFFFFFFFFFFFF DUP2 GT ISZERO PUSH2 0x1B26 JUMPI PUSH2 0x1B25 PUSH2 0x1727 JUMP JUMPDEST JUMPDEST PUSH2 0x1B32 DUP12 DUP3 DUP13 ADD PUSH2 0x1A2A JUMP JUMPDEST SWAP8 POP POP PUSH1 0x40 DUP10 ADD CALLDATALOAD PUSH8 0xFFFFFFFFFFFFFFFF DUP2 GT ISZERO PUSH2 0x1B53 JUMPI PUSH2 0x1B52 PUSH2 0x1727 JUMP JUMPDEST JUMPDEST PUSH2 0x1B5F DUP12 DUP3 DUP13 ADD PUSH2 0x1A2A JUMP JUMPDEST SWAP7 POP POP PUSH1 0x60 PUSH2 0x1B70 DUP12 DUP3 DUP13 ADD PUSH2 0x1A79 JUMP JUMPDEST SWAP6 POP POP PUSH1 0x80 PUSH2 0x1B81 DUP12 DUP3 DUP13 ADD PUSH2 0x1A79 JUMP JUMPDEST SWAP5 POP POP PUSH1 0xA0 PUSH2 0x1B92 DUP12 DUP3 DUP13 ADD PUSH2 0x1AA5 JUMP JUMPDEST SWAP4 POP POP PUSH1 0xC0 PUSH2 0x1BA3 DUP12 DUP3 DUP13 ADD PUSH2 0x1A79 JUMP JUMPDEST SWAP3 POP POP PUSH1 0xE0 PUSH2 0x1BB4 DUP12 DUP3 DUP13 ADD PUSH2 0x1A79 JUMP JUMPDEST SWAP2 POP POP SWAP3 SWAP6 SWAP9 POP SWAP3 SWAP6 SWAP9 SWAP1 SWAP4 SWAP7 POP JUMP JUMPDEST PUSH2 0x1BCD DUP2 PUSH2 0x1A58 JUMP JUMPDEST DUP3 MSTORE POP POP JUMP JUMPDEST PUSH1 0x0 PUSH1 0x20 DUP3 ADD SWAP1 POP PUSH2 0x1BE8 PUSH1 0x0 DUP4 ADD DUP5 PUSH2 0x1BC4 JUMP JUMPDEST SWAP3 SWAP2 POP POP JUMP JUMPDEST PUSH1 0x0 PUSH1 0x20 DUP3 DUP5 SUB SLT ISZERO PUSH2 0x1C04 JUMPI PUSH2 0x1C03 PUSH2 0x1722 JUMP JUMPDEST JUMPDEST PUSH1 0x0 DUP3 ADD CALLDATALOAD PUSH8 0xFFFFFFFFFFFFFFFF DUP2 GT ISZERO PUSH2 0x1C22 JUMPI PUSH2 0x1C21 PUSH2 0x1727 JUMP JUMPDEST JUMPDEST PUSH2 0x1C2E DUP5 DUP3 DUP6 ADD PUSH2 0x1A2A JUMP JUMPDEST SWAP2 POP POP SWAP3 SWAP2 POP POP JUMP JUMPDEST PUSH2 0x1C40 DUP2 PUSH2 0x1A58 JUMP JUMPDEST DUP3 MSTORE POP POP JUMP JUMPDEST PUSH1 0x0 DUP2 MLOAD SWAP1 POP SWAP2 SWAP1 POP JUMP JUMPDEST PUSH1 0x0 DUP3 DUP3 MSTORE PUSH1 0x20 DUP3 ADD SWAP1 POP SWAP3 SWAP2 POP POP JUMP JUMPDEST PUSH1 0x0 JUMPDEST DUP4 DUP2 LT ISZERO PUSH2 0x1C80 JUMPI DUP1 DUP3 ADD MLOAD DUP2 DUP5 ADD MSTORE PUSH1 0x20 DUP2 ADD SWAP1 POP PUSH2 0x1C65 JUMP JUMPDEST PUSH1 0x0 DUP5 DUP5 ADD MSTORE POP POP POP POP JUMP JUMPDEST PUSH1 0x0 PUSH2 0x1C97 DUP3 PUSH2 0x1C46 JUMP JUMPDEST PUSH2 0x1CA1 DUP2 DUP6 PUSH2 0x1C51 JUMP JUMPDEST SWAP4 POP PUSH2 0x1CB1 DUP2 DUP6 PUSH1 0x20 DUP7 ADD PUSH2 0x1C62 JUMP JUMPDEST PUSH2 0x1CBA DUP2 PUSH2 0x191C JUMP JUMPDEST DUP5 ADD SWAP2 POP POP SWAP3 SWAP2 POP POP JUMP JUMPDEST PUSH2 0x1CCE DUP2 PUSH2 0x17B1 JUMP JUMPDEST DUP3 MSTORE POP POP JUMP JUMPDEST PUSH2 0x1CDD DUP2 PUSH2 0x1894 JUMP JUMPDEST DUP3 MSTORE POP POP JUMP JUMPDEST PUSH1 0x0 PUSH2 0x160 DUP4 ADD PUSH1 0x0 DUP4 ADD MLOAD PUSH2 0x1CFC PUSH1 0x0 DUP7 ADD DUP3 PUSH2 0x1C37 JUMP JUMPDEST POP PUSH1 0x20 DUP4 ADD MLOAD DUP5 DUP3 SUB PUSH1 0x20 DUP7 ADD MSTORE PUSH2 0x1D14 DUP3 DUP3 PUSH2 0x1C8C JUMP JUMPDEST SWAP2 POP POP PUSH1 0x40 DUP4 ADD MLOAD DUP5 DUP3 SUB PUSH1 0x40 DUP7 ADD MSTORE PUSH2 0x1D2E DUP3 DUP3 PUSH2 0x1C8C JUMP JUMPDEST SWAP2 POP POP PUSH1 0x60 DUP4 ADD MLOAD DUP5 DUP3 SUB PUSH1 0x60 DUP7 ADD MSTORE PUSH2 0x1D48 DUP3 DUP3 PUSH2 0x1C8C JUMP JUMPDEST SWAP2 POP POP PUSH1 0x80 DUP4 ADD MLOAD PUSH2 0x1D5D PUSH1 0x80 DUP7 ADD DUP3 PUSH2 0x1C37 JUMP JUMPDEST POP PUSH1 0xA0 DUP4 ADD MLOAD PUSH2 0x1D70 PUSH1 0xA0 DUP7 ADD DUP3 PUSH2 0x1C37 JUMP JUMPDEST POP PUSH1 0xC0 DUP4 ADD MLOAD PUSH2 0x1D83 PUSH1 0xC0 DUP7 ADD DUP3 PUSH2 0x1CC5 JUMP JUMPDEST POP PUSH1 0xE0 DUP4 ADD MLOAD PUSH2 0x1D96 PUSH1 0xE0 DUP7 ADD DUP3 PUSH2 0x1C37 JUMP JUMPDEST POP PUSH2 0x100 DUP4 ADD MLOAD PUSH2 0x1DAB PUSH2 0x100 DUP7 ADD DUP3 PUSH2 0x1C37 JUMP JUMPDEST POP PUSH2 0x120 DUP4 ADD MLOAD PUSH2 0x1DC0 PUSH2 0x120 DUP7 ADD DUP3 PUSH2 0x1CC5 JUMP JUMPDEST POP PUSH2 0x140 DUP4 ADD MLOAD PUSH2 0x1DD5 PUSH2 0x140 DUP7 ADD DUP3 PUSH2 0x1CD4 JUMP JUMPDEST POP DUP1 SWAP2 POP POP SWAP3 SWAP2 POP POP JUMP JUMPDEST PUSH1 0x0 PUSH1 0x20 DUP3 ADD SWAP1 POP DUP2 DUP2 SUB PUSH1 0x0 DUP4 ADD MSTORE PUSH2 0x1DFA DUP2 DUP5 PUSH2 0x1CE3 JUMP JUMPDEST SWAP1 POP SWAP3 SWAP2 POP POP JUMP JUMPDEST PUSH1 0x0 PUSH1 0x20 DUP3 DUP5 SUB SLT ISZERO PUSH2 0x1E18 JUMPI PUSH2 0x1E17 PUSH2 0x1722 JUMP JUMPDEST JUMPDEST PUSH1 0x0 PUSH2 0x1E26 DUP5 DUP3 DUP6 ADD PUSH2 0x1A79 JUMP JUMPDEST SWAP2 POP POP SWAP3 SWAP2 POP POP JUMP JUMPDEST PUSH1 0x0 DUP1 PUSH1 0x40 DUP4 DUP6 SUB SLT ISZERO PUSH2 0x1E46 JUMPI PUSH2 0x1E45 PUSH2 0x1722 JUMP JUMPDEST JUMPDEST PUSH1 0x0 PUSH2 0x1E54 DUP6 DUP3 DUP7 ADD PUSH2 0x1A79 JUMP JUMPDEST SWAP3 POP POP PUSH1 0x20 PUSH2 0x1E65 DUP6 DUP3 DUP7 ADD PUSH2 0x1AA5 JUMP JUMPDEST SWAP2 POP POP SWAP3 POP SWAP3 SWAP1 POP JUMP JUMPDEST PUSH1 0x0 DUP3 DUP3 MSTORE PUSH1 0x20 DUP3 ADD SWAP1 POP SWAP3 SWAP2 POP POP JUMP JUMPDEST PUSH1 0x0 PUSH2 0x1E8B DUP3 PUSH2 0x1C46 JUMP JUMPDEST PUSH2 0x1E95 DUP2 DUP6 PUSH2 0x1E6F JUMP JUMPDEST SWAP4 POP PUSH2 0x1EA5 DUP2 DUP6 PUSH1 0x20 DUP7 ADD PUSH2 0x1C62 JUMP JUMPDEST PUSH2 0x1EAE DUP2 PUSH2 0x191C JUMP JUMPDEST DUP5 ADD SWAP2 POP POP SWAP3 SWAP2 POP POP JUMP JUMPDEST PUSH2 0x1EC2 DUP2 PUSH2 0x1894 JUMP JUMPDEST DUP3 MSTORE POP POP JUMP JUMPDEST PUSH1 0x0 PUSH2 0x160 DUP3 ADD SWAP1 POP PUSH2 0x1EDE PUSH1 0x0 DUP4 ADD DUP15 PUSH2 0x1BC4 JUMP JUMPDEST DUP2 DUP2 SUB PUSH1 0x20 DUP4 ADD MSTORE PUSH2 0x1EF0 DUP2 DUP14 PUSH2 0x1E80 JUMP JUMPDEST SWAP1 POP DUP2 DUP2 SUB PUSH1 0x40 DUP4 ADD MSTORE PUSH2 0x1F04 DUP2 DUP13 PUSH2 0x1E80 JUMP JUMPDEST SWAP1 POP DUP2 DUP2 SUB PUSH1 0x60 DUP4 ADD MSTORE PUSH2 0x1F18 DUP2 DUP12 PUSH2 0x1E80 JUMP JUMPDEST SWAP1 POP PUSH2 0x1F27 PUSH1 0x80 DUP4 ADD DUP11 PUSH2 0x1BC4 JUMP JUMPDEST PUSH2 0x1F34 PUSH1 0xA0 DUP4 ADD DUP10 PUSH2 0x1BC4 JUMP JUMPDEST PUSH2 0x1F41 PUSH1 0xC0 DUP4 ADD DUP9 PUSH2 0x17BD JUMP JUMPDEST PUSH2 0x1F4E PUSH1 0xE0 DUP4 ADD DUP8 PUSH2 0x1BC4 JUMP JUMPDEST PUSH2 0x1F5C PUSH2 0x100 DUP4 ADD DUP7 PUSH2 0x1BC4 JUMP JUMPDEST PUSH2 0x1F6A PUSH2 0x120 DUP4 ADD DUP6 PUSH2 0x17BD JUMP JUMPDEST PUSH2 0x1F78 PUSH2 0x140 DUP4 ADD DUP5 PUSH2 0x1EB9 JUMP JUMPDEST SWAP13 SWAP12 POP POP POP POP POP POP POP POP POP POP POP POP JUMP JUMPDEST PUSH32 0x44727567206E616D652063616E6E6F7420626520656D70747900000000000000 PUSH1 0x0 DUP3 ADD MSTORE POP JUMP JUMPDEST PUSH1 0x0 PUSH2 0x1FBE PUSH1 0x19 DUP4 PUSH2 0x1E6F JUMP JUMPDEST SWAP2 POP PUSH2 0x1FC9 DUP3 PUSH2 0x1F88 JUMP JUMPDEST PUSH1 0x20 DUP3 ADD SWAP1 POP SWAP2 SWAP1 POP JUMP JUMPDEST PUSH1 0x0 PUSH1 0x20 DUP3 ADD SWAP1 POP DUP2 DUP2 SUB PUSH1 0x0 DUP4 ADD MSTORE PUSH2 0x1FED DUP2 PUSH2 0x1FB1 JUMP JUMPDEST SWAP1 POP SWAP2 SWAP1 POP JUMP JUMPDEST PUSH1 0x0 DUP2 SWAP1 POP SWAP3 SWAP2 POP POP JUMP JUMPDEST PUSH1 0x0 PUSH2 0x200A DUP3 PUSH2 0x1C46 JUMP JUMPDEST PUSH2 0x2014 DUP2 DUP6 PUSH2 0x1FF4 JUMP JUMPDEST SWAP4 POP PUSH2 0x2024 DUP2 DUP6 PUSH1 0x20 DUP7 ADD PUSH2 0x1C62 JUMP JUMPDEST DUP1 DUP5 ADD SWAP2 POP POP SWAP3 SWAP2 POP POP JUMP JUMPDEST PUSH1 0x0 PUSH2 0x203C DUP3 DUP5 PUSH2 0x1FFF JUMP JUMPDEST SWAP2 POP DUP2 SWAP1 POP SWAP3 SWAP2 POP POP JUMP JUMPDEST PUSH32 0x4472756720776974682074686973206E616D6520616C72656164792065786973 PUSH1 0x0 DUP3 ADD MSTORE PUSH32 0x7473000000000000000000000000000000000000000000000000000000000000 PUSH1 0x20 DUP3 ADD MSTORE POP JUMP JUMPDEST PUSH1 0x0 PUSH2 0x20A3 PUSH1 0x22 DUP4 PUSH2 0x1E6F JUMP JUMPDEST SWAP2 POP PUSH2 0x20AE DUP3 PUSH2 0x2047 JUMP JUMPDEST PUSH1 0x40 DUP3 ADD SWAP1 POP SWAP2 SWAP1 POP JUMP JUMPDEST PUSH1 0x0 PUSH1 0x20 DUP3 ADD SWAP1 POP DUP2 DUP2 SUB PUSH1 0x0 DUP4 ADD MSTORE PUSH2 0x20D2 DUP2 PUSH2 0x2096 JUMP JUMPDEST SWAP1 POP SWAP2 SWAP1 POP JUMP JUMPDEST PUSH32 0x496E76616C696420646174657300000000000000000000000000000000000000 PUSH1 0x0 DUP3 ADD MSTORE POP JUMP JUMPDEST PUSH1 0x0 PUSH2 0x210F PUSH1 0xD DUP4 PUSH2 0x1E6F JUMP JUMPDEST SWAP2 POP PUSH2 0x211A DUP3 PUSH2 0x20D9 JUMP JUMPDEST PUSH1 0x20 DUP3 ADD SWAP1 POP SWAP2 SWAP1 POP JUMP JUMPDEST PUSH1 0x0 PUSH1 0x20 DUP3 ADD SWAP1 POP DUP2 DUP2 SUB PUSH1 0x0 DUP4 ADD MSTORE PUSH2 0x213E DUP2 PUSH2 0x2102 JUMP JUMPDEST SWAP1 POP SWAP2 SWAP1 POP JUMP JUMPDEST PUSH32 0x4E487B7100000000000000000000000000000000000000000000000000000000 PUSH1 0x0 MSTORE PUSH1 0x22 PUSH1 0x4 MSTORE PUSH1 0x24 PUSH1 0x0 REVERT JUMPDEST PUSH1 0x0 PUSH1 0x2 DUP3 DIV SWAP1 POP PUSH1 0x1 DUP3 AND DUP1 PUSH2 0x218C JUMPI PUSH1 0x7F DUP3 AND SWAP2 POP JUMPDEST PUSH1 0x20 DUP3 LT DUP2 SUB PUSH2 0x219F JUMPI PUSH2 0x219E PUSH2 0x2145 JUMP JUMPDEST JUMPDEST POP SWAP2 SWAP1 POP JUMP JUMPDEST PUSH1 0x0 DUP2 SWAP1 POP DUP2 PUSH1 0x0 MSTORE PUSH1 0x20 PUSH1 0x0 KECCAK256 SWAP1 POP SWAP2 SWAP1 POP JUMP JUMPDEST PUSH1 0x0 PUSH1 0x20 PUSH1 0x1F DUP4 ADD DIV SWAP1 POP SWAP2 SWAP1 POP JUMP JUMPDEST PUSH1 0x0 DUP3 DUP3 SHL SWAP1 POP SWAP3 SWAP2 POP POP JUMP JUMPDEST PUSH1 0x0 PUSH1 0x8 DUP4 MUL PUSH2 0x2207 PUSH32 0xFFFFFFFFFFFFFFFFFFFFFFFFFFFFFFFFFFFFFFFFFFFFFFFFFFFFFFFFFFFFFFFF DUP3 PUSH2 0x21CA JUMP JUMPDEST PUSH2 0x2211 DUP7 DUP4 PUSH2 0x21CA JUMP JUMPDEST SWAP6 POP DUP1 NOT DUP5 AND SWAP4 POP DUP1 DUP7 AND DUP5 OR SWAP3 POP POP POP SWAP4 SWAP3 POP POP POP JUMP JUMPDEST PUSH1 0x0 DUP2 SWAP1 POP SWAP2 SWAP1 POP JUMP JUMPDEST PUSH1 0x0 PUSH2 0x224E PUSH2 0x2249 PUSH2 0x2244 DUP5 PUSH2 0x1A58 JUMP JUMPDEST PUSH2 0x2229 JUMP JUMPDEST PUSH2 0x1A58 JUMP JUMPDEST SWAP1 POP SWAP2 SWAP1 POP JUMP JUMPDEST PUSH1 0x0 DUP2 SWAP1 POP SWAP2 SWAP1 POP JUMP JUMPDEST PUSH2 0x2268 DUP4 PUSH2 0x2233 JUMP JUMPDEST PUSH2 0x227C PUSH2 0x2274 DUP3 PUSH2 0x2255 JUMP JUMPDEST DUP5 DUP5 SLOAD PUSH2 0x21D7 JUMP JUMPDEST DUP3 SSTORE POP POP POP POP JUMP JUMPDEST PUSH1 0x0 SWAP1 JUMP JUMPDEST PUSH2 0x2291 PUSH2 0x2284 JUMP JUMPDEST PUSH2 0x229C DUP2 DUP5 DUP5 PUSH2 0x225F JUMP JUMPDEST POP POP POP JUMP JUMPDEST JUMPDEST DUP2 DUP2 LT ISZERO PUSH2 0x22C0 JUMPI PUSH2 0x22B5 PUSH1 0x0 DUP3 PUSH2 0x2289 JUMP JUMPDEST PUSH1 0x1 DUP2 ADD SWAP1 POP PUSH2 0x22A2 JUMP JUMPDEST POP POP JUMP JUMPDEST PUSH1 0x1F DUP3 GT ISZERO PUSH2 0x2305 JUMPI PUSH2 0x22D6 DUP2 PUSH2 0x21A5 JUMP JUMPDEST PUSH2 0x22DF DUP5 PUSH2 0x21BA JUMP JUMPDEST DUP2 ADD PUSH1 0x20 DUP6 LT ISZERO PUSH2 0x22EE JUMPI DUP2 SWAP1 POP JUMPDEST PUSH2 0x2302 PUSH2 0x22FA DUP6 PUSH2 0x21BA JUMP JUMPDEST DUP4 ADD DUP3 PUSH2 0x22A1 JUMP JUMPDEST POP POP JUMPDEST POP POP POP JUMP JUMPDEST PUSH1 0x0 DUP3 DUP3 SHR SWAP1 POP SWAP3 SWAP2 POP POP JUMP JUMPDEST PUSH1 0x0 PUSH2 0x2328 PUSH1 0x0 NOT DUP5 PUSH1 0x8 MUL PUSH2 0x230A JUMP JUMPDEST NOT DUP1 DUP4 AND SWAP2 POP POP SWAP3 SWAP2 POP POP JUMP JUMPDEST PUSH1 0x0 PUSH2 0x2341 DUP4 DUP4 PUSH2 0x2317 JUMP JUMPDEST SWAP2 POP DUP3 PUSH1 0x2 MUL DUP3 OR SWAP1 POP SWAP3 SWAP2 POP POP JUMP JUMPDEST PUSH2 0x235A DUP3 PUSH2 0x1C46 JUMP JUMPDEST PUSH8 0xFFFFFFFFFFFFFFFF DUP2 GT ISZERO PUSH2 0x2373 JUMPI PUSH2 0x2372 PUSH2 0x192D JUMP JUMPDEST JUMPDEST PUSH2 0x237D DUP3 SLOAD PUSH2 0x2174 JUMP JUMPDEST PUSH2 0x2388 DUP3 DUP3 DUP6 PUSH2 0x22C4 JUMP JUMPDEST PUSH1 0x0 PUSH1 0x20 SWAP1 POP PUSH1 0x1F DUP4 GT PUSH1 0x1 DUP2 EQ PUSH2 0x23BB JUMPI PUSH1 0x0 DUP5 ISZERO PUSH2 0x23A9 JUMPI DUP3 DUP8 ADD MLOAD SWAP1 POP JUMPDEST PUSH2 0x23B3 DUP6 DUP3 PUSH2 0x2335 JUMP JUMPDEST DUP7 SSTORE POP PUSH2 0x241B JUMP JUMPDEST PUSH1 0x1F NOT DUP5 AND PUSH2 0x23C9 DUP7 PUSH2 0x21A5 JUMP JUMPDEST PUSH1 0x0 JUMPDEST DUP3 DUP2 LT ISZERO PUSH2 0x23F1 JUMPI DUP5 DUP10 ADD MLOAD DUP3 SSTORE PUSH1 0x1 DUP3 ADD SWAP2 POP PUSH1 0x20 DUP6 ADD SWAP5 POP PUSH1 0x20 DUP2 ADD SWAP1 POP PUSH2 0x23CC JUMP JUMPDEST DUP7 DUP4 LT ISZERO PUSH2 0x240E JUMPI DUP5 DUP10 ADD MLOAD PUSH2 0x240A PUSH1 0x1F DUP10 AND DUP3 PUSH2 0x2317 JUMP JUMPDEST DUP4 SSTORE POP JUMPDEST PUSH1 0x1 PUSH1 0x2 DUP9 MUL ADD DUP9 SSTORE POP POP POP JUMPDEST POP POP POP POP POP POP JUMP JUMPDEST PUSH1 0x0 PUSH1 0x40 DUP3 ADD SWAP1 POP DUP2 DUP2 SUB PUSH1 0x0 DUP4 ADD MSTORE PUSH2 0x243D DUP2 DUP6 PUSH2 0x1E80 JUMP JUMPDEST SWAP1 POP DUP2 DUP2 SUB PUSH1 0x20 DUP4 ADD MSTORE PUSH2 0x2451 DUP2 DUP5 PUSH2 0x1E80 JUMP JUMPDEST SWAP1 POP SWAP4 SWAP3 POP POP POP JUMP JUMPDEST PUSH32 0x416363657373436F6E74726F6C3A2063616E206F6E6C792072656E6F756E6365 PUSH1 0x0 DUP3 ADD MSTORE PUSH32 0x20726F6C657320666F722073656C660000000000000000000000000000000000 PUSH1 0x20 DUP3 ADD MSTORE POP JUMP JUMPDEST PUSH1 0x0 PUSH2 0x24B6 PUSH1 0x2F DUP4 PUSH2 0x1E6F JUMP JUMPDEST SWAP2 POP PUSH2 0x24C1 DUP3 PUSH2 0x245A JUMP JUMPDEST PUSH1 0x40 DUP3 ADD SWAP1 POP SWAP2 SWAP1 POP JUMP JUMPDEST PUSH1 0x0 PUSH1 0x20 DUP3 ADD SWAP1 POP DUP2 DUP2 SUB PUSH1 0x0 DUP4 ADD MSTORE PUSH2 0x24E5 DUP2 PUSH2 0x24A9 JUMP JUMPDEST SWAP1 POP SWAP2 SWAP1 POP JUMP JUMPDEST PUSH32 0x44727567206E6F7420666F756E64000000000000000000000000000000000000 PUSH1 0x0 DUP3 ADD MSTORE POP JUMP JUMPDEST PUSH1 0x0 PUSH2 0x2522 PUSH1 0xE DUP4 PUSH2 0x1E6F JUMP JUMPDEST SWAP2 POP PUSH2 0x252D DUP3 PUSH2 0x24EC JUMP JUMPDEST PUSH1 0x20 DUP3 ADD SWAP1 POP SWAP2 SWAP1 POP JUMP JUMPDEST PUSH1 0x0 PUSH1 0x20 DUP3 ADD SWAP1 POP DUP2 DUP2 SUB PUSH1 0x0 DUP4 ADD MSTORE PUSH2 0x2551 DUP2 PUSH2 0x2515 JUMP JUMPDEST SWAP1 POP SWAP2 SWAP1 POP JUMP JUMPDEST PUSH32 0x496E76616C696420647275672049440000000000000000000000000000000000 PUSH1 0x0 DUP3 ADD MSTORE POP JUMP JUMPDEST PUSH1 0x0 PUSH2 0x258E PUSH1 0xF DUP4 PUSH2 0x1E6F JUMP JUMPDEST SWAP2 POP PUSH2 0x2599 DUP3 PUSH2 0x2558 JUMP JUMPDEST PUSH1 0x20 DUP3 ADD SWAP1 POP SWAP2 SWAP1 POP JUMP JUMPDEST PUSH1 0x0 PUSH1 0x20 DUP3 ADD SWAP1 POP DUP2 DUP2 SUB PUSH1 0x0 DUP4 ADD MSTORE PUSH2 0x25BD DUP2 PUSH2 0x2581 JUMP JUMPDEST SWAP1 POP SWAP2 SWAP1 POP JUMP JUMPDEST PUSH1 0x0 DUP2 SLOAD PUSH2 0x25D1 DUP2 PUSH2 0x2174 JUMP JUMPDEST PUSH2 0x25DB DUP2 DUP7 PUSH2 0x1E6F JUMP JUMPDEST SWAP5 POP PUSH1 0x1 DUP3 AND PUSH1 0x0 DUP2 EQ PUSH2 0x25F6 JUMPI PUSH1 0x1 DUP2 EQ PUSH2 0x260C JUMPI PUSH2 0x263F JUMP JUMPDEST PUSH1 0xFF NOT DUP4 AND DUP7 MSTORE DUP2 ISZERO ISZERO PUSH1 0x20 MUL DUP7 ADD SWAP4 POP PUSH2 0x263F JUMP JUMPDEST PUSH2 0x2615 DUP6 PUSH2 0x21A5 JUMP JUMPDEST PUSH1 0x0 JUMPDEST DUP4 DUP2 LT ISZERO PUSH2 0x2637 JUMPI DUP2 SLOAD DUP2 DUP10 ADD MSTORE PUSH1 0x1 DUP3 ADD SWAP2 POP PUSH1 0x20 DUP2 ADD SWAP1 POP PUSH2 0x2618 JUMP JUMPDEST DUP1 DUP9 ADD SWAP6 POP POP POP JUMPDEST POP POP POP SWAP3 SWAP2 POP POP JUMP JUMPDEST PUSH1 0x0 PUSH1 0x40 DUP3 ADD SWAP1 POP DUP2 DUP2 SUB PUSH1 0x0 DUP4 ADD MSTORE PUSH2 0x2662 DUP2 DUP6 PUSH2 0x25C4 JUMP JUMPDEST SWAP1 POP PUSH2 0x2671 PUSH1 0x20 DUP4 ADD DUP5 PUSH2 0x17BD JUMP JUMPDEST SWAP4 SWAP3 POP POP POP JUMP JUMPDEST PUSH32 0x416363657373436F6E74726F6C3A206163636F756E7420000000000000000000 PUSH1 0x0 DUP3 ADD MSTORE POP JUMP JUMPDEST PUSH1 0x0 PUSH2 0x26AE PUSH1 0x17 DUP4 PUSH2 0x1FF4 JUMP JUMPDEST SWAP2 POP PUSH2 0x26B9 DUP3 PUSH2 0x2678 JUMP JUMPDEST PUSH1 0x17 DUP3 ADD SWAP1 POP SWAP2 SWAP1 POP JUMP JUMPDEST PUSH32 0x206973206D697373696E6720726F6C6520000000000000000000000000000000 PUSH1 0x0 DUP3 ADD MSTORE POP JUMP JUMPDEST PUSH1 0x0 PUSH2 0x26FA PUSH1 0x11 DUP4 PUSH2 0x1FF4 JUMP JUMPDEST SWAP2 POP PUSH2 0x2705 DUP3 PUSH2 0x26C4 JUMP JUMPDEST PUSH1 0x11 DUP3 ADD SWAP1 POP SWAP2 SWAP1 POP JUMP JUMPDEST PUSH1 0x0 PUSH2 0x271B DUP3 PUSH2 0x26A1 JUMP JUMPDEST SWAP2 POP PUSH2 0x2727 DUP3 DUP6 PUSH2 0x1FFF JUMP JUMPDEST SWAP2 POP PUSH2 0x2732 DUP3 PUSH2 0x26ED JUMP JUMPDEST SWAP2 POP PUSH2 0x273E DUP3 DUP5 PUSH2 0x1FFF JUMP JUMPDEST SWAP2 POP DUP2 SWAP1 POP SWAP4 SWAP3 POP POP POP JUMP JUMPDEST PUSH1 0x0 PUSH1 0x20 DUP3 ADD SWAP1 POP DUP2 DUP2 SUB PUSH1 0x0 DUP4 ADD MSTORE PUSH2 0x2764 DUP2 DUP5 PUSH2 0x1E80 JUMP JUMPDEST SWAP1 POP SWAP3 SWAP2 POP POP JUMP JUMPDEST PUSH32 0x4E487B7100000000000000000000000000000000000000000000000000000000 PUSH1 0x0 MSTORE PUSH1 0x11 PUSH1 0x4 MSTORE PUSH1 0x24 PUSH1 0x0 REVERT JUMPDEST PUSH1 0x0 PUSH2 0x27A6 DUP3 PUSH2 0x1A58 JUMP JUMPDEST SWAP2 POP PUSH2 0x27B1 DUP4 PUSH2 0x1A58 JUMP JUMPDEST SWAP3 POP DUP3 DUP3 MUL PUSH2 0x27BF DUP2 PUSH2 0x1A58 JUMP JUMPDEST SWAP2 POP DUP3 DUP3 DIV DUP5 EQ DUP4 ISZERO OR PUSH2 0x27D6 JUMPI PUSH2 0x27D5 PUSH2 0x276C JUMP JUMPDEST JUMPDEST POP SWAP3 SWAP2 POP POP JUMP JUMPDEST PUSH1 0x0 PUSH2 0x27E8 DUP3 PUSH2 0x1A58 JUMP JUMPDEST SWAP2 POP PUSH2 0x27F3 DUP4 PUSH2 0x1A58 JUMP JUMPDEST SWAP3 POP DUP3 DUP3 ADD SWAP1 POP DUP1 DUP3 GT ISZERO PUSH2 0x280B JUMPI PUSH2 0x280A PUSH2 0x276C JUMP JUMPDEST JUMPDEST SWAP3 SWAP2 POP POP JUMP JUMPDEST PUSH32 0x4E487B7100000000000000000000000000000000000000000000000000000000 PUSH1 0x0 MSTORE PUSH1 0x32 PUSH1 0x4 MSTORE PUSH1 0x24 PUSH1 0x0 REVERT JUMPDEST PUSH1 0x0 PUSH2 0x284B DUP3 PUSH2 0x1A58 JUMP JUMPDEST SWAP2 POP PUSH1 0x0 DUP3 SUB PUSH2 0x285E JUMPI PUSH2 0x285D PUSH2 0x276C JUMP JUMPDEST JUMPDEST PUSH1 0x1 DUP3 SUB SWAP1 POP SWAP2 SWAP1 POP JUMP JUMPDEST PUSH32 0x537472696E67733A20686578206C656E67746820696E73756666696369656E74 PUSH1 0x0 DUP3 ADD MSTORE POP JUMP JUMPDEST PUSH1 0x0 PUSH2 0x289F PUSH1 0x20 DUP4 PUSH2 0x1E6F JUMP JUMPDEST SWAP2 POP PUSH2 0x28AA DUP3 PUSH2 0x2869 JUMP JUMPDEST PUSH1 0x20 DUP3 ADD SWAP1 POP SWAP2 SWAP1 POP JUMP JUMPDEST PUSH1 0x0 PUSH1 0x20 DUP3 ADD SWAP1 POP DUP2 DUP2 SUB PUSH1 0x0 DUP4 ADD MSTORE PUSH2 0x28CE DUP2 PUSH2 0x2892 JUMP JUMPDEST SWAP1 POP SWAP2 SWAP1 POP JUMP INVALID LOG2 PUSH5 0x6970667358 0x22 SLT KECCAK256 PUSH28 0x98C55BD0A68B3933F0DC3F92CDFA9C0407511BB357AE566E6C9A0719 0xC4 0x2D 0xD0 PUSH5 0x736F6C6343 STOP ADDMOD SGT STOP CALLER "},"methodIdentifiers":{"DEFAULT_ADMIN_ROLE()":"a217fddf","drugByName(string)":"5cbdd025","drugs(uint256)":"fca5e61e","getDrug(uint256)":"b8840d3d","getDrugByName(string)":"78f4f774","getRoleAdmin(bytes32)":"248a9ca3","getTotalDrugs()":"d83a904e","grantRole(bytes32,address)":"2f2ff15d","hasRole(bytes32,address)":"91d14854","registerDrug(string,string,string,uint256,uint256,bool,uint256,uint256)":"31b94090","renounceRole(bytes32,address)":"36568abe","revokeRole(bytes32,address)":"d547741f","supportsInterface(bytes4)":"01ffc9a7","updateDrugStatus(uint256,bool)":"fb93f18f"}}}}}