{
  "_format": "hh-sol-artifact-1",
  "contractName": "DrugSupplyAccessControl",
  "sourceName": "contracts/AccessControl.sol",
  "abi": [
    {
      "inputs": [],
      "stateMutability": "nonpayable",
      "type": "constructor"
    },
    {
      "anonymous": false,
      "inputs": [
        {
          "indexed": true,
          "internalType": "bytes32",
          "name": "role",
          "type": "bytes32"
        },
        {
          "indexed": true,
          "internalType": "bytes32",
          "name": "previousAdminRole",
          "type": "bytes32"
        },
        {
          "indexed": true,
          "internalType": "bytes32",
          "name": "newAdminRole",
          "type": "bytes32"
        }
      ],
      "name": "RoleAdminChanged",
      "type": "event"
    },
    {
      "anonymous": false,
      "inputs": [
        {
          "indexed": true,
          "internalType": "bytes32",
          "name": "role",
          "type": "bytes32"
        },
        {
          "indexed": true,
          "internalType": "address",
          "name": "account",
          "type": "address"
        },
        {
          "indexed": true,
          "internalType": "address",
          "name": "sender",
          "type": "address"
        }
      ],
      "name": "RoleGranted",
      "type": "event"
    },
    {
      "anonymous": false,
      "inputs": [
        {
          "indexed": true,
          "internalType": "bytes32",
          "name": "role",
          "type": "bytes32"
        },
        {
          "indexed": true,
          "internalType": "address",
          "name": "account",
          "type": "address"
        },
        {
          "indexed": true,
          "internalType": "address",
          "name": "sender",
          "type": "address"
        }
      ],
      "name": "RoleRevoked",
      "type": "event"
    },
    {
      "inputs": [],
      "name": "DEFAULT_ADMIN_ROLE",
      "outputs": [
        {
          "internalType": "bytes32",
          "name": "",
          "type": "bytes32"
        }
      ],
      "stateMutability": "view",
      "type": "function"
    },
    {
      "inputs": [],
      "name": "DISTRIBUTOR_ROLE",
      "outputs": [
        {
          "internalType": "bytes32",
          "name": "",
          "type": "bytes32"
        }
      ],
      "stateMutability": "view",
      "type": "function"
    },
    {
      "inputs": [],
      "name": "MANUFACTURER_ROLE",
      "outputs": [
        {
          "internalType": "bytes32",
          "name": "",
          "type": "bytes32"
        }
      ],
      "stateMutability": "view",
      "type": "function"
    },
    {
      "inputs": [],
      "name": "PHARMACY_ROLE",
      "outputs": [
        {
          "internalType": "bytes32",
          "name": "",
          "type": "bytes32"
        }
      ],
      "stateMutability": "view",
      "type": "function"
    },
    {
      "inputs": [],
      "name": "REGULATOR_ROLE",
      "outputs": [
        {
          "internalType": "bytes32",
          "name": "",
          "type": "bytes32"
        }
      ],
      "stateMutability": "view",
      "type": "function"
    },
    {
      "inputs": [
        {
          "internalType": "address",
          "name": "account",
          "type": "address"
        }
      ],
      "name": "addDistributor",
      "outputs": [],
      "stateMutability": "nonpayable",
      "type": "function"
    },
    {
      "inputs": [
        {
          "internalType": "address",
          "name": "account",
          "type": "address"
        }
      ],
      "name": "addManufacturer",
      "outputs": [],
      "stateMutability": "nonpayable",
      "type": "function"
    },
    {
      "inputs": [
        {
          "internalType": "address",
          "name": "account",
          "type": "address"
        }
      ],
      "name": "addPharmacy",
      "outputs": [],
      "stateMutability": "nonpayable",
      "type": "function"
    },
    {
      "inputs": [
        {
          "internalType": "address",
          "name": "account",
          "type": "address"
        }
      ],
      "name": "addRegulator",
      "outputs": [],
      "stateMutability": "nonpayable",
      "type": "function"
    },
    {
      "inputs": [
        {
          "internalType": "bytes32",
          "name": "role",
          "type": "bytes32"
        }
      ],
      "name": "getRoleAdmin",
      "outputs": [
        {
          "internalType": "bytes32",
          "name": "",
          "type": "bytes32"
        }
      ],
      "stateMutability": "view",
      "type": "function"
    },
    {
      "inputs": [
        {
          "internalType": "bytes32",
          "name": "role",
          "type": "bytes32"
        },
        {
          "internalType": "address",
          "name": "account",
          "type": "address"
        }
      ],
      "name": "grantRole",
      "outputs": [],
      "stateMutability": "nonpayable",
      "type": "function"
    },
    {
      "inputs": [
        {
          "internalType": "bytes32",
          "name": "role",
          "type": "bytes32"
        },
        {
          "internalType": "address",
          "name": "account",
          "type": "address"
        }
      ],
      "name": "hasRole",
      "outputs": [
        {
          "internalType": "bool",
          "name": "",
          "type": "bool"
        }
      ],
      "stateMutability": "view",
      "type": "function"
    },
    {
      "inputs": [
        {
          "internalType": "address",
          "name": "account",
          "type": "address"
        }
      ],
      "name": "removeDistributor",
      "outputs": [],
      "stateMutability": "nonpayable",
      "type": "function"
    },
    {
      "inputs": [
        {
          "internalType": "address",
          "name": "account",
          "type": "address"
        }
      ],
      "name": "removeManufacturer",
      "outputs": [],
      "stateMutability": "nonpayable",
      "type": "function"
    },
    {
      "inputs": [
        {
          "internalType": "address",
          "name": "account",
          "type": "address"
        }
      ],
      "name": "removePharmacy",
      "outputs": [],
      "stateMutability": "nonpayable",
      "type": "function"
    },
    {
      "inputs": [
        {
          "internalType": "address",
          "name": "account",
          "type": "address"
        }
      ],
      "name": "removeRegulator",
      "outputs": [],
      "stateMutability": "nonpayable",
      "type": "function"
    },
    {
      "inputs": [
        {
          "internalType": "bytes32",
          "name": "role",
          "type": "bytes32"
        },
        {
          "internalType": "address",
          "name": "account",
          "type": "address"
        }
      ],
      "name": "renounceRole",
      "outputs": [],
      "stateMutability": "nonpayable",
      "type": "function"
    },
    {
      "inputs": [
        {
          "internalType": "bytes32",
          "name": "role",
          "type": "bytes32"
        },
        {
          "internalType": "address",
          "name": "account",
          "type": "address"
        }
      ],
      "name": "revokeRole",
      "outputs": [],
      "stateMutability": "nonpayable",
      "type": "function"
    },
    {
      "inputs": [
        {
          "internalType": "bytes4",
          "name": "interfaceId",
          "type": "bytes4"
        }
      ],
      "name": "supportsInterface",
      "outputs": [
        {
          "internalType": "bool",
          "name": "",
          "type": "bool"
        }
      ],
      "stateMutability": "view",
      "type": "function"
    }
  ],
  "bytecode": "0x608060405234801561001057600080fd5b506100246000801b3361002960201b60201c565b610187565b610039828261011560201b60201c565b61011157600160008084815260200190815260200160002060000160008373ffffffffffffffffffffffffffffffffffffffff1673ffffffffffffffffffffffffffffffffffffffff16815260200190815260200160002060006101000a81548160ff0219169083151502179055506100b661017f60201b60201c565b73ffffffffffffffffffffffffffffffffffffffff168173ffffffffffffffffffffffffffffffffffffffff16837f2f8788117e7eff1d82e926ec794901d17c78024a50270940304540a733656f0d60405160405180910390a45b5050565b600080600084815260200190815260200160002060000160008373ffffffffffffffffffffffffffffffffffffffff1673ffffffffffffffffffffffffffffffffffffffff16815260200190815260200160002060009054906101000a900460ff16905092915050565b600033905090565b61132e806101966000396000f3fe608060405234801561001057600080fd5b50600436106101215760003560e01c80637250e224116100ad578063afd675f811610071578063afd675f8146102f0578063ba7b6e391461030c578063d547741f14610328578063f0bd87cc14610344578063f0c58ea71461036257610121565b80637250e2241461024c57806391d1485414610268578063965288b014610298578063a217fddf146102b6578063ac63f3c7146102d457610121565b806336568abe116100f457806336568abe146101c0578063379f5fed146101dc57806357c1f9e2146101f85780635f8a5afa146102145780636a75323f1461023057610121565b806301ffc9a714610126578063144bf58914610156578063248a9ca3146101745780632f2ff15d146101a4575b600080fd5b610140600480360381019061013b9190610d49565b610380565b60405161014d9190610d91565b60405180910390f35b61015e6103fa565b60405161016b9190610dc5565b60405180910390f35b61018e60048036038101906101899190610e0c565b61041e565b60405161019b9190610dc5565b60405180910390f35b6101be60048036038101906101b99190610e97565b61043d565b005b6101da60048036038101906101d59190610e97565b61045e565b005b6101f660048036038101906101f19190610ed7565b6104e1565b005b610212600480360381019061020d9190610ed7565b61051c565b005b61022e60048036038101906102299190610ed7565b610557565b005b61024a60048036038101906102459190610ed7565b610592565b005b61026660048036038101906102619190610ed7565b6105cd565b005b610282600480360381019061027d9190610e97565b610608565b60405161028f9190610d91565b60405180910390f35b6102a0610672565b6040516102ad9190610dc5565b60405180910390f35b6102be610696565b6040516102cb9190610dc5565b60405180910390f35b6102ee60048036038101906102e99190610ed7565b61069d565b005b61030a60048036038101906103059190610ed7565b6106d8565b005b61032660048036038101906103219190610ed7565b610713565b005b610342600480360381019061033d9190610e97565b61074e565b005b61034c61076f565b6040516103599190610dc5565b60405180910390f35b61036a610793565b6040516103779190610dc5565b60405180910390f35b60007f7965db0b000000000000000000000000000000000000000000000000000000007bffffffffffffffffffffffffffffffffffffffffffffffffffffffff1916827bffffffffffffffffffffffffffffffffffffffffffffffffffffffff191614806103f357506103f2826107b7565b5b9050919050565b7f20b5f7ac978e5d6199de06401411960dfa81d2f762655f6206bdc61d46fc19e681565b6000806000838152602001908152602001600020600101549050919050565b6104468261041e565b61044f81610821565b6104598383610835565b505050565b610466610915565b73ffffffffffffffffffffffffffffffffffffffff168173ffffffffffffffffffffffffffffffffffffffff16146104d3576040517f08c379a00000000000000000000000000000000000000000000000000000000081526004016104ca90610f87565b60405180910390fd5b6104dd828261091d565b5050565b6000801b6104ee81610821565b6105187f20b5f7ac978e5d6199de06401411960dfa81d2f762655f6206bdc61d46fc19e68361091d565b5050565b6000801b61052981610821565b6105537ffbd454f36a7e1a388bd6fc3ab10d434aa4578f811acbbcf33afb1c697486313c8361091d565b5050565b6000801b61056481610821565b61058e7feefb95e842a3287179d933b4460be539a1d5af11aa8b325bb45c5c8dc92de4ed83610835565b5050565b6000801b61059f81610821565b6105c97feefb95e842a3287179d933b4460be539a1d5af11aa8b325bb45c5c8dc92de4ed8361091d565b5050565b6000801b6105da81610821565b6106047ffbd454f36a7e1a388bd6fc3ab10d434aa4578f811acbbcf33afb1c697486313c83610835565b5050565b600080600084815260200190815260200160002060000160008373ffffffffffffffffffffffffffffffffffffffff1673ffffffffffffffffffffffffffffffffffffffff16815260200190815260200160002060009054906101000a900460ff16905092915050565b7feefb95e842a3287179d933b4460be539a1d5af11aa8b325bb45c5c8dc92de4ed81565b6000801b81565b6000801b6106aa81610821565b6106d47f20b5f7ac978e5d6199de06401411960dfa81d2f762655f6206bdc61d46fc19e683610835565b5050565b6000801b6106e581610821565b61070f7f2f3a5455f35aeca177ac653592f277fbe2fbafef01081a2030451bb2fb41c91d83610835565b5050565b6000801b61072081610821565b61074a7f2f3a5455f35aeca177ac653592f277fbe2fbafef01081a2030451bb2fb41c91d8361091d565b5050565b6107578261041e565b61076081610821565b61076a838361091d565b505050565b7ffbd454f36a7e1a388bd6fc3ab10d434aa4578f811acbbcf33afb1c697486313c81565b7f2f3a5455f35aeca177ac653592f277fbe2fbafef01081a2030451bb2fb41c91d81565b60007f01ffc9a7000000000000000000000000000000000000000000000000000000007bffffffffffffffffffffffffffffffffffffffffffffffffffffffff1916827bffffffffffffffffffffffffffffffffffffffffffffffffffffffff1916149050919050565b6108328161082d610915565b6109fe565b50565b61083f8282610608565b61091157600160008084815260200190815260200160002060000160008373ffffffffffffffffffffffffffffffffffffffff1673ffffffffffffffffffffffffffffffffffffffff16815260200190815260200160002060006101000a81548160ff0219169083151502179055506108b6610915565b73ffffffffffffffffffffffffffffffffffffffff168173ffffffffffffffffffffffffffffffffffffffff16837f2f8788117e7eff1d82e926ec794901d17c78024a50270940304540a733656f0d60405160405180910390a45b5050565b600033905090565b6109278282610608565b156109fa57600080600084815260200190815260200160002060000160008373ffffffffffffffffffffffffffffffffffffffff1673ffffffffffffffffffffffffffffffffffffffff16815260200190815260200160002060006101000a81548160ff02191690831515021790555061099f610915565b73ffffffffffffffffffffffffffffffffffffffff168173ffffffffffffffffffffffffffffffffffffffff16837ff6391f5c32d9c69d2a47ea670b442974b53935d1edc7fd64eb21e047a839171b60405160405180910390a45b5050565b610a088282610608565b610a7f57610a1581610a83565b610a238360001c6020610ab0565b604051602001610a349291906110b0565b6040516020818303038152906040526040517f08c379a0000000000000000000000000000000000000000000000000000000008152600401610a769190611134565b60405180910390fd5b5050565b6060610aa98273ffffffffffffffffffffffffffffffffffffffff16601460ff16610ab0565b9050919050565b606060006002836002610ac3919061118f565b610acd91906111d1565b67ffffffffffffffff811115610ae657610ae5611205565b5b6040519080825280601f01601f191660200182016040528015610b185781602001600182028036833780820191505090505b5090507f300000000000000000000000000000000000000000000000000000000000000081600081518110610b5057610b4f611234565b5b60200101907effffffffffffffffffffffffffffffffffffffffffffffffffffffffffffff1916908160001a9053507f780000000000000000000000000000000000000000000000000000000000000081600181518110610bb457610bb3611234565b5b60200101907effffffffffffffffffffffffffffffffffffffffffffffffffffffffffffff1916908160001a90535060006001846002610bf4919061118f565b610bfe91906111d1565b90505b6001811115610c9e577f3031323334353637383961626364656600000000000000000000000000000000600f861660108110610c4057610c3f611234565b5b1a60f81b828281518110610c5757610c56611234565b5b60200101907effffffffffffffffffffffffffffffffffffffffffffffffffffffffffffff1916908160001a905350600485901c945080610c9790611263565b9050610c01565b5060008414610ce2576040517f08c379a0000000000000000000000000000000000000000000000000000000008152600401610cd9906112d8565b60405180910390fd5b8091505092915050565b600080fd5b60007fffffffff0000000000000000000000000000000000000000000000000000000082169050919050565b610d2681610cf1565b8114610d3157600080fd5b50565b600081359050610d4381610d1d565b92915050565b600060208284031215610d5f57610d5e610cec565b5b6000610d6d84828501610d34565b91505092915050565b60008115159050919050565b610d8b81610d76565b82525050565b6000602082019050610da66000830184610d82565b92915050565b6000819050919050565b610dbf81610dac565b82525050565b6000602082019050610dda6000830184610db6565b92915050565b610de981610dac565b8114610df457600080fd5b50565b600081359050610e0681610de0565b92915050565b600060208284031215610e2257610e21610cec565b5b6000610e3084828501610df7565b91505092915050565b600073ffffffffffffffffffffffffffffffffffffffff82169050919050565b6000610e6482610e39565b9050919050565b610e7481610e59565b8114610e7f57600080fd5b50565b600081359050610e9181610e6b565b92915050565b60008060408385031215610eae57610ead610cec565b5b6000610ebc85828601610df7565b9250506020610ecd85828601610e82565b9150509250929050565b600060208284031215610eed57610eec610cec565b5b6000610efb84828501610e82565b91505092915050565b600082825260208201905092915050565b7f416363657373436f6e74726f6c3a2063616e206f6e6c792072656e6f756e636560008201527f20726f6c657320666f722073656c660000000000000000000000000000000000602082015250565b6000610f71602f83610f04565b9150610f7c82610f15565b604082019050919050565b60006020820190508181036000830152610fa081610f64565b9050919050565b600081905092915050565b7f416363657373436f6e74726f6c3a206163636f756e7420000000000000000000600082015250565b6000610fe8601783610fa7565b9150610ff382610fb2565b601782019050919050565b600081519050919050565b60005b8381101561102757808201518184015260208101905061100c565b60008484015250505050565b600061103e82610ffe565b6110488185610fa7565b9350611058818560208601611009565b80840191505092915050565b7f206973206d697373696e6720726f6c6520000000000000000000000000000000600082015250565b600061109a601183610fa7565b91506110a582611064565b601182019050919050565b60006110bb82610fdb565b91506110c78285611033565b91506110d28261108d565b91506110de8284611033565b91508190509392505050565b6000601f19601f8301169050919050565b600061110682610ffe565b6111108185610f04565b9350611120818560208601611009565b611129816110ea565b840191505092915050565b6000602082019050818103600083015261114e81846110fb565b905092915050565b6000819050919050565b7f4e487b7100000000000000000000000000000000000000000000000000000000600052601160045260246000fd5b600061119a82611156565b91506111a583611156565b92508282026111b381611156565b915082820484148315176111ca576111c9611160565b5b5092915050565b60006111dc82611156565b91506111e783611156565b92508282019050808211156111ff576111fe611160565b5b92915050565b7f4e487b7100000000000000000000000000000000000000000000000000000000600052604160045260246000fd5b7f4e487b7100000000000000000000000000000000000000000000000000000000600052603260045260246000fd5b600061126e82611156565b91506000820361128157611280611160565b5b600182039050919050565b7f537472696e67733a20686578206c656e67746820696e73756666696369656e74600082015250565b60006112c2602083610f04565b91506112cd8261128c565b602082019050919050565b600060208201905081810360008301526112f1816112b5565b905091905056fea26469706673582212201e6a6f78988dd83552808bb8cb0db9aa0049e296030a7977da7a5b0fee7b693464736f6c63430008130033",
  "linkReferences": {},
  "deployedLinkReferences": {}
}