{
  "_format": "hh-sol-artifact-1",
  "contractName": "DrugRegistry",
  "sourceName": "contracts/DrugRegistry.sol",
  "abi": [
    {
      "inputs": [],
      "stateMutability": "nonpayable",
      "type": "constructor"
    },
    {
      "anonymous": false,
      "inputs": [
        {
          "indexed": true,
          "internalType": "uint256",
          "name": "drugId",
          "type": "uint256"
        },
        {
          "indexed": false,
          "internalType": "string",
          "name": "name",
          "type": "string"
        },
        {
          "indexed": false,
          "internalType": "string",
          "name": "manufacturer",
          "type": "string"
        },
        {
          "indexed": true,
          "internalType": "address",
          "name": "registeredBy",
          "type": "address"
        }
      ],
      "name": "DrugRegistered",
      "type": "event"
    },
    {
      "anonymous": false,
      "inputs": [
        {
          "indexed": true,
          "internalType": "uint256",
          "name": "drugId",
          "type": "uint256"
        },
        {
          "indexed": false,
          "internalType": "string",
          "name": "name",
          "type": "string"
        },
        {
          "indexed": false,
          "internalType": "bool",
          "name": "isActive",
          "type": "bool"
        }
      ],
      "name": "DrugUpdated",
      "type": "event"
    },
    {
      "anonymous": false,
      "inputs": [
        {
          "indexed": true,
          "internalType": "bytes32",
          "name": "role",
          "type": "bytes32"
        },
        {
          "indexed": true,
          "internalType": "bytes32",
          "name": "previousAdminRole",
          "type": "bytes32"
        },
        {
          "indexed": true,
          "internalType": "bytes32",
          "name": "newAdminRole",
          "type": "bytes32"
        }
      ],
      "name": "RoleAdminChanged",
      "type": "event"
    },
    {
      "anonymous": false,
      "inputs": [
        {
          "indexed": true,
          "internalType": "bytes32",
          "name": "role",
          "type": "bytes32"
        },
        {
          "indexed": true,
          "internalType": "address",
          "name": "account",
          "type": "address"
        },
        {
          "indexed": true,
          "internalType": "address",
          "name": "sender",
          "type": "address"
        }
      ],
      "name": "RoleGranted",
      "type": "event"
    },
    {
      "anonymous": false,
      "inputs": [
        {
          "indexed": true,
          "internalType": "bytes32",
          "name": "role",
          "type": "bytes32"
        },
        {
          "indexed": true,
          "internalType": "address",
          "name": "account",
          "type": "address"
        },
        {
          "indexed": true,
          "internalType": "address",
          "name": "sender",
          "type": "address"
        }
      ],
      "name": "RoleRevoked",
      "type": "event"
    },
    {
      "inputs": [],
      "name": "DEFAULT_ADMIN_ROLE",
      "outputs": [
        {
          "internalType": "bytes32",
          "name": "",
          "type": "bytes32"
        }
      ],
      "stateMutability": "view",
      "type": "function"
    },
    {
      "inputs": [
        {
          "internalType": "string",
          "name": "",
          "type": "string"
        }
      ],
      "name": "drugByName",
      "outputs": [
        {
          "internalType": "uint256",
          "name": "",
          "type": "uint256"
        }
      ],
      "stateMutability": "view",
      "type": "function"
    },
    {
      "inputs": [
        {
          "internalType": "uint256",
          "name": "",
          "type": "uint256"
        }
      ],
      "name": "drugs",
      "outputs": [
        {
          "internalType": "uint256",
          "name": "id",
          "type": "uint256"
        },
        {
          "internalType": "string",
          "name": "name",
          "type": "string"
        },
        {
          "internalType": "string",
          "name": "description",
          "type": "string"
        },
        {
          "internalType": "string",
          "name": "manufacturer",
          "type": "string"
        },
        {
          "internalType": "uint256",
          "name": "manufacturingDate",
          "type": "uint256"
        },
        {
          "internalType": "uint256",
          "name": "expiryDate",
          "type": "uint256"
        },
        {
          "internalType": "bool",
          "name": "requiresTemperatureControl",
          "type": "bool"
        },
        {
          "internalType": "uint256",
          "name": "minTemperature",
          "type": "uint256"
        },
        {
          "internalType": "uint256",
          "name": "maxTemperature",
          "type": "uint256"
        },
        {
          "internalType": "bool",
          "name": "isActive",
          "type": "bool"
        },
        {
          "internalType": "address",
          "name": "registeredBy",
          "type": "address"
        }
      ],
      "stateMutability": "view",
      "type": "function"
    },
    {
      "inputs": [
        {
          "internalType": "uint256",
          "name": "_drugId",
          "type": "uint256"
        }
      ],
      "name": "getDrug",
      "outputs": [
        {
          "components": [
            {
              "internalType": "uint256",
              "name": "id",
              "type": "uint256"
            },
            {
              "internalType": "string",
              "name": "name",
              "type": "string"
            },
            {
              "internalType": "string",
              "name": "description",
              "type": "string"
            },
            {
              "internalType": "string",
              "name": "manufacturer",
              "type": "string"
            },
            {
              "internalType": "uint256",
              "name": "manufacturingDate",
              "type": "uint256"
            },
            {
              "internalType": "uint256",
              "name": "expiryDate",
              "type": "uint256"
            },
            {
              "internalType": "bool",
              "name": "requiresTemperatureControl",
              "type": "bool"
            },
            {
              "internalType": "uint256",
              "name": "minTemperature",
              "type": "uint256"
            },
            {
              "internalType": "uint256",
              "name": "maxTemperature",
              "type": "uint256"
            },
            {
              "internalType": "bool",
              "name": "isActive",
              "type": "bool"
            },
            {
              "internalType": "address",
              "name": "registeredBy",
              "type": "address"
            }
          ],
          "internalType": "struct DrugRegistry.Drug",
          "name": "",
          "type": "tuple"
        }
      ],
      "stateMutability": "view",
      "type": "function"
    },
    {
      "inputs": [
        {
          "internalType": "string",
          "name": "_name",
          "type": "string"
        }
      ],
      "name": "getDrugByName",
      "outputs": [
        {
          "components": [
            {
              "internalType": "uint256",
              "name": "id",
              "type": "uint256"
            },
            {
              "internalType": "string",
              "name": "name",
              "type": "string"
            },
            {
              "internalType": "string",
              "name": "description",
              "type": "string"
            },
            {
              "internalType": "string",
              "name": "manufacturer",
              "type": "string"
            },
            {
              "internalType": "uint256",
              "name": "manufacturingDate",
              "type": "uint256"
            },
            {
              "internalType": "uint256",
              "name": "expiryDate",
              "type": "uint256"
            },
            {
              "internalType": "bool",
              "name": "requiresTemperatureControl",
              "type": "bool"
            },
            {
              "internalType": "uint256",
              "name": "minTemperature",
              "type": "uint256"
            },
            {
              "internalType": "uint256",
              "name": "maxTemperature",
              "type": "uint256"
            },
            {
              "internalType": "bool",
              "name": "isActive",
              "type": "bool"
            },
            {
              "internalType": "address",
              "name": "registeredBy",
              "type": "address"
            }
          ],
          "internalType": "struct DrugRegistry.Drug",
          "name": "",
          "type": "tuple"
        }
      ],
      "stateMutability": "view",
      "type": "function"
    },
    {
      "inputs": [
        {
          "internalType": "bytes32",
          "name": "role",
          "type": "bytes32"
        }
      ],
      "name": "getRoleAdmin",
      "outputs": [
        {
          "internalType": "bytes32",
          "name": "",
          "type": "bytes32"
        }
      ],
      "stateMutability": "view",
      "type": "function"
    },
    {
      "inputs": [],
      "name": "getTotalDrugs",
      "outputs": [
        {
          "internalType": "uint256",
          "name": "",
          "type": "uint256"
        }
      ],
      "stateMutability": "view",
      "type": "function"
    },
    {
      "inputs": [
        {
          "internalType": "bytes32",
          "name": "role",
          "type": "bytes32"
        },
        {
          "internalType": "address",
          "name": "account",
          "type": "address"
        }
      ],
      "name": "grantRole",
      "outputs": [],
      "stateMutability": "nonpayable",
      "type": "function"
    },
    {
      "inputs": [
        {
          "internalType": "bytes32",
          "name": "role",
          "type": "bytes32"
        },
        {
          "internalType": "address",
          "name": "account",
          "type": "address"
        }
      ],
      "name": "hasRole",
      "outputs": [
        {
          "internalType": "bool",
          "name": "",
          "type": "bool"
        }
      ],
      "stateMutability": "view",
      "type": "function"
    },
    {
      "inputs": [
        {
          "internalType": "string",
          "name": "_name",
          "type": "string"
        },
        {
          "internalType": "string",
          "name": "_description",
          "type": "string"
        },
        {
          "internalType": "string",
          "name": "_manufacturer",
          "type": "string"
        },
        {
          "internalType": "uint256",
          "name": "_manufacturingDate",
          "type": "uint256"
        },
        {
          "internalType": "uint256",
          "name": "_expiryDate",
          "type": "uint256"
        },
        {
          "internalType": "bool",
          "name": "_requiresTemperatureControl",
          "type": "bool"
        },
        {
          "internalType": "uint256",
          "name": "_minTemperature",
          "type": "uint256"
        },
        {
          "internalType": "uint256",
          "name": "_maxTemperature",
          "type": "uint256"
        }
      ],
      "name": "registerDrug",
      "outputs": [
        {
          "internalType": "uint256",
          "name": "",
          "type": "uint256"
        }
      ],
      "stateMutability": "nonpayable",
      "type": "function"
    },
    {
      "inputs": [
        {
          "internalType": "bytes32",
          "name": "role",
          "type": "bytes32"
        },
        {
          "internalType": "address",
          "name": "account",
          "type": "address"
        }
      ],
      "name": "renounceRole",
      "outputs": [],
      "stateMutability": "nonpayable",
      "type": "function"
    },
    {
      "inputs": [
        {
          "internalType": "bytes32",
          "name": "role",
          "type": "bytes32"
        },
        {
          "internalType": "address",
          "name": "account",
          "type": "address"
        }
      ],
      "name": "revokeRole",
      "outputs": [],
      "stateMutability": "nonpayable",
      "type": "function"
    },
    {
      "inputs": [
        {
          "internalType": "bytes4",
          "name": "interfaceId",
          "type": "bytes4"
        }
      ],
      "name": "supportsInterface",
      "outputs": [
        {
          "internalType": "bool",
          "name": "",
          "type": "bool"
        }
      ],
      "stateMutability": "view",
      "type": "function"
    },
    {
      "inputs": [
        {
          "internalType": "uint256",
          "name": "_drugId",
          "type": "uint256"
        },
        {
          "internalType": "bool",
          "name": "_isActive",
          "type": "bool"
        }
      ],
      "name": "updateDrugStatus",
      "outputs": [],
      "stateMutability": "nonpayable",
      "type": "function"
    }
  ],
  "bytecode": "0x60806040523480156200001157600080fd5b50620000276000801b336200002d60201b60201c565b62000190565b6200003f82826200011e60201b60201c565b6200011a57600160008084815260200190815260200160002060000160008373ffffffffffffffffffffffffffffffffffffffff1673ffffffffffffffffffffffffffffffffffffffff16815260200190815260200160002060006101000a81548160ff021916908315150217905550620000bf6200018860201b60201c565b73ffffffffffffffffffffffffffffffffffffffff168173ffffffffffffffffffffffffffffffffffffffff16837f2f8788117e7eff1d82e926ec794901d17c78024a50270940304540a733656f0d60405160405180910390a45b5050565b600080600084815260200190815260200160002060000160008373ffffffffffffffffffffffffffffffffffffffff1673ffffffffffffffffffffffffffffffffffffffff16815260200190815260200160002060009054906101000a900460ff16905092915050565b600033905090565b61290b80620001a06000396000f3fe608060405234801561001057600080fd5b50600436106100ea5760003560e01c806391d148541161008c578063d547741f11610066578063d547741f14610295578063d83a904e146102b1578063fb93f18f146102cf578063fca5e61e146102eb576100ea565b806391d1485414610217578063a217fddf14610247578063b8840d3d14610265576100ea565b806331b94090116100c857806331b940901461016b57806336568abe1461019b5780635cbdd025146101b757806378f4f774146101e7576100ea565b806301ffc9a7146100ef578063248a9ca31461011f5780632f2ff15d1461014f575b600080fd5b61010960048036038101906101049190611784565b610325565b60405161011691906117cc565b60405180910390f35b6101396004803603810190610134919061181d565b61039f565b6040516101469190611859565b60405180910390f35b610169600480360381019061016491906118d2565b6103be565b005b61018560048036038101906101809190611aba565b6103df565b6040516101929190611bd3565b60405180910390f35b6101b560048036038101906101b091906118d2565b6106ed565b005b6101d160048036038101906101cc9190611bee565b610770565b6040516101de9190611bd3565b60405180910390f35b61020160048036038101906101fc9190611bee565b61079e565b60405161020e9190611de0565b60405180910390f35b610231600480360381019061022c91906118d2565b610aa7565b60405161023e91906117cc565b60405180910390f35b61024f610b11565b60405161025c9190611859565b60405180910390f35b61027f600480360381019061027a9190611e02565b610b18565b60405161028c9190611de0565b60405180910390f35b6102af60048036038101906102aa91906118d2565b610e12565b005b6102b9610e33565b6040516102c69190611bd3565b60405180910390f35b6102e960048036038101906102e49190611e2f565b610e44565b005b61030560048036038101906103009190611e02565b610f1f565b60405161031c9b9a99989796959493929190611ec8565b60405180910390f35b60007f7965db0b000000000000000000000000000000000000000000000000000000007bffffffffffffffffffffffffffffffffffffffffffffffffffffffff1916827bffffffffffffffffffffffffffffffffffffffffffffffffffffffff1916148061039857506103978261114b565b5b9050919050565b6000806000838152602001908152602001600020600101549050919050565b6103c78261039f565b6103d0816111b5565b6103da83836111c9565b505050565b60008060001b6103ee816111b5565b60008a5111610432576040517f08c379a000000000000000000000000000000000000000000000000000000000815260040161042990611fd4565b60405180910390fd5b600060038b6040516104449190612030565b90815260200160405180910390205414610493576040517f08c379a000000000000000000000000000000000000000000000000000000000815260040161048a906120b9565b60405180910390fd5b8587106104d5576040517f08c379a00000000000000000000000000000000000000000000000000000000081526004016104cc90612125565b60405180910390fd5b6104df60016112a9565b60006104eb60016112bf565b90506040518061016001604052808281526020018c81526020018b81526020018a815260200189815260200188815260200187151581526020018681526020018581526020016001151581526020013373ffffffffffffffffffffffffffffffffffffffff16815250600260008381526020019081526020016000206000820151816000015560208201518160010190816105869190612351565b50604082015181600201908161059c9190612351565b5060608201518160030190816105b29190612351565b506080820151816004015560a0820151816005015560c08201518160060160006101000a81548160ff02191690831515021790555060e0820151816007015561010082015181600801556101208201518160090160006101000a81548160ff0219169083151502179055506101408201518160090160016101000a81548173ffffffffffffffffffffffffffffffffffffffff021916908373ffffffffffffffffffffffffffffffffffffffff1602179055509050508060038c6040516106799190612030565b9081526020016040518091039020819055503373ffffffffffffffffffffffffffffffffffffffff16817f46062d73bf152181a6c25bea7b761c9e82ebdf9d36a2022250fc2923f3490d2c8d8c6040516106d4929190612423565b60405180910390a3809250505098975050505050505050565b6106f56112cd565b73ffffffffffffffffffffffffffffffffffffffff168173ffffffffffffffffffffffffffffffffffffffff1614610762576040517f08c379a0000000000000000000000000000000000000000000000000000000008152600401610759906124cc565b60405180910390fd5b61076c82826112d5565b5050565b6003818051602081018201805184825260208301602085012081835280955050505050506000915090505481565b6107a66116a4565b60006003836040516107b89190612030565b90815260200160405180910390205490506000811161080c576040517f08c379a000000000000000000000000000000000000000000000000000000000815260040161080390612538565b60405180910390fd5b60026000828152602001908152602001600020604051806101600160405290816000820154815260200160018201805461084590612174565b80601f016020809104026020016040519081016040528092919081815260200182805461087190612174565b80156108be5780601f10610893576101008083540402835291602001916108be565b820191906000526020600020905b8154815290600101906020018083116108a157829003601f168201915b505050505081526020016002820180546108d790612174565b80601f016020809104026020016040519081016040528092919081815260200182805461090390612174565b80156109505780601f1061092557610100808354040283529160200191610950565b820191906000526020600020905b81548152906001019060200180831161093357829003601f168201915b5050505050815260200160038201805461096990612174565b80601f016020809104026020016040519081016040528092919081815260200182805461099590612174565b80156109e25780601f106109b7576101008083540402835291602001916109e2565b820191906000526020600020905b8154815290600101906020018083116109c557829003601f168201915b5050505050815260200160048201548152602001600582015481526020016006820160009054906101000a900460ff1615151515815260200160078201548152602001600882015481526020016009820160009054906101000a900460ff161515151581526020016009820160019054906101000a900473ffffffffffffffffffffffffffffffffffffffff1673ffffffffffffffffffffffffffffffffffffffff1673ffffffffffffffffffffffffffffffffffffffff1681525050915050919050565b600080600084815260200190815260200160002060000160008373ffffffffffffffffffffffffffffffffffffffff1673ffffffffffffffffffffffffffffffffffffffff16815260200190815260200160002060009054906101000a900460ff16905092915050565b6000801b81565b610b206116a4565b600082118015610b395750610b3560016112bf565b8211155b610b78576040517f08c379a0000000000000000000000000000000000000000000000000000000008152600401610b6f906125a4565b60405180910390fd5b600260008381526020019081526020016000206040518061016001604052908160008201548152602001600182018054610bb190612174565b80601f0160208091040260200160405190810160405280929190818152602001828054610bdd90612174565b8015610c2a5780601f10610bff57610100808354040283529160200191610c2a565b820191906000526020600020905b815481529060010190602001808311610c0d57829003601f168201915b50505050508152602001600282018054610c4390612174565b80601f0160208091040260200160405190810160405280929190818152602001828054610c6f90612174565b8015610cbc5780601f10610c9157610100808354040283529160200191610cbc565b820191906000526020600020905b815481529060010190602001808311610c9f57829003601f168201915b50505050508152602001600382018054610cd590612174565b80601f0160208091040260200160405190810160405280929190818152602001828054610d0190612174565b8015610d4e5780601f10610d2357610100808354040283529160200191610d4e565b820191906000526020600020905b815481529060010190602001808311610d3157829003601f168201915b5050505050815260200160048201548152602001600582015481526020016006820160009054906101000a900460ff1615151515815260200160078201548152602001600882015481526020016009820160009054906101000a900460ff161515151581526020016009820160019054906101000a900473ffffffffffffffffffffffffffffffffffffffff1673ffffffffffffffffffffffffffffffffffffffff1673ffffffffffffffffffffffffffffffffffffffff16815250509050919050565b610e1b8261039f565b610e24816111b5565b610e2e83836112d5565b505050565b6000610e3f60016112bf565b905090565b6000801b610e51816111b5565b600083118015610e6a5750610e6660016112bf565b8311155b610ea9576040517f08c379a0000000000000000000000000000000000000000000000000000000008152600401610ea0906125a4565b60405180910390fd5b6000600260008581526020019081526020016000209050828160090160006101000a81548160ff021916908315150217905550837f330d7f4d63e4341e16998444e726c80bbce17b9425e52dd205c4443db9ff72988260010185604051610f11929190612648565b60405180910390a250505050565b6002602052806000526040600020600091509050806000015490806001018054610f4890612174565b80601f0160208091040260200160405190810160405280929190818152602001828054610f7490612174565b8015610fc15780601f10610f9657610100808354040283529160200191610fc1565b820191906000526020600020905b815481529060010190602001808311610fa457829003601f168201915b505050505090806002018054610fd690612174565b80601f016020809104026020016040519081016040528092919081815260200182805461100290612174565b801561104f5780601f106110245761010080835404028352916020019161104f565b820191906000526020600020905b81548152906001019060200180831161103257829003601f168201915b50505050509080600301805461106490612174565b80601f016020809104026020016040519081016040528092919081815260200182805461109090612174565b80156110dd5780601f106110b2576101008083540402835291602001916110dd565b820191906000526020600020905b8154815290600101906020018083116110c057829003601f168201915b5050505050908060040154908060050154908060060160009054906101000a900460ff16908060070154908060080154908060090160009054906101000a900460ff16908060090160019054906101000a900473ffffffffffffffffffffffffffffffffffffffff1690508b565b60007f01ffc9a7000000000000000000000000000000000000000000000000000000007bffffffffffffffffffffffffffffffffffffffffffffffffffffffff1916827bffffffffffffffffffffffffffffffffffffffffffffffffffffffff1916149050919050565b6111c6816111c16112cd565b6113b6565b50565b6111d38282610aa7565b6112a557600160008084815260200190815260200160002060000160008373ffffffffffffffffffffffffffffffffffffffff1673ffffffffffffffffffffffffffffffffffffffff16815260200190815260200160002060006101000a81548160ff02191690831515021790555061124a6112cd565b73ffffffffffffffffffffffffffffffffffffffff168173ffffffffffffffffffffffffffffffffffffffff16837f2f8788117e7eff1d82e926ec794901d17c78024a50270940304540a733656f0d60405160405180910390a45b5050565b6001816000016000828254019250508190555050565b600081600001549050919050565b600033905090565b6112df8282610aa7565b156113b257600080600084815260200190815260200160002060000160008373ffffffffffffffffffffffffffffffffffffffff1673ffffffffffffffffffffffffffffffffffffffff16815260200190815260200160002060006101000a81548160ff0219169083151502179055506113576112cd565b73ffffffffffffffffffffffffffffffffffffffff168173ffffffffffffffffffffffffffffffffffffffff16837ff6391f5c32d9c69d2a47ea670b442974b53935d1edc7fd64eb21e047a839171b60405160405180910390a45b5050565b6113c08282610aa7565b611437576113cd8161143b565b6113db8360001c6020611468565b6040516020016113ec929190612710565b6040516020818303038152906040526040517f08c379a000000000000000000000000000000000000000000000000000000000815260040161142e919061274a565b60405180910390fd5b5050565b60606114618273ffffffffffffffffffffffffffffffffffffffff16601460ff16611468565b9050919050565b60606000600283600261147b919061279b565b61148591906127dd565b67ffffffffffffffff81111561149e5761149d61192d565b5b6040519080825280601f01601f1916602001820160405280156114d05781602001600182028036833780820191505090505b5090507f30000000000000000000000000000000000000000000000000000000000000008160008151811061150857611507612811565b5b60200101907effffffffffffffffffffffffffffffffffffffffffffffffffffffffffffff1916908160001a9053507f78000000000000000000000000000000000000000000000000000000000000008160018151811061156c5761156b612811565b5b60200101907effffffffffffffffffffffffffffffffffffffffffffffffffffffffffffff1916908160001a905350600060018460026115ac919061279b565b6115b691906127dd565b90505b6001811115611656577f3031323334353637383961626364656600000000000000000000000000000000600f8616601081106115f8576115f7612811565b5b1a60f81b82828151811061160f5761160e612811565b5b60200101907effffffffffffffffffffffffffffffffffffffffffffffffffffffffffffff1916908160001a905350600485901c94508061164f90612840565b90506115b9565b506000841461169a576040517f08c379a0000000000000000000000000000000000000000000000000000000008152600401611691906128b5565b60405180910390fd5b8091505092915050565b6040518061016001604052806000815260200160608152602001606081526020016060815260200160008152602001600081526020016000151581526020016000815260200160008152602001600015158152602001600073ffffffffffffffffffffffffffffffffffffffff1681525090565b6000604051905090565b600080fd5b600080fd5b60007fffffffff0000000000000000000000000000000000000000000000000000000082169050919050565b6117618161172c565b811461176c57600080fd5b50565b60008135905061177e81611758565b92915050565b60006020828403121561179a57611799611722565b5b60006117a88482850161176f565b91505092915050565b60008115159050919050565b6117c6816117b1565b82525050565b60006020820190506117e160008301846117bd565b92915050565b6000819050919050565b6117fa816117e7565b811461180557600080fd5b50565b600081359050611817816117f1565b92915050565b60006020828403121561183357611832611722565b5b600061184184828501611808565b91505092915050565b611853816117e7565b82525050565b600060208201905061186e600083018461184a565b92915050565b600073ffffffffffffffffffffffffffffffffffffffff82169050919050565b600061189f82611874565b9050919050565b6118af81611894565b81146118ba57600080fd5b50565b6000813590506118cc816118a6565b92915050565b600080604083850312156118e9576118e8611722565b5b60006118f785828601611808565b9250506020611908858286016118bd565b9150509250929050565b600080fd5b600080fd5b6000601f19601f8301169050919050565b7f4e487b7100000000000000000000000000000000000000000000000000000000600052604160045260246000fd5b6119658261191c565b810181811067ffffffffffffffff821117156119845761198361192d565b5b80604052505050565b6000611997611718565b90506119a3828261195c565b919050565b600067ffffffffffffffff8211156119c3576119c261192d565b5b6119cc8261191c565b9050602081019050919050565b82818337600083830152505050565b60006119fb6119f6846119a8565b61198d565b905082815260208101848484011115611a1757611a16611917565b5b611a228482856119d9565b509392505050565b600082601f830112611a3f57611a3e611912565b5b8135611a4f8482602086016119e8565b91505092915050565b6000819050919050565b611a6b81611a58565b8114611a7657600080fd5b50565b600081359050611a8881611a62565b92915050565b611a97816117b1565b8114611aa257600080fd5b50565b600081359050611ab481611a8e565b92915050565b600080600080600080600080610100898b031215611adb57611ada611722565b5b600089013567ffffffffffffffff811115611af957611af8611727565b5b611b058b828c01611a2a565b985050602089013567ffffffffffffffff811115611b2657611b25611727565b5b611b328b828c01611a2a565b975050604089013567ffffffffffffffff811115611b5357611b52611727565b5b611b5f8b828c01611a2a565b9650506060611b708b828c01611a79565b9550506080611b818b828c01611a79565b94505060a0611b928b828c01611aa5565b93505060c0611ba38b828c01611a79565b92505060e0611bb48b828c01611a79565b9150509295985092959890939650565b611bcd81611a58565b82525050565b6000602082019050611be86000830184611bc4565b92915050565b600060208284031215611c0457611c03611722565b5b600082013567ffffffffffffffff811115611c2257611c21611727565b5b611c2e84828501611a2a565b91505092915050565b611c4081611a58565b82525050565b600081519050919050565b600082825260208201905092915050565b60005b83811015611c80578082015181840152602081019050611c65565b60008484015250505050565b6000611c9782611c46565b611ca18185611c51565b9350611cb1818560208601611c62565b611cba8161191c565b840191505092915050565b611cce816117b1565b82525050565b611cdd81611894565b82525050565b600061016083016000830151611cfc6000860182611c37565b5060208301518482036020860152611d148282611c8c565b91505060408301518482036040860152611d2e8282611c8c565b91505060608301518482036060860152611d488282611c8c565b9150506080830151611d5d6080860182611c37565b5060a0830151611d7060a0860182611c37565b5060c0830151611d8360c0860182611cc5565b5060e0830151611d9660e0860182611c37565b50610100830151611dab610100860182611c37565b50610120830151611dc0610120860182611cc5565b50610140830151611dd5610140860182611cd4565b508091505092915050565b60006020820190508181036000830152611dfa8184611ce3565b905092915050565b600060208284031215611e1857611e17611722565b5b6000611e2684828501611a79565b91505092915050565b60008060408385031215611e4657611e45611722565b5b6000611e5485828601611a79565b9250506020611e6585828601611aa5565b9150509250929050565b600082825260208201905092915050565b6000611e8b82611c46565b611e958185611e6f565b9350611ea5818560208601611c62565b611eae8161191c565b840191505092915050565b611ec281611894565b82525050565b600061016082019050611ede600083018e611bc4565b8181036020830152611ef0818d611e80565b90508181036040830152611f04818c611e80565b90508181036060830152611f18818b611e80565b9050611f27608083018a611bc4565b611f3460a0830189611bc4565b611f4160c08301886117bd565b611f4e60e0830187611bc4565b611f5c610100830186611bc4565b611f6a6101208301856117bd565b611f78610140830184611eb9565b9c9b505050505050505050505050565b7f44727567206e616d652063616e6e6f7420626520656d70747900000000000000600082015250565b6000611fbe601983611e6f565b9150611fc982611f88565b602082019050919050565b60006020820190508181036000830152611fed81611fb1565b9050919050565b600081905092915050565b600061200a82611c46565b6120148185611ff4565b9350612024818560208601611c62565b80840191505092915050565b600061203c8284611fff565b915081905092915050565b7f4472756720776974682074686973206e616d6520616c7265616479206578697360008201527f7473000000000000000000000000000000000000000000000000000000000000602082015250565b60006120a3602283611e6f565b91506120ae82612047565b604082019050919050565b600060208201905081810360008301526120d281612096565b9050919050565b7f496e76616c696420646174657300000000000000000000000000000000000000600082015250565b600061210f600d83611e6f565b915061211a826120d9565b602082019050919050565b6000602082019050818103600083015261213e81612102565b9050919050565b7f4e487b7100000000000000000000000000000000000000000000000000000000600052602260045260246000fd5b6000600282049050600182168061218c57607f821691505b60208210810361219f5761219e612145565b5b50919050565b60008190508160005260206000209050919050565b60006020601f8301049050919050565b600082821b905092915050565b6000600883026122077fffffffffffffffffffffffffffffffffffffffffffffffffffffffffffffffff826121ca565b61221186836121ca565b95508019841693508086168417925050509392505050565b6000819050919050565b600061224e61224961224484611a58565b612229565b611a58565b9050919050565b6000819050919050565b61226883612233565b61227c61227482612255565b8484546121d7565b825550505050565b600090565b612291612284565b61229c81848461225f565b505050565b5b818110156122c0576122b5600082612289565b6001810190506122a2565b5050565b601f821115612305576122d6816121a5565b6122df846121ba565b810160208510156122ee578190505b6123026122fa856121ba565b8301826122a1565b50505b505050565b600082821c905092915050565b60006123286000198460080261230a565b1980831691505092915050565b60006123418383612317565b9150826002028217905092915050565b61235a82611c46565b67ffffffffffffffff8111156123735761237261192d565b5b61237d8254612174565b6123888282856122c4565b600060209050601f8311600181146123bb57600084156123a9578287015190505b6123b38582612335565b86555061241b565b601f1984166123c9866121a5565b60005b828110156123f1578489015182556001820191506020850194506020810190506123cc565b8683101561240e578489015161240a601f891682612317565b8355505b6001600288020188555050505b505050505050565b6000604082019050818103600083015261243d8185611e80565b905081810360208301526124518184611e80565b90509392505050565b7f416363657373436f6e74726f6c3a2063616e206f6e6c792072656e6f756e636560008201527f20726f6c657320666f722073656c660000000000000000000000000000000000602082015250565b60006124b6602f83611e6f565b91506124c18261245a565b604082019050919050565b600060208201905081810360008301526124e5816124a9565b9050919050565b7f44727567206e6f7420666f756e64000000000000000000000000000000000000600082015250565b6000612522600e83611e6f565b915061252d826124ec565b602082019050919050565b6000602082019050818103600083015261255181612515565b9050919050565b7f496e76616c696420647275672049440000000000000000000000000000000000600082015250565b600061258e600f83611e6f565b915061259982612558565b602082019050919050565b600060208201905081810360008301526125bd81612581565b9050919050565b600081546125d181612174565b6125db8186611e6f565b945060018216600081146125f6576001811461260c5761263f565b60ff19831686528115156020028601935061263f565b612615856121a5565b60005b8381101561263757815481890152600182019150602081019050612618565b808801955050505b50505092915050565b6000604082019050818103600083015261266281856125c4565b905061267160208301846117bd565b9392505050565b7f416363657373436f6e74726f6c3a206163636f756e7420000000000000000000600082015250565b60006126ae601783611ff4565b91506126b982612678565b601782019050919050565b7f206973206d697373696e6720726f6c6520000000000000000000000000000000600082015250565b60006126fa601183611ff4565b9150612705826126c4565b601182019050919050565b600061271b826126a1565b91506127278285611fff565b9150612732826126ed565b915061273e8284611fff565b91508190509392505050565b600060208201905081810360008301526127648184611e80565b905092915050565b7f4e487b7100000000000000000000000000000000000000000000000000000000600052601160045260246000fd5b60006127a682611a58565b91506127b183611a58565b92508282026127bf81611a58565b915082820484148315176127d6576127d561276c565b5b5092915050565b60006127e882611a58565b91506127f383611a58565b925082820190508082111561280b5761280a61276c565b5b92915050565b7f4e487b7100000000000000000000000000000000000000000000000000000000600052603260045260246000fd5b600061284b82611a58565b91506000820361285e5761285d61276c565b5b600182039050919050565b7f537472696e67733a20686578206c656e67746820696e73756666696369656e74600082015250565b600061289f602083611e6f565b91506128aa82612869565b602082019050919050565b600060208201905081810360008301526128ce81612892565b905091905056fea26469706673582212207b98c55bd0a68b3933f0dc3f92cdfa9c0407511bb357ae566e6c9a0719c42dd064736f6c63430008130033",
  "linkReferences": {},
  "deployedLinkReferences": {}
}