{
  "_format": "hh-sol-artifact-1",
  "contractName": "TemperatureMonitor",
  "sourceName": "contracts/TemperatureMonitor.sol",
  "abi": [
    {
      "inputs": [
        {
          "internalType": "address",
          "name": "_drugRegistry",
          "type": "address"
        },
        {
          "internalType": "address",
          "name": "_supplyChain",
          "type": "address"
        }
      ],
      "stateMutability": "nonpayable",
      "type": "constructor"
    },
    {
      "anonymous": false,
      "inputs": [
        {
          "indexed": true,
          "internalType": "bytes32",
          "name": "role",
          "type": "bytes32"
        },
        {
          "indexed": true,
          "internalType": "bytes32",
          "name": "previousAdminRole",
          "type": "bytes32"
        },
        {
          "indexed": true,
          "internalType": "bytes32",
          "name": "newAdminRole",
          "type": "bytes32"
        }
      ],
      "name": "RoleAdminChanged",
      "type": "event"
    },
    {
      "anonymous": false,
      "inputs": [
        {
          "indexed": true,
          "internalType": "bytes32",
          "name": "role",
          "type": "bytes32"
        },
        {
          "indexed": true,
          "internalType": "address",
          "name": "account",
          "type": "address"
        },
        {
          "indexed": true,
          "internalType": "address",
          "name": "sender",
          "type": "address"
        }
      ],
      "name": "RoleGranted",
      "type": "event"
    },
    {
      "anonymous": false,
      "inputs": [
        {
          "indexed": true,
          "internalType": "bytes32",
          "name": "role",
          "type": "bytes32"
        },
        {
          "indexed": true,
          "internalType": "address",
          "name": "account",
          "type": "address"
        },
        {
          "indexed": true,
          "internalType": "address",
          "name": "sender",
          "type": "address"
        }
      ],
      "name": "RoleRevoked",
      "type": "event"
    },
    {
      "anonymous": false,
      "inputs": [
        {
          "indexed": true,
          "internalType": "uint256",
          "name": "batchId",
          "type": "uint256"
        },
        {
          "indexed": true,
          "internalType": "uint256",
          "name": "drugId",
          "type": "uint256"
        },
        {
          "indexed": false,
          "internalType": "uint256",
          "name": "temperature",
          "type": "uint256"
        },
        {
          "indexed": false,
          "internalType": "string",
          "name": "location",
          "type": "string"
        }
      ],
      "name": "TemperatureAlertCreated",
      "type": "event"
    },
    {
      "anonymous": false,
      "inputs": [
        {
          "indexed": true,
          "internalType": "uint256",
          "name": "batchId",
          "type": "uint256"
        },
        {
          "indexed": true,
          "internalType": "uint256",
          "name": "drugId",
          "type": "uint256"
        },
        {
          "indexed": false,
          "internalType": "string",
          "name": "resolution",
          "type": "string"
        }
      ],
      "name": "TemperatureAlertResolved",
      "type": "event"
    },
    {
      "inputs": [],
      "name": "DEFAULT_ADMIN_ROLE",
      "outputs": [
        {
          "internalType": "bytes32",
          "name": "",
          "type": "bytes32"
        }
      ],
      "stateMutability": "view",
      "type": "function"
    },
    {
      "inputs": [
        {
          "internalType": "uint256",
          "name": "",
          "type": "uint256"
        }
      ],
      "name": "alertCount",
      "outputs": [
        {
          "internalType": "uint256",
          "name": "",
          "type": "uint256"
        }
      ],
      "stateMutability": "view",
      "type": "function"
    },
    {
      "inputs": [
        {
          "internalType": "uint256",
          "name": "_batchId",
          "type": "uint256"
        },
        {
          "internalType": "uint256",
          "name": "_temperature",
          "type": "uint256"
        },
        {
          "internalType": "string",
          "name": "_location",
          "type": "string"
        }
      ],
      "name": "checkTemperature",
      "outputs": [],
      "stateMutability": "nonpayable",
      "type": "function"
    },
    {
      "inputs": [],
      "name": "drugRegistry",
      "outputs": [
        {
          "internalType": "contract DrugRegistry",
          "name": "",
          "type": "address"
        }
      ],
      "stateMutability": "view",
      "type": "function"
    },
    {
      "inputs": [
        {
          "internalType": "uint256",
          "name": "_batchId",
          "type": "uint256"
        }
      ],
      "name": "getAlertCount",
      "outputs": [
        {
          "internalType": "uint256",
          "name": "",
          "type": "uint256"
        }
      ],
      "stateMutability": "view",
      "type": "function"
    },
    {
      "inputs": [
        {
          "internalType": "bytes32",
          "name": "role",
          "type": "bytes32"
        }
      ],
      "name": "getRoleAdmin",
      "outputs": [
        {
          "internalType": "bytes32",
          "name": "",
          "type": "bytes32"
        }
      ],
      "stateMutability": "view",
      "type": "function"
    },
    {
      "inputs": [
        {
          "internalType": "uint256",
          "name": "_batchId",
          "type": "uint256"
        }
      ],
      "name": "getTemperatureAlerts",
      "outputs": [
        {
          "components": [
            {
              "internalType": "uint256",
              "name": "batchId",
              "type": "uint256"
            },
            {
              "internalType": "uint256",
              "name": "drugId",
              "type": "uint256"
            },
            {
              "internalType": "uint256",
              "name": "temperature",
              "type": "uint256"
            },
            {
              "internalType": "uint256",
              "name": "timestamp",
              "type": "uint256"
            },
            {
              "internalType": "string",
              "name": "location",
              "type": "string"
            },
            {
              "internalType": "bool",
              "name": "isResolved",
              "type": "bool"
            },
            {
              "internalType": "string",
              "name": "resolution",
              "type": "string"
            }
          ],
          "internalType": "struct TemperatureMonitor.TemperatureAlert[]",
          "name": "",
          "type": "tuple[]"
        }
      ],
      "stateMutability": "view",
      "type": "function"
    },
    {
      "inputs": [
        {
          "internalType": "bytes32",
          "name": "role",
          "type": "bytes32"
        },
        {
          "internalType": "address",
          "name": "account",
          "type": "address"
        }
      ],
      "name": "grantRole",
      "outputs": [],
      "stateMutability": "nonpayable",
      "type": "function"
    },
    {
      "inputs": [
        {
          "internalType": "bytes32",
          "name": "role",
          "type": "bytes32"
        },
        {
          "internalType": "address",
          "name": "account",
          "type": "address"
        }
      ],
      "name": "hasRole",
      "outputs": [
        {
          "internalType": "bool",
          "name": "",
          "type": "bool"
        }
      ],
      "stateMutability": "view",
      "type": "function"
    },
    {
      "inputs": [
        {
          "internalType": "uint256",
          "name": "_drugId",
          "type": "uint256"
        },
        {
          "internalType": "uint256",
          "name": "_temperature",
          "type": "uint256"
        }
      ],
      "name": "isTemperatureInRange",
      "outputs": [
        {
          "internalType": "bool",
          "name": "",
          "type": "bool"
        }
      ],
      "stateMutability": "view",
      "type": "function"
    },
    {
      "inputs": [
        {
          "internalType": "bytes32",
          "name": "role",
          "type": "bytes32"
        },
        {
          "internalType": "address",
          "name": "account",
          "type": "address"
        }
      ],
      "name": "renounceRole",
      "outputs": [],
      "stateMutability": "nonpayable",
      "type": "function"
    },
    {
      "inputs": [
        {
          "internalType": "uint256",
          "name": "_batchId",
          "type": "uint256"
        },
        {
          "internalType": "uint256",
          "name": "_alertIndex",
          "type": "uint256"
        },
        {
          "internalType": "string",
          "name": "_resolution",
          "type": "string"
        }
      ],
      "name": "resolveTemperatureAlert",
      "outputs": [],
      "stateMutability": "nonpayable",
      "type": "function"
    },
    {
      "inputs": [
        {
          "internalType": "bytes32",
          "name": "role",
          "type": "bytes32"
        },
        {
          "internalType": "address",
          "name": "account",
          "type": "address"
        }
      ],
      "name": "revokeRole",
      "outputs": [],
      "stateMutability": "nonpayable",
      "type": "function"
    },
    {
      "inputs": [],
      "name": "supplyChain",
      "outputs": [
        {
          "internalType": "contract SupplyChain",
          "name": "",
          "type": "address"
        }
      ],
      "stateMutability": "view",
      "type": "function"
    },
    {
      "inputs": [
        {
          "internalType": "bytes4",
          "name": "interfaceId",
          "type": "bytes4"
        }
      ],
      "name": "supportsInterface",
      "outputs": [
        {
          "internalType": "bool",
          "name": "",
          "type": "bool"
        }
      ],
      "stateMutability": "view",
      "type": "function"
    },
    {
      "inputs": [
        {
          "internalType": "uint256",
          "name": "",
          "type": "uint256"
        },
        {
          "internalType": "uint256",
          "name": "",
          "type": "uint256"
        }
      ],
      "name": "temperatureAlerts",
      "outputs": [
        {
          "internalType": "uint256",
          "name": "batchId",
          "type": "uint256"
        },
        {
          "internalType": "uint256",
          "name": "drugId",
          "type": "uint256"
        },
        {
          "internalType": "uint256",
          "name": "temperature",
          "type": "uint256"
        },
        {
          "internalType": "uint256",
          "name": "timestamp",
          "type": "uint256"
        },
        {
          "internalType": "string",
          "name": "location",
          "type": "string"
        },
        {
          "internalType": "bool",
          "name": "isResolved",
          "type": "bool"
        },
        {
          "internalType": "string",
          "name": "resolution",
          "type": "string"
        }
      ],
      "stateMutability": "view",
      "type": "function"
    }
  ],
  "bytecode": "0x60806040523480156200001157600080fd5b5060405162002b3e38038062002b3e8339818101604052810190620000379190620002a3565b81600160006101000a81548173ffffffffffffffffffffffffffffffffffffffff021916908373ffffffffffffffffffffffffffffffffffffffff16021790555080600260006101000a81548173ffffffffffffffffffffffffffffffffffffffff021916908373ffffffffffffffffffffffffffffffffffffffff160217905550620000ce6000801b33620000d660201b60201c565b5050620002ea565b620000e88282620001c760201b60201c565b620001c357600160008084815260200190815260200160002060000160008373ffffffffffffffffffffffffffffffffffffffff1673ffffffffffffffffffffffffffffffffffffffff16815260200190815260200160002060006101000a81548160ff021916908315150217905550620001686200023160201b60201c565b73ffffffffffffffffffffffffffffffffffffffff168173ffffffffffffffffffffffffffffffffffffffff16837f2f8788117e7eff1d82e926ec794901d17c78024a50270940304540a733656f0d60405160405180910390a45b5050565b600080600084815260200190815260200160002060000160008373ffffffffffffffffffffffffffffffffffffffff1673ffffffffffffffffffffffffffffffffffffffff16815260200190815260200160002060009054906101000a900460ff16905092915050565b600033905090565b600080fd5b600073ffffffffffffffffffffffffffffffffffffffff82169050919050565b60006200026b826200023e565b9050919050565b6200027d816200025e565b81146200028957600080fd5b50565b6000815190506200029d8162000272565b92915050565b60008060408385031215620002bd57620002bc62000239565b5b6000620002cd858286016200028c565b9250506020620002e0858286016200028c565b9150509250929050565b61284480620002fa6000396000f3fe608060405234801561001057600080fd5b50600436106101005760003560e01c8063a217fddf11610097578063c82ca94d11610066578063c82ca94d146102d9578063d010740114610309578063d547741f14610339578063fecac23a1461035557610100565b8063a217fddf14610237578063bddfdcec14610255578063bdfb311914610273578063c39cec9a146102a357610100565b806336568abe116100d357806336568abe1461019d57806366892148146101b957806388d84b66146101e957806391d148541461020757610100565b806301ffc9a714610105578063248a9ca3146101355780632f2ff15d1461016557806334d7b4c314610181575b600080fd5b61011f600480360381019061011a91906114e4565b610371565b60405161012c919061152c565b60405180910390f35b61014f600480360381019061014a919061157d565b6103eb565b60405161015c91906115b9565b60405180910390f35b61017f600480360381019061017a9190611632565b61040a565b005b61019b600480360381019061019691906117ee565b61042b565b005b6101b760048036038101906101b29190611632565b6105cf565b005b6101d360048036038101906101ce919061185d565b610652565b6040516101e09190611899565b60405180910390f35b6101f161066a565b6040516101fe9190611913565b60405180910390f35b610221600480360381019061021c9190611632565b610690565b60405161022e919061152c565b60405180910390f35b61023f6106fa565b60405161024c91906115b9565b60405180910390f35b61025d610701565b60405161026a919061194f565b60405180910390f35b61028d6004803603810190610288919061196a565b610727565b60405161029a919061152c565b60405180910390f35b6102bd60048036038101906102b8919061196a565b610803565b6040516102d09796959493929190611a29565b60405180910390f35b6102f360048036038101906102ee919061185d565b61097f565b6040516103009190611899565b60405180910390f35b610323600480360381019061031e919061185d565b6109de565b6040516103309190611c73565b60405180910390f35b610353600480360381019061034e9190611632565b610bfa565b005b61036f600480360381019061036a91906117ee565b610c1b565b005b60007f7965db0b000000000000000000000000000000000000000000000000000000007bffffffffffffffffffffffffffffffffffffffffffffffffffffffff1916827bffffffffffffffffffffffffffffffffffffffffffffffffffffffff191614806103e457506103e382610f43565b5b9050919050565b6000806000838152602001908152602001600020600101549050919050565b610413826103eb565b61041c81610fad565b6104268383610fc1565b505050565b6000801b61043881610fad565b6000841161047b576040517f08c379a000000000000000000000000000000000000000000000000000000000815260040161047290611ce1565b60405180910390fd5b600360008581526020019081526020016000208054905083106104d3576040517f08c379a00000000000000000000000000000000000000000000000000000000081526004016104ca90611d4d565b60405180910390fd5b60006003600086815260200190815260200160002084815481106104fa576104f9611d6d565b5b906000526020600020906007020190508060050160009054906101000a900460ff161561055c576040517f08c379a000000000000000000000000000000000000000000000000000000000815260040161055390611de8565b60405180910390fd5b60018160050160006101000a81548160ff0219169083151502179055508281600601908161058a919061200a565b508060010154857fe3272c69a1ad2668dad466a144b4cc892c706b7d644ffd173cb944f332e6d3b3856040516105c091906120dc565b60405180910390a35050505050565b6105d76110a1565b73ffffffffffffffffffffffffffffffffffffffff168173ffffffffffffffffffffffffffffffffffffffff1614610644576040517f08c379a000000000000000000000000000000000000000000000000000000000815260040161063b90612170565b60405180910390fd5b61064e82826110a9565b5050565b60046020528060005260406000206000915090505481565b600260009054906101000a900473ffffffffffffffffffffffffffffffffffffffff1681565b600080600084815260200190815260200160002060000160008373ffffffffffffffffffffffffffffffffffffffff1673ffffffffffffffffffffffffffffffffffffffff16815260200190815260200160002060009054906101000a900460ff16905092915050565b6000801b81565b600160009054906101000a900473ffffffffffffffffffffffffffffffffffffffff1681565b600080600160009054906101000a900473ffffffffffffffffffffffffffffffffffffffff1673ffffffffffffffffffffffffffffffffffffffff1663b8840d3d856040518263ffffffff1660e01b81526004016107859190611899565b600060405180830381865afa1580156107a2573d6000803e3d6000fd5b505050506040513d6000823e3d601f19601f820116820180604052508101906107cb91906123c0565b90508060c001516107e05760019150506107fd565b8060e0015183101580156107f957508061010001518311155b9150505b92915050565b6003602052816000526040600020818154811061081f57600080fd5b90600052602060002090600702016000915091505080600001549080600101549080600201549080600301549080600401805461085b90611e37565b80601f016020809104026020016040519081016040528092919081815260200182805461088790611e37565b80156108d45780601f106108a9576101008083540402835291602001916108d4565b820191906000526020600020905b8154815290600101906020018083116108b757829003601f168201915b5050505050908060050160009054906101000a900460ff16908060060180546108fc90611e37565b80601f016020809104026020016040519081016040528092919081815260200182805461092890611e37565b80156109755780601f1061094a57610100808354040283529160200191610975565b820191906000526020600020905b81548152906001019060200180831161095857829003601f168201915b5050505050905087565b60008082116109c3576040517f08c379a00000000000000000000000000000000000000000000000000000000081526004016109ba90611ce1565b60405180910390fd5b60046000838152602001908152602001600020549050919050565b606060008211610a23576040517f08c379a0000000000000000000000000000000000000000000000000000000008152600401610a1a90611ce1565b60405180910390fd5b60036000838152602001908152602001600020805480602002602001604051908101604052809291908181526020016000905b82821015610bef57838290600052602060002090600702016040518060e001604052908160008201548152602001600182015481526020016002820154815260200160038201548152602001600482018054610ab190611e37565b80601f0160208091040260200160405190810160405280929190818152602001828054610add90611e37565b8015610b2a5780601f10610aff57610100808354040283529160200191610b2a565b820191906000526020600020905b815481529060010190602001808311610b0d57829003601f168201915b505050505081526020016005820160009054906101000a900460ff16151515158152602001600682018054610b5e90611e37565b80601f0160208091040260200160405190810160405280929190818152602001828054610b8a90611e37565b8015610bd75780601f10610bac57610100808354040283529160200191610bd7565b820191906000526020600020905b815481529060010190602001808311610bba57829003601f168201915b50505050508152505081526020019060010190610a56565b505050509050919050565b610c03826103eb565b610c0c81610fad565b610c1683836110a9565b505050565b60008311610c5e576040517f08c379a0000000000000000000000000000000000000000000000000000000008152600401610c5590611ce1565b60405180910390fd5b6000600260009054906101000a900473ffffffffffffffffffffffffffffffffffffffff1673ffffffffffffffffffffffffffffffffffffffff16635ac44282856040518263ffffffff1660e01b8152600401610cbb9190611899565b600060405180830381865afa158015610cd8573d6000803e3d6000fd5b505050506040513d6000823e3d601f19601f82011682018060405250810190610d019190612505565b90506000600160009054906101000a900473ffffffffffffffffffffffffffffffffffffffff1673ffffffffffffffffffffffffffffffffffffffff1663b8840d3d83602001516040518263ffffffff1660e01b8152600401610d649190611899565b600060405180830381865afa158015610d81573d6000803e3d6000fd5b505050506040513d6000823e3d601f19601f82011682018060405250810190610daa91906123c0565b90508060c0015115610f3c578060e00151841080610dcc575080610100015184115b15610f3b5760006040518060e001604052808781526020018460200151815260200186815260200142815260200185815260200160001515815260200160405180602001604052806000815250815250905060036000878152602001908152602001600020819080600181540180825580915050600190039060005260206000209060070201600090919091909150600082015181600001556020820151816001015560408201518160020155606082015181600301556080820151816004019081610e98919061200a565b5060a08201518160050160006101000a81548160ff02191690831515021790555060c0820151816006019081610ece919061200a565b505050600460008781526020019081526020016000206000815480929190610ef59061257d565b91905055508260200151867fc2d72d1e2699c3db029442813efbb4a9bd4c917dbb6b9f96e9da7849780547ca8787604051610f319291906125c5565b60405180910390a3505b5b5050505050565b60007f01ffc9a7000000000000000000000000000000000000000000000000000000007bffffffffffffffffffffffffffffffffffffffffffffffffffffffff1916827bffffffffffffffffffffffffffffffffffffffffffffffffffffffff1916149050919050565b610fbe81610fb96110a1565b61118a565b50565b610fcb8282610690565b61109d57600160008084815260200190815260200160002060000160008373ffffffffffffffffffffffffffffffffffffffff1673ffffffffffffffffffffffffffffffffffffffff16815260200190815260200160002060006101000a81548160ff0219169083151502179055506110426110a1565b73ffffffffffffffffffffffffffffffffffffffff168173ffffffffffffffffffffffffffffffffffffffff16837f2f8788117e7eff1d82e926ec794901d17c78024a50270940304540a733656f0d60405160405180910390a45b5050565b600033905090565b6110b38282610690565b1561118657600080600084815260200190815260200160002060000160008373ffffffffffffffffffffffffffffffffffffffff1673ffffffffffffffffffffffffffffffffffffffff16815260200190815260200160002060006101000a81548160ff02191690831515021790555061112b6110a1565b73ffffffffffffffffffffffffffffffffffffffff168173ffffffffffffffffffffffffffffffffffffffff16837ff6391f5c32d9c69d2a47ea670b442974b53935d1edc7fd64eb21e047a839171b60405160405180910390a45b5050565b6111948282610690565b61120b576111a18161120f565b6111af8360001c602061123c565b6040516020016111c09291906126c9565b6040516020818303038152906040526040517f08c379a000000000000000000000000000000000000000000000000000000000815260040161120291906120dc565b60405180910390fd5b5050565b60606112358273ffffffffffffffffffffffffffffffffffffffff16601460ff1661123c565b9050919050565b60606000600283600261124f9190612703565b6112599190612745565b67ffffffffffffffff811115611272576112716116c3565b5b6040519080825280601f01601f1916602001820160405280156112a45781602001600182028036833780820191505090505b5090507f3000000000000000000000000000000000000000000000000000000000000000816000815181106112dc576112db611d6d565b5b60200101907effffffffffffffffffffffffffffffffffffffffffffffffffffffffffffff1916908160001a9053507f7800000000000000000000000000000000000000000000000000000000000000816001815181106113405761133f611d6d565b5b60200101907effffffffffffffffffffffffffffffffffffffffffffffffffffffffffffff1916908160001a905350600060018460026113809190612703565b61138a9190612745565b90505b600181111561142a577f3031323334353637383961626364656600000000000000000000000000000000600f8616601081106113cc576113cb611d6d565b5b1a60f81b8282815181106113e3576113e2611d6d565b5b60200101907effffffffffffffffffffffffffffffffffffffffffffffffffffffffffffff1916908160001a905350600485901c94508061142390612779565b905061138d565b506000841461146e576040517f08c379a0000000000000000000000000000000000000000000000000000000008152600401611465906127ee565b60405180910390fd5b8091505092915050565b6000604051905090565b600080fd5b600080fd5b60007fffffffff0000000000000000000000000000000000000000000000000000000082169050919050565b6114c18161148c565b81146114cc57600080fd5b50565b6000813590506114de816114b8565b92915050565b6000602082840312156114fa576114f9611482565b5b6000611508848285016114cf565b91505092915050565b60008115159050919050565b61152681611511565b82525050565b6000602082019050611541600083018461151d565b92915050565b6000819050919050565b61155a81611547565b811461156557600080fd5b50565b60008135905061157781611551565b92915050565b60006020828403121561159357611592611482565b5b60006115a184828501611568565b91505092915050565b6115b381611547565b82525050565b60006020820190506115ce60008301846115aa565b92915050565b600073ffffffffffffffffffffffffffffffffffffffff82169050919050565b60006115ff826115d4565b9050919050565b61160f816115f4565b811461161a57600080fd5b50565b60008135905061162c81611606565b92915050565b6000806040838503121561164957611648611482565b5b600061165785828601611568565b92505060206116688582860161161d565b9150509250929050565b6000819050919050565b61168581611672565b811461169057600080fd5b50565b6000813590506116a28161167c565b92915050565b600080fd5b600080fd5b6000601f19601f8301169050919050565b7f4e487b7100000000000000000000000000000000000000000000000000000000600052604160045260246000fd5b6116fb826116b2565b810181811067ffffffffffffffff8211171561171a576117196116c3565b5b80604052505050565b600061172d611478565b905061173982826116f2565b919050565b600067ffffffffffffffff821115611759576117586116c3565b5b611762826116b2565b9050602081019050919050565b82818337600083830152505050565b600061179161178c8461173e565b611723565b9050828152602081018484840111156117ad576117ac6116ad565b5b6117b884828561176f565b509392505050565b600082601f8301126117d5576117d46116a8565b5b81356117e584826020860161177e565b91505092915050565b60008060006060848603121561180757611806611482565b5b600061181586828701611693565b935050602061182686828701611693565b925050604084013567ffffffffffffffff81111561184757611846611487565b5b611853868287016117c0565b9150509250925092565b60006020828403121561187357611872611482565b5b600061188184828501611693565b91505092915050565b61189381611672565b82525050565b60006020820190506118ae600083018461188a565b92915050565b6000819050919050565b60006118d96118d46118cf846115d4565b6118b4565b6115d4565b9050919050565b60006118eb826118be565b9050919050565b60006118fd826118e0565b9050919050565b61190d816118f2565b82525050565b60006020820190506119286000830184611904565b92915050565b6000611939826118e0565b9050919050565b6119498161192e565b82525050565b60006020820190506119646000830184611940565b92915050565b6000806040838503121561198157611980611482565b5b600061198f85828601611693565b92505060206119a085828601611693565b9150509250929050565b600081519050919050565b600082825260208201905092915050565b60005b838110156119e45780820151818401526020810190506119c9565b60008484015250505050565b60006119fb826119aa565b611a0581856119b5565b9350611a158185602086016119c6565b611a1e816116b2565b840191505092915050565b600060e082019050611a3e600083018a61188a565b611a4b602083018961188a565b611a58604083018861188a565b611a65606083018761188a565b8181036080830152611a7781866119f0565b9050611a8660a083018561151d565b81810360c0830152611a9881846119f0565b905098975050505050505050565b600081519050919050565b600082825260208201905092915050565b6000819050602082019050919050565b611adb81611672565b82525050565b600082825260208201905092915050565b6000611afd826119aa565b611b078185611ae1565b9350611b178185602086016119c6565b611b20816116b2565b840191505092915050565b611b3481611511565b82525050565b600060e083016000830151611b526000860182611ad2565b506020830151611b656020860182611ad2565b506040830151611b786040860182611ad2565b506060830151611b8b6060860182611ad2565b5060808301518482036080860152611ba38282611af2565b91505060a0830151611bb860a0860182611b2b565b5060c083015184820360c0860152611bd08282611af2565b9150508091505092915050565b6000611be98383611b3a565b905092915050565b6000602082019050919050565b6000611c0982611aa6565b611c138185611ab1565b935083602082028501611c2585611ac2565b8060005b85811015611c615784840389528151611c428582611bdd565b9450611c4d83611bf1565b925060208a01995050600181019050611c29565b50829750879550505050505092915050565b60006020820190508181036000830152611c8d8184611bfe565b905092915050565b7f496e76616c696420626174636820494400000000000000000000000000000000600082015250565b6000611ccb6010836119b5565b9150611cd682611c95565b602082019050919050565b60006020820190508181036000830152611cfa81611cbe565b9050919050565b7f496e76616c696420616c65727420696e64657800000000000000000000000000600082015250565b6000611d376013836119b5565b9150611d4282611d01565b602082019050919050565b60006020820190508181036000830152611d6681611d2a565b9050919050565b7f4e487b7100000000000000000000000000000000000000000000000000000000600052603260045260246000fd5b7f416c65727420616c7265616479207265736f6c76656400000000000000000000600082015250565b6000611dd26016836119b5565b9150611ddd82611d9c565b602082019050919050565b60006020820190508181036000830152611e0181611dc5565b9050919050565b7f4e487b7100000000000000000000000000000000000000000000000000000000600052602260045260246000fd5b60006002820490506001821680611e4f57607f821691505b602082108103611e6257611e61611e08565b5b50919050565b60008190508160005260206000209050919050565b60006020601f8301049050919050565b600082821b905092915050565b600060088302611eca7fffffffffffffffffffffffffffffffffffffffffffffffffffffffffffffffff82611e8d565b611ed48683611e8d565b95508019841693508086168417925050509392505050565b6000611f07611f02611efd84611672565b6118b4565b611672565b9050919050565b6000819050919050565b611f2183611eec565b611f35611f2d82611f0e565b848454611e9a565b825550505050565b600090565b611f4a611f3d565b611f55818484611f18565b505050565b5b81811015611f7957611f6e600082611f42565b600181019050611f5b565b5050565b601f821115611fbe57611f8f81611e68565b611f9884611e7d565b81016020851015611fa7578190505b611fbb611fb385611e7d565b830182611f5a565b50505b505050565b600082821c905092915050565b6000611fe160001984600802611fc3565b1980831691505092915050565b6000611ffa8383611fd0565b9150826002028217905092915050565b612013826119aa565b67ffffffffffffffff81111561202c5761202b6116c3565b5b6120368254611e37565b612041828285611f7d565b600060209050601f8311600181146120745760008415612062578287015190505b61206c8582611fee565b8655506120d4565b601f19841661208286611e68565b60005b828110156120aa57848901518255600182019150602085019450602081019050612085565b868310156120c757848901516120c3601f891682611fd0565b8355505b6001600288020188555050505b505050505050565b600060208201905081810360008301526120f681846119f0565b905092915050565b7f416363657373436f6e74726f6c3a2063616e206f6e6c792072656e6f756e636560008201527f20726f6c657320666f722073656c660000000000000000000000000000000000602082015250565b600061215a602f836119b5565b9150612165826120fe565b604082019050919050565b600060208201905081810360008301526121898161214d565b9050919050565b600080fd5b600080fd5b6000815190506121a98161167c565b92915050565b60006121c26121bd8461173e565b611723565b9050828152602081018484840111156121de576121dd6116ad565b5b6121e98482856119c6565b509392505050565b600082601f830112612206576122056116a8565b5b81516122168482602086016121af565b91505092915050565b61222881611511565b811461223357600080fd5b50565b6000815190506122458161221f565b92915050565b60008151905061225a81611606565b92915050565b6000610160828403121561227757612276612190565b5b612282610160611723565b905060006122928482850161219a565b600083015250602082015167ffffffffffffffff8111156122b6576122b5612195565b5b6122c2848285016121f1565b602083015250604082015167ffffffffffffffff8111156122e6576122e5612195565b5b6122f2848285016121f1565b604083015250606082015167ffffffffffffffff81111561231657612315612195565b5b612322848285016121f1565b60608301525060806123368482850161219a565b60808301525060a061234a8482850161219a565b60a08301525060c061235e84828501612236565b60c08301525060e06123728482850161219a565b60e0830152506101006123878482850161219a565b6101008301525061012061239d84828501612236565b610120830152506101406123b38482850161224b565b6101408301525092915050565b6000602082840312156123d6576123d5611482565b5b600082015167ffffffffffffffff8111156123f4576123f3611487565b5b61240084828501612260565b91505092915050565b600061012082840312156124205761241f612190565b5b61242b610120611723565b9050600061243b8482850161219a565b600083015250602061244f8482850161219a565b60208301525060406124638482850161219a565b60408301525060606124778482850161224b565b606083015250608061248b8482850161224b565b60808301525060a061249f8482850161219a565b60a08301525060c082015167ffffffffffffffff8111156124c3576124c2612195565b5b6124cf848285016121f1565b60c08301525060e06124e38482850161219a565b60e0830152506101006124f884828501612236565b6101008301525092915050565b60006020828403121561251b5761251a611482565b5b600082015167ffffffffffffffff81111561253957612538611487565b5b61254584828501612409565b91505092915050565b7f4e487b7100000000000000000000000000000000000000000000000000000000600052601160045260246000fd5b600061258882611672565b91507fffffffffffffffffffffffffffffffffffffffffffffffffffffffffffffffff82036125ba576125b961254e565b5b600182019050919050565b60006040820190506125da600083018561188a565b81810360208301526125ec81846119f0565b90509392505050565b600081905092915050565b7f416363657373436f6e74726f6c3a206163636f756e7420000000000000000000600082015250565b60006126366017836125f5565b915061264182612600565b601782019050919050565b6000612657826119aa565b61266181856125f5565b93506126718185602086016119c6565b80840191505092915050565b7f206973206d697373696e6720726f6c6520000000000000000000000000000000600082015250565b60006126b36011836125f5565b91506126be8261267d565b601182019050919050565b60006126d482612629565b91506126e0828561264c565b91506126eb826126a6565b91506126f7828461264c565b91508190509392505050565b600061270e82611672565b915061271983611672565b925082820261272781611672565b9150828204841483151761273e5761273d61254e565b5b5092915050565b600061275082611672565b915061275b83611672565b92508282019050808211156127735761277261254e565b5b92915050565b600061278482611672565b9150600082036127975761279661254e565b5b600182039050919050565b7f537472696e67733a20686578206c656e67746820696e73756666696369656e74600082015250565b60006127d86020836119b5565b91506127e3826127a2565b602082019050919050565b60006020820190508181036000830152612807816127cb565b905091905056fea264697066735822122079f789e64e720d5ae3fa7b31c1b3bb3547fa2aa8485ceb6dd176b104fe9bc5aa64736f6c63430008130033",
  "linkReferences": {},
  "deployedLinkReferences": {}
}