{
  "_format": "hh-sol-artifact-1",
  "contractName": "SupplyChain",
  "sourceName": "contracts/SupplyChain.sol",
  "abi": [
    {
      "inputs": [
        {
          "internalType": "address",
          "name": "_drugRegistry",
          "type": "address"
        }
      ],
      "stateMutability": "nonpayable",
      "type": "constructor"
    },
    {
      "anonymous": false,
      "inputs": [
        {
          "indexed": true,
          "internalType": "uint256",
          "name": "batchId",
          "type": "uint256"
        },
        {
          "indexed": true,
          "internalType": "uint256",
          "name": "drugId",
          "type": "uint256"
        },
        {
          "indexed": false,
          "internalType": "uint256",
          "name": "quantity",
          "type": "uint256"
        },
        {
          "indexed": true,
          "internalType": "address",
          "name": "manufacturer",
          "type": "address"
        }
      ],
      "name": "BatchCreated",
      "type": "event"
    },
    {
      "anonymous": false,
      "inputs": [
        {
          "indexed": true,
          "internalType": "uint256",
          "name": "batchId",
          "type": "uint256"
        },
        {
          "indexed": true,
          "internalType": "address",
          "name": "from",
          "type": "address"
        },
        {
          "indexed": true,
          "internalType": "address",
          "name": "to",
          "type": "address"
        }
      ],
      "name": "BatchTransferred",
      "type": "event"
    },
    {
      "anonymous": false,
      "inputs": [
        {
          "indexed": true,
          "internalType": "bytes32",
          "name": "role",
          "type": "bytes32"
        },
        {
          "indexed": true,
          "internalType": "bytes32",
          "name": "previousAdminRole",
          "type": "bytes32"
        },
        {
          "indexed": true,
          "internalType": "bytes32",
          "name": "newAdminRole",
          "type": "bytes32"
        }
      ],
      "name": "RoleAdminChanged",
      "type": "event"
    },
    {
      "anonymous": false,
      "inputs": [
        {
          "indexed": true,
          "internalType": "bytes32",
          "name": "role",
          "type": "bytes32"
        },
        {
          "indexed": true,
          "internalType": "address",
          "name": "account",
          "type": "address"
        },
        {
          "indexed": true,
          "internalType": "address",
          "name": "sender",
          "type": "address"
        }
      ],
      "name": "RoleGranted",
      "type": "event"
    },
    {
      "anonymous": false,
      "inputs": [
        {
          "indexed": true,
          "internalType": "bytes32",
          "name": "role",
          "type": "bytes32"
        },
        {
          "indexed": true,
          "internalType": "address",
          "name": "account",
          "type": "address"
        },
        {
          "indexed": true,
          "internalType": "address",
          "name": "sender",
          "type": "address"
        }
      ],
      "name": "RoleRevoked",
      "type": "event"
    },
    {
      "anonymous": false,
      "inputs": [
        {
          "indexed": true,
          "internalType": "uint256",
          "name": "batchId",
          "type": "uint256"
        },
        {
          "indexed": false,
          "internalType": "uint256",
          "name": "temperature",
          "type": "uint256"
        },
        {
          "indexed": false,
          "internalType": "string",
          "name": "location",
          "type": "string"
        }
      ],
      "name": "TemperatureUpdated",
      "type": "event"
    },
    {
      "inputs": [],
      "name": "DEFAULT_ADMIN_ROLE",
      "outputs": [
        {
          "internalType": "bytes32",
          "name": "",
          "type": "bytes32"
        }
      ],
      "stateMutability": "view",
      "type": "function"
    },
    {
      "inputs": [
        {
          "internalType": "uint256",
          "name": "",
          "type": "uint256"
        }
      ],
      "name": "batchCount",
      "outputs": [
        {
          "internalType": "uint256",
          "name": "",
          "type": "uint256"
        }
      ],
      "stateMutability": "view",
      "type": "function"
    },
    {
      "inputs": [
        {
          "internalType": "uint256",
          "name": "",
          "type": "uint256"
        }
      ],
      "name": "batches",
      "outputs": [
        {
          "internalType": "uint256",
          "name": "id",
          "type": "uint256"
        },
        {
          "internalType": "uint256",
          "name": "drugId",
          "type": "uint256"
        },
        {
          "internalType": "uint256",
          "name": "quantity",
          "type": "uint256"
        },
        {
          "internalType": "address",
          "name": "manufacturer",
          "type": "address"
        },
        {
          "internalType": "address",
          "name": "currentHolder",
          "type": "address"
        },
        {
          "internalType": "uint256",
          "name": "timestamp",
          "type": "uint256"
        },
        {
          "internalType": "string",
          "name": "location",
          "type": "string"
        },
        {
          "internalType": "uint256",
          "name": "temperature",
          "type": "uint256"
        },
        {
          "internalType": "bool",
          "name": "isActive",
          "type": "bool"
        }
      ],
      "stateMutability": "view",
      "type": "function"
    },
    {
      "inputs": [
        {
          "internalType": "uint256",
          "name": "_drugId",
          "type": "uint256"
        },
        {
          "internalType": "uint256",
          "name": "_quantity",
          "type": "uint256"
        },
        {
          "internalType": "string",
          "name": "_location",
          "type": "string"
        }
      ],
      "name": "createBatch",
      "outputs": [
        {
          "internalType": "uint256",
          "name": "",
          "type": "uint256"
        }
      ],
      "stateMutability": "nonpayable",
      "type": "function"
    },
    {
      "inputs": [],
      "name": "drugRegistry",
      "outputs": [
        {
          "internalType": "contract DrugRegistry",
          "name": "",
          "type": "address"
        }
      ],
      "stateMutability": "view",
      "type": "function"
    },
    {
      "inputs": [
        {
          "internalType": "uint256",
          "name": "_batchId",
          "type": "uint256"
        }
      ],
      "name": "getBatch",
      "outputs": [
        {
          "components": [
            {
              "internalType": "uint256",
              "name": "id",
              "type": "uint256"
            },
            {
              "internalType": "uint256",
              "name": "drugId",
              "type": "uint256"
            },
            {
              "internalType": "uint256",
              "name": "quantity",
              "type": "uint256"
            },
            {
              "internalType": "address",
              "name": "manufacturer",
              "type": "address"
            },
            {
              "internalType": "address",
              "name": "currentHolder",
              "type": "address"
            },
            {
              "internalType": "uint256",
              "name": "timestamp",
              "type": "uint256"
            },
            {
              "internalType": "string",
              "name": "location",
              "type": "string"
            },
            {
              "internalType": "uint256",
              "name": "temperature",
              "type": "uint256"
            },
            {
              "internalType": "bool",
              "name": "isActive",
              "type": "bool"
            }
          ],
          "internalType": "struct SupplyChain.Batch",
          "name": "",
          "type": "tuple"
        }
      ],
      "stateMutability": "view",
      "type": "function"
    },
    {
      "inputs": [
        {
          "internalType": "uint256",
          "name": "_drugId",
          "type": "uint256"
        }
      ],
      "name": "getBatchCount",
      "outputs": [
        {
          "internalType": "uint256",
          "name": "",
          "type": "uint256"
        }
      ],
      "stateMutability": "view",
      "type": "function"
    },
    {
      "inputs": [
        {
          "internalType": "bytes32",
          "name": "role",
          "type": "bytes32"
        }
      ],
      "name": "getRoleAdmin",
      "outputs": [
        {
          "internalType": "bytes32",
          "name": "",
          "type": "bytes32"
        }
      ],
      "stateMutability": "view",
      "type": "function"
    },
    {
      "inputs": [
        {
          "internalType": "uint256",
          "name": "_batchId",
          "type": "uint256"
        }
      ],
      "name": "getTransferHistory",
      "outputs": [
        {
          "components": [
            {
              "internalType": "uint256",
              "name": "batchId",
              "type": "uint256"
            },
            {
              "internalType": "address",
              "name": "from",
              "type": "address"
            },
            {
              "internalType": "address",
              "name": "to",
              "type": "address"
            },
            {
              "internalType": "uint256",
              "name": "timestamp",
              "type": "uint256"
            },
            {
              "internalType": "string",
              "name": "location",
              "type": "string"
            },
            {
              "internalType": "uint256",
              "name": "temperature",
              "type": "uint256"
            }
          ],
          "internalType": "struct SupplyChain.Transfer[]",
          "name": "",
          "type": "tuple[]"
        }
      ],
      "stateMutability": "view",
      "type": "function"
    },
    {
      "inputs": [
        {
          "internalType": "bytes32",
          "name": "role",
          "type": "bytes32"
        },
        {
          "internalType": "address",
          "name": "account",
          "type": "address"
        }
      ],
      "name": "grantRole",
      "outputs": [],
      "stateMutability": "nonpayable",
      "type": "function"
    },
    {
      "inputs": [
        {
          "internalType": "bytes32",
          "name": "role",
          "type": "bytes32"
        },
        {
          "internalType": "address",
          "name": "account",
          "type": "address"
        }
      ],
      "name": "hasRole",
      "outputs": [
        {
          "internalType": "bool",
          "name": "",
          "type": "bool"
        }
      ],
      "stateMutability": "view",
      "type": "function"
    },
    {
      "inputs": [
        {
          "internalType": "bytes32",
          "name": "role",
          "type": "bytes32"
        },
        {
          "internalType": "address",
          "name": "account",
          "type": "address"
        }
      ],
      "name": "renounceRole",
      "outputs": [],
      "stateMutability": "nonpayable",
      "type": "function"
    },
    {
      "inputs": [
        {
          "internalType": "bytes32",
          "name": "role",
          "type": "bytes32"
        },
        {
          "internalType": "address",
          "name": "account",
          "type": "address"
        }
      ],
      "name": "revokeRole",
      "outputs": [],
      "stateMutability": "nonpayable",
      "type": "function"
    },
    {
      "inputs": [
        {
          "internalType": "bytes4",
          "name": "interfaceId",
          "type": "bytes4"
        }
      ],
      "name": "supportsInterface",
      "outputs": [
        {
          "internalType": "bool",
          "name": "",
          "type": "bool"
        }
      ],
      "stateMutability": "view",
      "type": "function"
    },
    {
      "inputs": [
        {
          "internalType": "uint256",
          "name": "_batchId",
          "type": "uint256"
        },
        {
          "internalType": "address",
          "name": "_to",
          "type": "address"
        },
        {
          "internalType": "string",
          "name": "_location",
          "type": "string"
        },
        {
          "internalType": "uint256",
          "name": "_temperature",
          "type": "uint256"
        }
      ],
      "name": "transferBatch",
      "outputs": [],
      "stateMutability": "nonpayable",
      "type": "function"
    },
    {
      "inputs": [
        {
          "internalType": "uint256",
          "name": "",
          "type": "uint256"
        },
        {
          "internalType": "uint256",
          "name": "",
          "type": "uint256"
        }
      ],
      "name": "transferHistory",
      "outputs": [
        {
          "internalType": "uint256",
          "name": "batchId",
          "type": "uint256"
        },
        {
          "internalType": "address",
          "name": "from",
          "type": "address"
        },
        {
          "internalType": "address",
          "name": "to",
          "type": "address"
        },
        {
          "internalType": "uint256",
          "name": "timestamp",
          "type": "uint256"
        },
        {
          "internalType": "string",
          "name": "location",
          "type": "string"
        },
        {
          "internalType": "uint256",
          "name": "temperature",
          "type": "uint256"
        }
      ],
      "stateMutability": "view",
      "type": "function"
    },
    {
      "inputs": [
        {
          "internalType": "uint256",
          "name": "_batchId",
          "type": "uint256"
        },
        {
          "internalType": "uint256",
          "name": "_temperature",
          "type": "uint256"
        },
        {
          "internalType": "string",
          "name": "_location",
          "type": "string"
        }
      ],
      "name": "updateTemperature",
      "outputs": [],
      "stateMutability": "nonpayable",
      "type": "function"
    }
  ],
  "bytecode": "0x60806040523480156200001157600080fd5b5060405162002fb638038062002fb6833981810160405281019062000037919062000261565b80600260006101000a81548173ffffffffffffffffffffffffffffffffffffffff021916908373ffffffffffffffffffffffffffffffffffffffff1602179055506200008d6000801b336200009460201b60201c565b5062000293565b620000a682826200018560201b60201c565b6200018157600160008084815260200190815260200160002060000160008373ffffffffffffffffffffffffffffffffffffffff1673ffffffffffffffffffffffffffffffffffffffff16815260200190815260200160002060006101000a81548160ff02191690831515021790555062000126620001ef60201b60201c565b73ffffffffffffffffffffffffffffffffffffffff168173ffffffffffffffffffffffffffffffffffffffff16837f2f8788117e7eff1d82e926ec794901d17c78024a50270940304540a733656f0d60405160405180910390a45b5050565b600080600084815260200190815260200160002060000160008373ffffffffffffffffffffffffffffffffffffffff1673ffffffffffffffffffffffffffffffffffffffff16815260200190815260200160002060009054906101000a900460ff16905092915050565b600033905090565b600080fd5b600073ffffffffffffffffffffffffffffffffffffffff82169050919050565b60006200022982620001fc565b9050919050565b6200023b816200021c565b81146200024757600080fd5b50565b6000815190506200025b8162000230565b92915050565b6000602082840312156200027a5762000279620001f7565b5b60006200028a848285016200024a565b91505092915050565b612d1380620002a36000396000f3fe608060405234801561001057600080fd5b506004361061010b5760003560e01c806391d14854116100a2578063bddfdcec11610071578063bddfdcec1461030a578063c3f3ac6014610328578063ce4c433b14610344578063d547741f14610374578063dedaff54146103905761010b565b806391d14854146102545780639c8ff25e14610284578063a217fddf146102b4578063b32c4d8d146102d25761010b565b806336568abe116100de57806336568abe146101bc5780635ac44282146101d857806360464a74146102085780638bb27d02146102245761010b565b806301ffc9a7146101105780631d5e600414610140578063248a9ca3146101705780632f2ff15d146101a0575b600080fd5b61012a60048036038101906101259190611ae8565b6103c5565b6040516101379190611b30565b60405180910390f35b61015a60048036038101906101559190611b81565b61043f565b6040516101679190611bbd565b60405180910390f35b61018a60048036038101906101859190611c0e565b610457565b6040516101979190611c4a565b60405180910390f35b6101ba60048036038101906101b59190611cc3565b610476565b005b6101d660048036038101906101d19190611cc3565b610497565b005b6101f260048036038101906101ed9190611b81565b61051a565b6040516101ff9190611e85565b60405180910390f35b610222600480360381019061021d9190611fdc565b61072b565b005b61023e60048036038101906102399190611b81565b610b48565b60405161024b91906121aa565b60405180910390f35b61026e60048036038101906102699190611cc3565b610d6e565b60405161027b9190611b30565b60405180910390f35b61029e600480360381019061029991906121cc565b610dd8565b6040516102ab9190611bbd565b60405180910390f35b6102bc611044565b6040516102c99190611c4a565b60405180910390f35b6102ec60048036038101906102e79190611b81565b61104b565b60405161030199989796959493929190612294565b60405180910390f35b61031261116e565b60405161031f9190612387565b60405180910390f35b610342600480360381019061033d91906121cc565b611194565b005b61035e60048036038101906103599190611b81565b61134a565b60405161036b9190611bbd565b60405180910390f35b61038e60048036038101906103899190611cc3565b611367565b005b6103aa60048036038101906103a591906123a2565b611388565b6040516103bc969594939291906123e2565b60405180910390f35b60007f7965db0b000000000000000000000000000000000000000000000000000000007bffffffffffffffffffffffffffffffffffffffffffffffffffffffff1916827bffffffffffffffffffffffffffffffffffffffffffffffffffffffff191614806104385750610437826114a9565b5b9050919050565b60056020528060005260406000206000915090505481565b6000806000838152602001908152602001600020600101549050919050565b61047f82610457565b61048881611513565b6104928383611527565b505050565b61049f611607565b73ffffffffffffffffffffffffffffffffffffffff168173ffffffffffffffffffffffffffffffffffffffff161461050c576040517f08c379a0000000000000000000000000000000000000000000000000000000008152600401610503906124bc565b60405180910390fd5b610516828261160f565b5050565b610522611a02565b60008211801561053b575061053760016116f0565b8211155b61057a576040517f08c379a000000000000000000000000000000000000000000000000000000000815260040161057190612528565b60405180910390fd5b60036000838152602001908152602001600020604051806101200160405290816000820154815260200160018201548152602001600282015481526020016003820160009054906101000a900473ffffffffffffffffffffffffffffffffffffffff1673ffffffffffffffffffffffffffffffffffffffff1673ffffffffffffffffffffffffffffffffffffffff1681526020016004820160009054906101000a900473ffffffffffffffffffffffffffffffffffffffff1673ffffffffffffffffffffffffffffffffffffffff1673ffffffffffffffffffffffffffffffffffffffff1681526020016005820154815260200160068201805461067d90612577565b80601f01602080910402602001604051908101604052809291908181526020018280546106a990612577565b80156106f65780601f106106cb576101008083540402835291602001916106f6565b820191906000526020600020905b8154815290600101906020018083116106d957829003601f168201915b50505050508152602001600782015481526020016008820160009054906101000a900460ff1615151515815250509050919050565b600084118015610744575061074060016116f0565b8411155b610783576040517f08c379a000000000000000000000000000000000000000000000000000000000815260040161077a90612528565b60405180910390fd5b600073ffffffffffffffffffffffffffffffffffffffff168373ffffffffffffffffffffffffffffffffffffffff16036107f2576040517f08c379a00000000000000000000000000000000000000000000000000000000081526004016107e9906125f4565b60405180910390fd5b60006003600086815260200190815260200160002090508060080160009054906101000a900460ff1661085a576040517f08c379a000000000000000000000000000000000000000000000000000000000815260040161085190612660565b60405180910390fd5b3373ffffffffffffffffffffffffffffffffffffffff168160040160009054906101000a900473ffffffffffffffffffffffffffffffffffffffff1673ffffffffffffffffffffffffffffffffffffffff16146108ec576040517f08c379a00000000000000000000000000000000000000000000000000000000081526004016108e3906126cc565b60405180910390fd5b838160040160006101000a81548173ffffffffffffffffffffffffffffffffffffffff021916908373ffffffffffffffffffffffffffffffffffffffff16021790555042816005018190555082816006019081610949919061288e565b50818160070181905550600460008681526020019081526020016000206040518060c001604052808781526020013373ffffffffffffffffffffffffffffffffffffffff1681526020018673ffffffffffffffffffffffffffffffffffffffff1681526020014281526020018581526020018481525090806001815401808255809150506001900390600052602060002090600602016000909190919091506000820151816000015560208201518160010160006101000a81548173ffffffffffffffffffffffffffffffffffffffff021916908373ffffffffffffffffffffffffffffffffffffffff16021790555060408201518160020160006101000a81548173ffffffffffffffffffffffffffffffffffffffff021916908373ffffffffffffffffffffffffffffffffffffffff160217905550606082015181600301556080820151816004019081610a9f919061288e565b5060a0820151816005015550508373ffffffffffffffffffffffffffffffffffffffff163373ffffffffffffffffffffffffffffffffffffffff16867fb9f31d1b8db0327a09cde76de6662ee23a4ecd72fbb0411cdfa7969fed7abe4460405160405180910390a4847fef750e0c70086c3fab33f4ed437f7952f2e6f0115dee0d4d08f6ebdec908b6a28385604051610b39929190612960565b60405180910390a25050505050565b6060600082118015610b635750610b5f60016116f0565b8211155b610ba2576040517f08c379a0000000000000000000000000000000000000000000000000000000008152600401610b9990612528565b60405180910390fd5b60046000838152602001908152602001600020805480602002602001604051908101604052809291908181526020016000905b82821015610d6357838290600052602060002090600602016040518060c0016040529081600082015481526020016001820160009054906101000a900473ffffffffffffffffffffffffffffffffffffffff1673ffffffffffffffffffffffffffffffffffffffff1673ffffffffffffffffffffffffffffffffffffffff1681526020016002820160009054906101000a900473ffffffffffffffffffffffffffffffffffffffff1673ffffffffffffffffffffffffffffffffffffffff1673ffffffffffffffffffffffffffffffffffffffff16815260200160038201548152602001600482018054610cc890612577565b80601f0160208091040260200160405190810160405280929190818152602001828054610cf490612577565b8015610d415780601f10610d1657610100808354040283529160200191610d41565b820191906000526020600020905b815481529060010190602001808311610d2457829003601f168201915b5050505050815260200160058201548152505081526020019060010190610bd5565b505050509050919050565b600080600084815260200190815260200160002060000160008373ffffffffffffffffffffffffffffffffffffffff1673ffffffffffffffffffffffffffffffffffffffff16815260200190815260200160002060009054906101000a900460ff16905092915050565b60008060001b610de781611513565b60008411610e2a576040517f08c379a0000000000000000000000000000000000000000000000000000000008152600401610e21906129dc565b60405180910390fd5b610e3460016116fe565b6000610e4060016116f0565b90506040518061012001604052808281526020018781526020018681526020013373ffffffffffffffffffffffffffffffffffffffff1681526020013373ffffffffffffffffffffffffffffffffffffffff16815260200142815260200185815260200160008152602001600115158152506003600083815260200190815260200160002060008201518160000155602082015181600101556040820151816002015560608201518160030160006101000a81548173ffffffffffffffffffffffffffffffffffffffff021916908373ffffffffffffffffffffffffffffffffffffffff16021790555060808201518160040160006101000a81548173ffffffffffffffffffffffffffffffffffffffff021916908373ffffffffffffffffffffffffffffffffffffffff16021790555060a0820151816005015560c0820151816006019081610f90919061288e565b5060e082015181600701556101008201518160080160006101000a81548160ff021916908315150217905550905050600560008781526020019081526020016000206000815480929190610fe390612a2b565b91905055503373ffffffffffffffffffffffffffffffffffffffff1686827fb0276a592797313569cc2281fc9ebe219d41e85d21372111d56185efd5f3ad6a886040516110309190611bbd565b60405180910390a480925050509392505050565b6000801b81565b60036020528060005260406000206000915090508060000154908060010154908060020154908060030160009054906101000a900473ffffffffffffffffffffffffffffffffffffffff16908060040160009054906101000a900473ffffffffffffffffffffffffffffffffffffffff16908060050154908060060180546110d290612577565b80601f01602080910402602001604051908101604052809291908181526020018280546110fe90612577565b801561114b5780601f106111205761010080835404028352916020019161114b565b820191906000526020600020905b81548152906001019060200180831161112e57829003601f168201915b5050505050908060070154908060080160009054906101000a900460ff16905089565b600260009054906101000a900473ffffffffffffffffffffffffffffffffffffffff1681565b6000831180156111ad57506111a960016116f0565b8311155b6111ec576040517f08c379a00000000000000000000000000000000000000000000000000000000081526004016111e390612528565b60405180910390fd5b60006003600085815260200190815260200160002090508060080160009054906101000a900460ff16611254576040517f08c379a000000000000000000000000000000000000000000000000000000000815260040161124b90612660565b60405180910390fd5b3373ffffffffffffffffffffffffffffffffffffffff168160040160009054906101000a900473ffffffffffffffffffffffffffffffffffffffff1673ffffffffffffffffffffffffffffffffffffffff16146112e6576040517f08c379a00000000000000000000000000000000000000000000000000000000081526004016112dd906126cc565b60405180910390fd5b82816007018190555081816006019081611300919061288e565b50428160050181905550837fef750e0c70086c3fab33f4ed437f7952f2e6f0115dee0d4d08f6ebdec908b6a2848460405161133c929190612960565b60405180910390a250505050565b600060056000838152602001908152602001600020549050919050565b61137082610457565b61137981611513565b611383838361160f565b505050565b600460205281600052604060002081815481106113a457600080fd5b9060005260206000209060060201600091509150508060000154908060010160009054906101000a900473ffffffffffffffffffffffffffffffffffffffff16908060020160009054906101000a900473ffffffffffffffffffffffffffffffffffffffff169080600301549080600401805461142090612577565b80601f016020809104026020016040519081016040528092919081815260200182805461144c90612577565b80156114995780601f1061146e57610100808354040283529160200191611499565b820191906000526020600020905b81548152906001019060200180831161147c57829003601f168201915b5050505050908060050154905086565b60007f01ffc9a7000000000000000000000000000000000000000000000000000000007bffffffffffffffffffffffffffffffffffffffffffffffffffffffff1916827bffffffffffffffffffffffffffffffffffffffffffffffffffffffff1916149050919050565b6115248161151f611607565b611714565b50565b6115318282610d6e565b61160357600160008084815260200190815260200160002060000160008373ffffffffffffffffffffffffffffffffffffffff1673ffffffffffffffffffffffffffffffffffffffff16815260200190815260200160002060006101000a81548160ff0219169083151502179055506115a8611607565b73ffffffffffffffffffffffffffffffffffffffff168173ffffffffffffffffffffffffffffffffffffffff16837f2f8788117e7eff1d82e926ec794901d17c78024a50270940304540a733656f0d60405160405180910390a45b5050565b600033905090565b6116198282610d6e565b156116ec57600080600084815260200190815260200160002060000160008373ffffffffffffffffffffffffffffffffffffffff1673ffffffffffffffffffffffffffffffffffffffff16815260200190815260200160002060006101000a81548160ff021916908315150217905550611691611607565b73ffffffffffffffffffffffffffffffffffffffff168173ffffffffffffffffffffffffffffffffffffffff16837ff6391f5c32d9c69d2a47ea670b442974b53935d1edc7fd64eb21e047a839171b60405160405180910390a45b5050565b600081600001549050919050565b6001816000016000828254019250508190555050565b61171e8282610d6e565b6117955761172b81611799565b6117398360001c60206117c6565b60405160200161174a929190612b47565b6040516020818303038152906040526040517f08c379a000000000000000000000000000000000000000000000000000000000815260040161178c9190612b81565b60405180910390fd5b5050565b60606117bf8273ffffffffffffffffffffffffffffffffffffffff16601460ff166117c6565b9050919050565b6060600060028360026117d99190612ba3565b6117e39190612be5565b67ffffffffffffffff8111156117fc576117fb611eb1565b5b6040519080825280601f01601f19166020018201604052801561182e5781602001600182028036833780820191505090505b5090507f30000000000000000000000000000000000000000000000000000000000000008160008151811061186657611865612c19565b5b60200101907effffffffffffffffffffffffffffffffffffffffffffffffffffffffffffff1916908160001a9053507f7800000000000000000000000000000000000000000000000000000000000000816001815181106118ca576118c9612c19565b5b60200101907effffffffffffffffffffffffffffffffffffffffffffffffffffffffffffff1916908160001a9053506000600184600261190a9190612ba3565b6119149190612be5565b90505b60018111156119b4577f3031323334353637383961626364656600000000000000000000000000000000600f86166010811061195657611955612c19565b5b1a60f81b82828151811061196d5761196c612c19565b5b60200101907effffffffffffffffffffffffffffffffffffffffffffffffffffffffffffff1916908160001a905350600485901c9450806119ad90612c48565b9050611917565b50600084146119f8576040517f08c379a00000000000000000000000000000000000000000000000000000000081526004016119ef90612cbd565b60405180910390fd5b8091505092915050565b604051806101200160405280600081526020016000815260200160008152602001600073ffffffffffffffffffffffffffffffffffffffff168152602001600073ffffffffffffffffffffffffffffffffffffffff1681526020016000815260200160608152602001600081526020016000151581525090565b6000604051905090565b600080fd5b600080fd5b60007fffffffff0000000000000000000000000000000000000000000000000000000082169050919050565b611ac581611a90565b8114611ad057600080fd5b50565b600081359050611ae281611abc565b92915050565b600060208284031215611afe57611afd611a86565b5b6000611b0c84828501611ad3565b91505092915050565b60008115159050919050565b611b2a81611b15565b82525050565b6000602082019050611b456000830184611b21565b92915050565b6000819050919050565b611b5e81611b4b565b8114611b6957600080fd5b50565b600081359050611b7b81611b55565b92915050565b600060208284031215611b9757611b96611a86565b5b6000611ba584828501611b6c565b91505092915050565b611bb781611b4b565b82525050565b6000602082019050611bd26000830184611bae565b92915050565b6000819050919050565b611beb81611bd8565b8114611bf657600080fd5b50565b600081359050611c0881611be2565b92915050565b600060208284031215611c2457611c23611a86565b5b6000611c3284828501611bf9565b91505092915050565b611c4481611bd8565b82525050565b6000602082019050611c5f6000830184611c3b565b92915050565b600073ffffffffffffffffffffffffffffffffffffffff82169050919050565b6000611c9082611c65565b9050919050565b611ca081611c85565b8114611cab57600080fd5b50565b600081359050611cbd81611c97565b92915050565b60008060408385031215611cda57611cd9611a86565b5b6000611ce885828601611bf9565b9250506020611cf985828601611cae565b9150509250929050565b611d0c81611b4b565b82525050565b611d1b81611c85565b82525050565b600081519050919050565b600082825260208201905092915050565b60005b83811015611d5b578082015181840152602081019050611d40565b60008484015250505050565b6000601f19601f8301169050919050565b6000611d8382611d21565b611d8d8185611d2c565b9350611d9d818560208601611d3d565b611da681611d67565b840191505092915050565b611dba81611b15565b82525050565b600061012083016000830151611dd96000860182611d03565b506020830151611dec6020860182611d03565b506040830151611dff6040860182611d03565b506060830151611e126060860182611d12565b506080830151611e256080860182611d12565b5060a0830151611e3860a0860182611d03565b5060c083015184820360c0860152611e508282611d78565b91505060e0830151611e6560e0860182611d03565b50610100830151611e7a610100860182611db1565b508091505092915050565b60006020820190508181036000830152611e9f8184611dc0565b905092915050565b600080fd5b600080fd5b7f4e487b7100000000000000000000000000000000000000000000000000000000600052604160045260246000fd5b611ee982611d67565b810181811067ffffffffffffffff82111715611f0857611f07611eb1565b5b80604052505050565b6000611f1b611a7c565b9050611f278282611ee0565b919050565b600067ffffffffffffffff821115611f4757611f46611eb1565b5b611f5082611d67565b9050602081019050919050565b82818337600083830152505050565b6000611f7f611f7a84611f2c565b611f11565b905082815260208101848484011115611f9b57611f9a611eac565b5b611fa6848285611f5d565b509392505050565b600082601f830112611fc357611fc2611ea7565b5b8135611fd3848260208601611f6c565b91505092915050565b60008060008060808587031215611ff657611ff5611a86565b5b600061200487828801611b6c565b945050602061201587828801611cae565b935050604085013567ffffffffffffffff81111561203657612035611a8b565b5b61204287828801611fae565b925050606061205387828801611b6c565b91505092959194509250565b600081519050919050565b600082825260208201905092915050565b6000819050602082019050919050565b600060c0830160008301516120a36000860182611d03565b5060208301516120b66020860182611d12565b5060408301516120c96040860182611d12565b5060608301516120dc6060860182611d03565b50608083015184820360808601526120f48282611d78565b91505060a083015161210960a0860182611d03565b508091505092915050565b6000612120838361208b565b905092915050565b6000602082019050919050565b60006121408261205f565b61214a818561206a565b93508360208202850161215c8561207b565b8060005b8581101561219857848403895281516121798582612114565b945061218483612128565b925060208a01995050600181019050612160565b50829750879550505050505092915050565b600060208201905081810360008301526121c48184612135565b905092915050565b6000806000606084860312156121e5576121e4611a86565b5b60006121f386828701611b6c565b935050602061220486828701611b6c565b925050604084013567ffffffffffffffff81111561222557612224611a8b565b5b61223186828701611fae565b9150509250925092565b61224481611c85565b82525050565b600082825260208201905092915050565b600061226682611d21565b612270818561224a565b9350612280818560208601611d3d565b61228981611d67565b840191505092915050565b6000610120820190506122aa600083018c611bae565b6122b7602083018b611bae565b6122c4604083018a611bae565b6122d1606083018961223b565b6122de608083018861223b565b6122eb60a0830187611bae565b81810360c08301526122fd818661225b565b905061230c60e0830185611bae565b61231a610100830184611b21565b9a9950505050505050505050565b6000819050919050565b600061234d61234861234384611c65565b612328565b611c65565b9050919050565b600061235f82612332565b9050919050565b600061237182612354565b9050919050565b61238181612366565b82525050565b600060208201905061239c6000830184612378565b92915050565b600080604083850312156123b9576123b8611a86565b5b60006123c785828601611b6c565b92505060206123d885828601611b6c565b9150509250929050565b600060c0820190506123f76000830189611bae565b612404602083018861223b565b612411604083018761223b565b61241e6060830186611bae565b8181036080830152612430818561225b565b905061243f60a0830184611bae565b979650505050505050565b7f416363657373436f6e74726f6c3a2063616e206f6e6c792072656e6f756e636560008201527f20726f6c657320666f722073656c660000000000000000000000000000000000602082015250565b60006124a6602f8361224a565b91506124b18261244a565b604082019050919050565b600060208201905081810360008301526124d581612499565b9050919050565b7f496e76616c696420626174636820494400000000000000000000000000000000600082015250565b600061251260108361224a565b915061251d826124dc565b602082019050919050565b6000602082019050818103600083015261254181612505565b9050919050565b7f4e487b7100000000000000000000000000000000000000000000000000000000600052602260045260246000fd5b6000600282049050600182168061258f57607f821691505b6020821081036125a2576125a1612548565b5b50919050565b7f496e76616c696420726563697069656e74206164647265737300000000000000600082015250565b60006125de60198361224a565b91506125e9826125a8565b602082019050919050565b6000602082019050818103600083015261260d816125d1565b9050919050565b7f4261746368206973206e6f742061637469766500000000000000000000000000600082015250565b600061264a60138361224a565b915061265582612614565b602082019050919050565b600060208201905081810360008301526126798161263d565b9050919050565b7f4e6f74207468652063757272656e7420686f6c64657200000000000000000000600082015250565b60006126b660168361224a565b91506126c182612680565b602082019050919050565b600060208201905081810360008301526126e5816126a9565b9050919050565b60008190508160005260206000209050919050565b60006020601f8301049050919050565b600082821b905092915050565b60006008830261274e7fffffffffffffffffffffffffffffffffffffffffffffffffffffffffffffffff82612711565b6127588683612711565b95508019841693508086168417925050509392505050565b600061278b61278661278184611b4b565b612328565b611b4b565b9050919050565b6000819050919050565b6127a583612770565b6127b96127b182612792565b84845461271e565b825550505050565b600090565b6127ce6127c1565b6127d981848461279c565b505050565b5b818110156127fd576127f26000826127c6565b6001810190506127df565b5050565b601f82111561284257612813816126ec565b61281c84612701565b8101602085101561282b578190505b61283f61283785612701565b8301826127de565b50505b505050565b600082821c905092915050565b600061286560001984600802612847565b1980831691505092915050565b600061287e8383612854565b9150826002028217905092915050565b61289782611d21565b67ffffffffffffffff8111156128b0576128af611eb1565b5b6128ba8254612577565b6128c5828285612801565b600060209050601f8311600181146128f857600084156128e6578287015190505b6128f08582612872565b865550612958565b601f198416612906866126ec565b60005b8281101561292e57848901518255600182019150602085019450602081019050612909565b8683101561294b5784890151612947601f891682612854565b8355505b6001600288020188555050505b505050505050565b60006040820190506129756000830185611bae565b8181036020830152612987818461225b565b90509392505050565b7f5175616e74697479206d7573742062652067726561746572207468616e203000600082015250565b60006129c6601f8361224a565b91506129d182612990565b602082019050919050565b600060208201905081810360008301526129f5816129b9565b9050919050565b7f4e487b7100000000000000000000000000000000000000000000000000000000600052601160045260246000fd5b6000612a3682611b4b565b91507fffffffffffffffffffffffffffffffffffffffffffffffffffffffffffffffff8203612a6857612a676129fc565b5b600182019050919050565b600081905092915050565b7f416363657373436f6e74726f6c3a206163636f756e7420000000000000000000600082015250565b6000612ab4601783612a73565b9150612abf82612a7e565b601782019050919050565b6000612ad582611d21565b612adf8185612a73565b9350612aef818560208601611d3d565b80840191505092915050565b7f206973206d697373696e6720726f6c6520000000000000000000000000000000600082015250565b6000612b31601183612a73565b9150612b3c82612afb565b601182019050919050565b6000612b5282612aa7565b9150612b5e8285612aca565b9150612b6982612b24565b9150612b758284612aca565b91508190509392505050565b60006020820190508181036000830152612b9b818461225b565b905092915050565b6000612bae82611b4b565b9150612bb983611b4b565b9250828202612bc781611b4b565b91508282048414831517612bde57612bdd6129fc565b5b5092915050565b6000612bf082611b4b565b9150612bfb83611b4b565b9250828201905080821115612c1357612c126129fc565b5b92915050565b7f4e487b7100000000000000000000000000000000000000000000000000000000600052603260045260246000fd5b6000612c5382611b4b565b915060008203612c6657612c656129fc565b5b600182039050919050565b7f537472696e67733a20686578206c656e67746820696e73756666696369656e74600082015250565b6000612ca760208361224a565b9150612cb282612c71565b602082019050919050565b60006020820190508181036000830152612cd681612c9a565b905091905056fea2646970667358221220b9345be9af7eac8b69c4e2b25255c4c184ddfb7b02b46386062e9edfaf5f3c4864736f6c63430008130033",
  "linkReferences": {},
  "deployedLinkReferences": {}
}